:040000006F10C007B6
:100004000000000000000000E43B0100000C0020A0
:10001400A9BDF9F3E43B010000000000000000006A
:10002400E43B0100E43B010000000000000000008C
:10003400E43B010000000000E43B0100000000007C
:1000440000000000E43B010000000000E43B01006C
:10005400E43B0100E43B0100E43B0100000000003C
:10006400E43B01000000000000000000C40C00207C
:10007400AA0C0020E43B0100E43B0100E43B010046
:1000840000000000E43B010000000000E43B01002C
:1000940097270000938747129C53411122C406C638
:1000A4001384418099C782971C403E9523A2A18066
:1000B40039A0972700009387670F9C43EDF708400A
:1000C400B74703009387D73F3305F502B7A7260048
:1000D400938737ECB24022443E9523A2A18041018C
:1000E4008280B7E700E09843B706200023A0D71822
:1000F400758F0F10000001C599C1814711E6B7E75C
:1001040000E023A0E7108280B386F50003C8060050
:10011400B306F500850723800601E317F6FEC5B78D
:1001240037E700E01C43B70620002320D718F58FDB
:100134000F10000001C53307C50011E637E700E0E2
:100144002320F71082800505A30FB5FEE31DE5FE0D
:10015400F5B737E700E01C43B70620002320D71883
:10016400F58F0F10000001C599C1014711EA37E767
:1001740000E02320F710054582800507E309E6FE29
:100184003308E500B386E5000348080083C606008B
:10019400E305D8FE37E700E02320F710014582800D
:1001A400797126D2972400009384040022D406D6C1
:1001B4004AD04ECE52CC56CA5AC85EC626849C40FB
:1001C400F9EB972700009387A7FE984317260000B2
:1001D400034656FBBE84172A0000130AAAFA97277F
:1001E400000083C727FA93961700BA9683D60600B1
:1001F400CDC69727000083C7E7F863EAC70A9727A5
:100204000000238107F81C4063910712172900009E
:100214001309C9F983270900638907109727000088
:10022400938747F980436302041097240000938462
:1002340064FCDC40B7C9C901014B17270000232720
:10024400F7F49389F937972A0000938AEAF68357DB
:100254002400F5EB5C4463150B0E17270000232BD9
:10026400F7F4832BC40022856D235E846DF09727F9
:100274000000938767F4DC53CDCB2254B2509254E0
:100284000259F249624AD24A424BB24B45611723A2
:1002940000E06700233E82971DB7850793F7F70FA9
:1002A400972600002380F6EEE3EBC7F299B78607A2
:1002B4003E978355070023100700972700002396D5
:1002C40007EC972700009387E7ED9C431725000070
:1002D400034545EB13172500BA979C4382971727CC
:1002E4000000034727EA9317170098403E97835767
:1002F4006A0093C7F7FF7D8D835707005D8D231038
:10030400A7009727000083C7E7E791C7850717274A
:1003140000002309F7E6172700000347A7E69727FD
:10032400000083C737E6E37CF7ECB25022549254C2
:100334000259F249624AD24A424BB24B4561828029
:100344002326FB0039BF8327090082971C44330707
:10035400F5406375F500D8401D8F2A9763EBE902D9
:100364008355240003450400974001E0E78080AFF3
:100374005C40E38107EE1044D440B2973E8763E4C7
:10038400C70063E4D7003387D74018C4228B4044A6
:10039400F1BD03A74A027DDB63EFA7023385A740C3
:1003A4008347040085E317270000034747E25117FA
:1003B400B307A7003E85D44063E4E70063E4D700B5
:1003C4003385D74083278A00E372F5FC9727000022
:1003D40023AEA7DA65BFD840BA97C9B737C700407C
:1003E4008326C720B707FCFFFD17F58F2326F720C8
:1003F4000F100000972700009387C7D8C84B8327A6
:1004040087262326D7206A0593C7F7FF99835D8D36
:10041400828017270000130727DF1443411122C4E9
:10042400BC4206C63A849983858BA5C3930700060C
:10043400BCC29727000083C767DD93F707049DC7F5
:1004440097270000938707DB9C4382979727000038
:1004540023A4A7DC97270000938747DB83C7070003
:1004640093F7F70B172700002302F7DA972700000A
:1004740083D747DA99CB172700001307E7DA184325
:100484007CD397270000239707D818403C439183D7
:10049400858B91CBC1473CC3972700009387C7D86E
:1004A4009C4323A2070697270000938727F29843CB
:1004B4005C438583858B99C323220700B240224481
:1004C40041018280B9377300203097270000A38F41
:1004D40007D297270000938727D594431727000056
:1004E4001307C7D283470700858B99E78347170013
:1004F400858B99E3FC52FDF7828083471500939620
:100504000701C1821387260081CF972700009387B4
:10051400A7D19C43BC4B9583858B99C313876600F5
:1005240093063700AA9603C6060005488547137646
:10053400F6076311060591C52A9783472700238090
:10054400F500834715009DC7972700009387C7CD03
:100554009C43B84B81471583058B09CF03C706001D
:1005640085461376F7066319D600620761876353DD
:100574000700B9473E8582809947EDBF011197274F
:100584000000238607C826CA97270000A38107C84E
:1005940097240000938444C2DC504AC806CE22CC7F
:1005A4004EC62A892E85B28595C7B7E700E037077E
:1005B400200023A0E728B7F700E003A707D16D9B2D
:1005C40023A8E7D003A707D11367870323A8E7D09D
:1005D400730050108547972900009389E9C21724B6
:1005E4000000130464C46317F9060146974001E050
:1005F400E780C09B83A709009C43A1838D8BB9E747
:100604001C4013076019F8D3DC5099CB37F700E08E
:10061400832707D193E787002328F7D0730050106E
:10062400144017270000130767BE83472700858BF4
:1006340099E783473700858B99E3FC52FDF7F24035
:100644006244D2444249B249056182801C40130786
:10065400E01B55BF974001E0E780008E83A70900A7
:10066400B70600019843558F98C3D85B719BD8DBBC
:10067400E31C09F897270000A38A07B81C40094720
:1006840098C359B797270000938707BA9C439847A4
:10069400D447758F98C79316D70063DE0600FD56BE
:1006A400B4D7972600009386E6ADD44A850617266C
:1006B40000002323D6AE937687008DC697260000CC
:1006C40083C6E6B493E61600172600002301D6B4C9
:1006D40097260000938646B39042545AF19A93E6C3
:1006E400160054DA937617008DC69726000083C649
:1006F400F6B193E6160017260000A309D6B0972694
:100704000000938666B09042545AF19A93E616001C
:1007140054DA93766700A9C6118B97260000938656
:10072400E6AE97250000938525AE4DCB984118433E
:1007340021830D8B4DE3D84A0347170025E71307A0
:100744007006D8CF83C7060093E717001727000069
:10075400230EF7AA98415C5BF19B93E717005CDBDF
:100764009727000083C707ACCDC397270000238BCE
:1007740007AA97270000938767AB9C43ADCB411131
:1007840006C68297972700009387C7A983C70700E7
:1007940093F7F70F89E79727000023A907A8B2402A
:1007A40041018280B04B1376060201C6130750073D
:1007B40049BF05466315C7001307B00659B7094674
:1007C4006315C7001307F006ADBF0D46E310C7FE5F
:1007D40013073007BDB713076007A5B783C73600F3
:1007E40093E7170017270000A303F7A2A5B79727DD
:1007F4000000938727A383C7070093F7F70F91E7B8
:100804009727000023A407A282808280A53D73005D
:100814002030B7E700E08C433707200023A0E71817
:10082400F98D0F100000972700009387A7A803A352
:10083400070097270000938767A783A807008146CE
:100844009A8763F6170D03A807006367F50C6365C1
:10085400A80C13878700636CE50A03D66700216739
:100864000507631BE60017270000034707AA0507CF
:1008740017260000230BE6A8172500001305859012
:1008840003D64700035745002393070032974207D6
:100894004183172E00002319EE8E638C6702172301
:1008A40000001303E3A0032303006304F30203D350
:1008B40066006310030283D7460023A006012107C4
:1008C4003E9621062392C60097270000239EE78ABE
:1008D400B6879843630D1703972600009386469DB9
:1008E40094426306D7028356670095E283D6470095
:1008F400035647001843A106B2962392D70098C323
:1009040083574500A10717270000231FF786B7E781
:1009140000E023A0B7108280BE86C2871DB7972748
:1009240000009387A78EDC4B938515029585984329
:10093400FD1518C1D84358C1984718C5D84758C59C
:10094400984B18C9D84B58C9984F18CDD84F58CD83
:1009540091C51305050293870702D1BF82809727AB
:1009640000009387678C98433C5BFDFF0100010006
:1009740082800111972700009387479F22CCC05F94
:1009840026CA06CE2AC42EC6854419E40145F2407F
:100994006244D24405618280834791000347140076
:1009A400858B6304F7000044CDB719469305A10075
:1009B40013052400EFF0EFF9E31795FE0545C1BFD9
:1009C4009307000C01116314F50493078008F3B72F
:1009D400078093F787083EC00F100000B717004048
:1009E400130770052380E704130780FA2380E704C4
:1009F4000F10000098271367070C98A7238007049B
:100A04008247F3A707800F10000005618280B717A3
:100A14000040B827118B69EB83C6E70413078008ED
:100A240093F6F60F733607801376860832C20F10DA
:100A340000001308700523800705930580FA2380BE
:100A4400B7040F10000003C6E704136636002387BB
:100A5400C704B02713664600B0A7238007041246D4
:100A6400732606800F10000090271376F60F733755
:100A74000780137787083AC40F1000002380070506
:100A84002380B7040F10000098271367070C98A75A
:100A940023800704A247F3A707800F100000A5478F
:100AA4000100FD1793F7F70FE5FF93078008F3B7ED
:100AB400078093F787083EC60F100000B717004061
:100AC400130770052380E704130780FA2380E704E3
:100AD4000F10000090A72387D70423800704B24790
:100AE400F3A707800F1000009377050C1307000489
:100AF4006399E70893078008F3B7078093F787089B
:100B04003EC80F100000B71700401307700523807C
:100B1400E704130780FA2380E7040F100000B827C6
:100B2400854613670701B8A737270040A303D7807A
:100B34008346578093E60601A302D78023800704E7
:100B4400C247F3A707800F10000093078008F3B78C
:100B5400078093F787083ECE0F100000B7170040B8
:100B6400130770052380E704130780FA2380E70442
:100B74000F1000001375F50F88A723800704F247B0
:100B840049B59377F5019DCF93078008F3B70780A4
:100B940093F787083ECA0F100000B71700401307E9
:100BA40070052380E704130780FA2380E7040F10FD
:100BB4000000372700408946A303D7802380070419
:100BC400D24741B793078008F3B7078093F78708A4
:100BD4003ECC0F100000B7170040130770052380A8
:100BE400E704130780FA2380E7040F100000372777
:100BF40000409D46A303D78023800704E24791B7B2
:100C040041118146014681451145971000E0E78076
:100C1400C01813078008F337078093F787083EC48A
:100C24000F100000B7170040130670052380C70497
:100C3400930680FA2380D7040F100000FD55CEB729
:100C440023800704A245F3A505800F100000733725
:100C54000780137787083AC60F1000002380C70463
:100C64002380D7040F10000003C76704136717001D
:100C74002383E70423800704B247F3A707800F10F8
:100C8400000001A04111B7170040985F3AC6945F75
:100C94003247E39CE6FE324541018280B7E700E03B
:100CA4003707001023A0E7208280B71700401307FE
:100CB40000032388E70273002030411106C6EFF0D9
:100CC4002FCEF5BF37370040834747409946BD8B49
:100CD400638FD704011122CE26CC4ACA31476395CB
:100CE400E702373400409384C1838347A440B5E3CB
:100CF4008947238DF18237070008B7E700E023A076
:100D0400E7180F10000031A81147639CE700A30700
:100D140001001544B73400401389C1839C87637C68
:100D2400F4007244E2445249056173002030834761
:100D340057407300203083C5844003250900971071
:100D440000E0E78040C69C87850793F7F70FDC87B0
:100D5400F1B7834584408840971000E0E780A0C441
:100D640069B7230304801547A2872303E4800100A5
:100D740001002302A48003C7678062076187E34CF4
:100D840007FE2382A780228783476780E207E187E3
:100D9400E3CC07FE82802303048015472303E48009
:100DA400010001002302A480828083076480E3CED3
:100DB40007FE23030480828083076480E3CE07FE5A
:100DC40003454480828083076480E3CE07FE2302C8
:100DD400A4808280411126C44AC24EC006C613773D
:100DE400F50BAD47AA892E8995446306F70019458A
:100DF4005D37653F8D444E85793FFD59FD146398F9
:100E04003401B240A24412498249410182801355FF
:100E140009011375F50F453F2209CDB7011126CC01
:100E240006CEB704080051371545B5377137693711
:100E34002AC6A53F32459377150089EB1365150043
:100E44001375F50FF240E24405618280FD14E9FC5C
:100E54000145CDBF411106C6B71700401307700501
:100E64002380E704130780FA2380E70403C74704B9
:100E74001305F00F1367070E2382E704914723033A
:100E8400F480C535B24041010DB7011126CC4ACAE0
:100E94004EC852C606CE2A89AE89B284554A5D3FF1
:100EA40091E82137F24026855249E244C249324A48
:100EB40005618280CA850945313F910903A7C9FFAD
:100EC40091472320E48003076480E34E07FE230355
:100ED4004481FD17EDFBFD14110981C49377F90FCB
:100EE400E9FF2D3F55FDFD5475BF011126CC4ACABB
:100EF4004EC852C656C45AC206CE2A89328A8D4971
:100F0400913FC164C16A056B9387F4FFB3F727016E
:100F140099E363719A02FD199180E39709FE713593
:100F24000145F240E2445249C249324AA24A124BB4
:100F3400056182801305800D638854011305000246
:100F44006384640113051008CA856935C13D09C568
:100F54002699330A9A4075BF7D55E1B7011106CE33
:100F640026CC4ACAB2844EC82AC62E89E5353245F3
:100F7400FD14FD59AA852D45B13D639A34013535DB
:100F8400F24026855249E244C249056182802D35EA
:100F940093F7340091EB8326048003270900930719
:100FA4004900E39EE6FC3E89FD14C1BF011106CE53
:100FB4002AC64D353245C533F2400561FDB30111F2
:100FC40006CE26CC4ACA4EC852C6AA8956C42E8911
:100FD4005135B7050400B3E5B9002D45E53B81441F
:100FE4008D4A214AD13B63965401832704802320F0
:100FF400F9008504E39844FF8327048013972901AB
:10100400635C07002312F900F240E2445249C249EA
:10101400324AA24A056151BB2322F900F5B74111B6
:1010240006C626C44AC24EC0AE892D358145130575
:10103400B0044D33BD447D59413393F77400CE97CA
:1010440003C70700FD14398D2380A700E39624FF0E
:10105400B240A24412498249410181BB411106C6F2
:10106400D53B13056006053B8933130590092533E9
:08107400B24041011DBB000068
:10107C00971100209381C180172100201301C1F723
:10108C001305400097F5FF1F938505F71706002001
:10109C00130606FE63FAC5008322050023A0550043
:1010AC0011059105E3EAC5FE17450100130585FB03
:1010BC00970500209385C5FB1386818263FAC500D2
:1010CC008322050023A0550011059105E3EAC5FE16
:1010DC0013858182971500209385052F6377B500C2
:1010EC00232005001105E36DB5FE930250027390A9
:1010FC0002BC8D42739042808542739012BC930265
:10110C0080087390023097F2FF1F9382E2EE93E215
:10111C0032007390523097120000938282AC73901D
:10112C001234730020302A8309CA838305002300FC
:10113C0073007D16050385056DFA82802A8311C61E
:10114C002300B3007D16050365FE8280371700402F
:10115C008347E70412054111BD8BC98F93F7F70F35
:10116C0093068008F3B6068093F6860836C60F10F1
:10117C000000930670052300D704930680FA230021
:10118C00D7040F1000002307F70423000704B2470D
:10119C00F3A707800F10000041018280011126CABD
:1011AC0006CE22CC8947B314A02863F9A700954733
:1011BC0063E4A70A93042500B3149028B7170040E2
:1011CC0003D70705B166558F2398E70413078008EA
:1011DC0073370780137787083AC60F100000130780
:1011EC0070052380E704130780FA2380E7040F10AF
:1011FC00000003C737051375F50F13670708A3899C
:10120C00E704A389A70403C7370513670702A3895B
:10121C00E70423800704B247F3A707800F100000F0
:10122C00B717004003D7070513175760E35C07FE99
:10123C0003D4070583C727054A04BA0749803E949F
:10124C007D2C33549402F240D244335585026244CF
:10125C0023A4A18205618280994793040040E30F87
:10126C00F5F49304F07F99BF41113A8E2A8381489B
:10127C00930E407E130F0019930F400663EF6E140C
:10128C00130700193377E502854E0D4F994FFD4238
:10129C0063E1BE1861477D1603A581824696AA8537
:1012AC00B3F6E602130780703387E602F946330E75
:1012BC00DE0293D61700858B7297369791E38145A2
:1012CC00B307A602A166FD161306302A13D8F70041
:1012DC00F58FB387C7021166B385A5023307A70242
:1012EC00B29513F6F71F1E06BD81A583F98EB3A622
:1012FC00C6203D83AE96BA9713D70601BA972D67D1
:10130C001307078C33D6E702B3C6060833F7E70298
:10131C0042964207558FB716004083C7F60293F7E3
:10132C000708DC838C8383C7F60293F70708E396E0
:10133C00F5FE9C83B7160040638107129307800863
:10134C00F3B7078093F787083EC40F100000B71758
:10135C000040930670052380D704930680FA2380FF
:10136C00D7040F100000D0DB83C6170393E60608E2
:10137C00A388D70223800704A247F3A707800F1086
:10138C0000001166B71700407D16D45BCC5FAD8EA4
:10139C00F18EE5FE93068008F3B6068093F6860878
:1013AC0036C60F100000930670052380D7049306F1
:1013BC0080FA2380D7040F100000D8DB03C7170373
:1013CC0013670704A388E70223800704B247F3A737
:1013DC0007800F100000410182807D133377E303F7
:1013EC001308E01601CF3377F3031308D01619C78F
:1013FC0013783300133818001308D816C298BDBDE3
:10140C0013F81500F91563FBBF029305E801AE98BC
:10141C009A851383F5FFE395E5FF854501CF130806
:10142C004006337805038145630608009375350043
:10143C0093B51500F105AE989A8599BDB385024117
:10144C00DDBF83C7F60293F70708DC838C8383C761
:10145C00F60293F70708E396F5FE9C83FDD3F9BDDE
:10146C000D06719A81473307F5006393C70082809C
:10147C0014433387F500910714C3F5B7914763EC18
:10148C00B7049727010093876738B3C5F5209841B7
:10149C003E97B71700409387470B02879443371743
:1014AC000040B3F6A64094C39306070B9C42B3F7D7
:1014BC00A74019A8944337170040B3F6A64094C32D
:1014CC009306070B9C42C98F9CC29307070A98434B
:1014DC003377A74098C38280944337170040C98E56
:1014EC00D9B798433377A74098C3B7170040938771
:1014FC00070A9843498FF9BF9843498FF5B7B71737
:10150C00004098279306000C1377070C6315D7003F
:10151C0003A5818282809827930600041377070C19
:10152C006310D702942713070002FD8A99C29827EB
:10153C007D8B3745C323130505603345E502828057
:10154C00942713070002FD8A99C298277D8B375583
:10155C00E80113050580D5B7B7F700E0884782800E
:10156C00411122C406C62A84593F2947B307E50214
:10157C00B2408D83B3D7870222449507B3D7E702D5
:10158C0037370040B3C707082316F7404101828064
:10159C00716541111305052006C6D937B7370040D0
:1015AC00130710F82381E7400D47A381E740130789
:1015BC000004A380E74005472387E740B240410180
:1015CC00828037370040834727401A0593F7F7038B
:1015DC00C98F93F7F70F2301F7408280B73700408C
:1015EC0003C7174019C94D8FA380E74003C70740B5
:1015FC00136787002380E7408280B375B740A380D0
:10160C00B7408280AA95B73700402147B7360040D3
:10161C006313B500828003C6B740E30BE6FE1021CE
:10162C0005052384C640EDB7371700403E2FB3C7DE
:10163C00070893F707FCB3C707083EAF09C93E2F4D
:10164C008E055D8ED18DB3C505082EAF828082804C
:10165C00B287411113962500BE8506C61135B240DE
:10166C00014541018280011122CC26CA93962500A6
:10167C002A84B284AA850146054506CE36C6EF00FB
:10168C00C070B2462686A2850945EF000070F24074
:10169C006244D244014505618280411122C406C6D0
:1016AC002E849397556063DD0700EF00300F19C14E
:1016BC00EF00F0021315F468B2402244410182801D
:1016CC0093F7150013C51500E5FB8967ED8F99CFCE
:1016DC00EF10506337F60200130606E0896503C568
:1016EC000183EF00503F1315D468F9B711656D8D68
:1016FC0061D513060064916503C50183EF00B03D0D
:10170C001315E46855BF5D715D46972501009385FF
:10171C002511172501001305251286C6A2C497F0C2
:10172C00FF1FE78080A211E101A0B7F700E023A41E
:10173C000700795798CB3D4798C393078008F3B7B8
:10174C00078093F787083EC00F100000B7170040C2
:10175C00130770052380E704130780FA2380E7043E
:10176C000F100000B847B70600C1FD16758FB706FD
:10177C00000E558FB8C7238007048247F3A7078054
:10178C000F10000097F7FF1F938747EF23A6F182F6
:10179C00130700F8B7E700E0A38AE74013064003FD
:1017AC008145680097F0FF1FE7800097970700209E
:1017BC00938747A405643EC6930704E0FC80E17759
:1017CC0093C727812310F102B7B703003ECAB707AE
:1017DC000103938707103ECCED47FC868547230F0A
:1017EC00F100970700009387E7E63EDCB7F50300AE
:1017FC0097070000938767E73EDE81469707000056
:10180C009387C7D55000E10519453ED6BD2B194627
:10181C004C0013053102013AB24791C7BC80130446
:10182C00F4BF6363F40001A06800EF10400B11C11A
:10183C0001A0B64026446161828041111705000069
:10184C001305E5E506C622C4EF10A0051384018339
:10185C0008A0112808202244B240130600328965E2
:10186C0041016F005027397126DA06DE22DC4AD896
:10187C004ED652D493048008F3B7048093F78708AC
:10188C003EC20F100000371400409309700523006E
:10189C003405130980FA230024050F100000834738
:1018AC00F40293E71700A307F40223000404924701
:1018BC00F3A707800F1000001945CD30138A418320
:1018CC002320AA00014781467146854581471305AF
:1018DC00507E593A9307803EFC8383270A006800A8
:1018EC00FC82B707C0A83EC897F7FF1F938707393C
:1018FC003EC697F7FF1F9387E7393ECEEF1060295E
:10190C00F3B4048093F4840826C40F100000230061
:10191C003405230024050F1000000100010083474B
:10192C00140393E70702A308F40223000404A2475C
:10193C00F3A707800F100000F2506254B7E700E0E5
:10194C003707001023A0E710D2544259B259225A3B
:10195C00216182800CC12312050072A10CC582800A
:10196C00104114457E215A21B306D640958F998F8C
:10197C0063F3B70001A0BA954EA13305E60082804F
:10198C005A21AA876373B70001A008410D8FDAA30F
:10199C00AA958CC38280411122C42E84854506C62B
:1019AC00C13700A1B240224441018280411122C4BE
:1019BC004AC0130640062A842E89138541909385CC
:1019CC00019106C626C279378545AA84513F9147B5
:1019DC001CA1894526856937B9470D091CA1A300AF
:1019EC0025018D452685AD3F85471CA100B1218081
:1019FC0020A1B240224402492685924441018280B2
:101A0C00411126C2AA8403D5818322C406C62E8422
:101A1C00713FA2852244B24088C09244410189B7EB
:101A2C00411126C28545AA8403D5818306C622C4EA
:101A3C00B53F85452A842D3704A1B2402285224426
:101A4C009244410182800111854522CC06CE2A8424
:101A5C0002C23D37182185476307F7000145F24064
:101A6C006244056182805A208947E3F9E7FE8D457F
:101A7C00228539375A203C21E362F7FE1C311821AC
:101A8C002146A207D98F239CF18293D6A70013F786
:101A9C00F73F638DC6009307F0036384F6088D4708
:101AAC006392F6026310D702014581A0FD46630BD9
:101ABC00D70493F7073E89EBF5476303F702F94721
:101ACC006308F702124561BF930730036308F702FE
:101ADC0093074003E318F7FE89659385450319A81E
:101AEC008965F5050840EF20102D1D3F2AC2D9BF8E
:101AFC008965F9050840EF205035C5BF8965938588
:101B0C003503CDB76800EF30A013EF2050482A847E
:101B1C008D454800F53500A11C861CB19C863CA166
:101B2C0055B793072030630FF700930730306303EA
:101B3C00F70A93071030E317F7F81C408823EF30AF
:101B4C00E01665B700409D47182063F5E70049454E
:101B5C00C13D2AC213078008F337078093F7870823
:101B6C003EC40F100000B71700409305700523808A
:101B7C00B704130680FA2380C7040F10000083C635
:101B8C00E70493F6F6082387D70423800704A246BC
:101B9C00F3A606800F1000007337078013778708B1
:101BAC003AC60F1000002380B7042380C7040F101F
:101BBC000000142003C7E7049206558F1377F70F24
:101BCC002387E70423800704B247F3A707800F108D
:101BDC000000D9BD1C408823EF30201339B74111C8
:101BEC00194506C6EFF08FD61305600497F0FF1F5A
:101BFC00E78080DC093E9131B920EF30F0322522AC
:101C0C0097F0FF1FE780E00A9397556063DB0702AC
:101C1C00411122C426C206C62E844926AA8419C99B
:101C2C00182185476316F7004841313DC9287520B6
:101C3C0026857524B2401315F46822449244410160
:101C4C00828001458280411117050000130505FCB7
:101C5C0006C6EF001045B24097F7FF1F2382A7423C
:101C6C0041018280411122C406C62E84939755608F
:101C7C0063DB0700252611C19D241315F468B240BF
:101C8C0022444101828013F5150075D903C7A18345
:101C9C0089476311F7022145612CAA8501CD930771
:101CAC0010101EA183A7C1835CC117F5FF1F03454C
:101CBC00253D952E13451400D9B7411122C41306A6
:101CCC0040062A84938501781385417706C65931DD
:101CDC00B24008C0224441018280411185471385DE
:101CEC00C18306C6238DF182C93FB240B7E700E03D
:101CFC003707000823A0E7100145410182804E21DF
:101D0C00011106CE22CC8D471384A1831CA02EC6B4
:101D1C008539B245EFF01F8F23000400F240624476
:101D2C000145056182804111170500001305C5F3BB
:101D3C0006C622C4EF00F03613840184B7170040A6
:101D4C00214708A023ACE70A8D452145EFF00FF39E
:101D5C0085451145EFF08FF2014681450545EFF0C1
:101D6C00BF8CEFF0FF820D45EFF0BF859545054523
:101D7C00EFF0DF8608201306000A8545AD2F2244BC
:101D8C00B240238D0182410189BF01112A8706CE01
:101D9C002E8526CCB2854ACA368622C63724004008
:101DAC00B7E700E0FD5603A90700C44323A0D718EA
:101DBC0023A2D7189307F7FF93F7F70F894663E031
:101DCC00F60AB717004083C75704B706040093F709
:101DDC00070299E3B7C60300F9576375D5043308B6
:101DEC00C50063E1060589476314F704098297F07F
:101DFC00FF1FE7800009AA8737170040930670057C
:101E0C002300D704930680FA2300D70483464704A3
:101E1C00C18A2302D70437E700E0232027112322AD
:101E2C0097103244F240E24452493E85056182806B
:101E3C008547631FF7008567FD173E96E98F3E9631
:101E4C00FD777D8E7D8D97F0FF1FE780800965B74C
:101E5C0097F0FF1FE78000109307150071BFB5477F
:101E6C00631AF7001305900B97F0FF1FE7808013A0
:101E7C00814759B7B1476315F7001305B00AEDB7A1
:101E8C0099476317F70097F0FF1FE780C012CDB793
:101E9C009D47631BF70023A0050023A2050097F0C4
:101EAC00FF1FE7804017E9B791476317F70097F0DA
:101EBC00FF1FE780201A6DBF81471DDFF1572DBF33
:101ECC0023AC05FE1C4191E7010001000CC182808E
:101EDC00BA8703A787FF6DFF23ACB7FE8280411141
:101EEC0022C437E400E026C204403707200006C6AF
:101EFC00F98C2320E4180F10000009E9232094101A
:101F0C001545B24022449244410182800347E5FFCB
:101F1C009307F00F6306F700232094101145D5B7F3
:101F2C0097F0FF1FE780608E014523209410D1BFEE
:101F3C00411126C2B7E400E04AC003A90400B70768
:101F4C00200006C622C43379F90023A0F4180F1020
:101F5C00000009E923A02411B24022449244024912
:101F6C00410182809565938505D0C98D2A84210510
:101F7C00C2054205C1814181EF20411D01CDFD57B4
:101F8C0023200500231285002303F50023A0241130
:101F9C002105D9B723A0241101457DBF4111B7E715
:101FAC0000E026C284433707200006C622C4F98C01
:101FBC0023A0E7180F100000970700209387871BBA
:101FCC00904301440147B28789E709E8A165792B61
:101FDC003DA083C6E7FF639EA60229C0832684FF2B
:101FEC006310C404170700202326D7187D57232C11
:101FFC0004FE230FE4FEF9DBA165EF10B165228529
:10200C00B2402244B7E700E023A09710924441016C
:10201C00828011E03E8783A787FF7DB73E84E5BFB2
:10202C00232CD7FEE1B741114AC037E900E022C4A6
:10203C00032409003707200006C626C2798C23200A
:10204C00E9180F10000089E523208910154515A00B
:10205C00AA849707002083C737122E8563F5F400F6
:10206C00854763EE9700A53DB7E700E023A08710F6
:10207C000D45B2402244924402494101828083A71B
:10208C0085FF99E703C7E5FF9307F00F6308F70097
:10209C00B935B7E700E023A087104DBF238F95FE1D
:1020AC00170500201305050D213DA1652685EF10B0
:1020BC00715A0145232089106DBF9707002023AB6F
:1020CC00070A828093F7F50FB5C341114AC006C6C3
:1020DC0022C426C22E890147A146B357E940858BFD
:1020EC00A9C30E05B307E5003145B387A7029706D0
:1020FC0000209386E60E844205443314E400420427
:10210C004180BE949C40C840829723A0040023A227
:10211C00040033452401B240224492440249410157
:10212C0082800507E31BD7FA0144E5B7014582809D
:10213C000111B7E700E022CC80434AC837072000E2
:10214C0006CE26CA2A892E86798C23A0E7180F1072
:10215C000000131506019305F004418132C6EF10FF
:10216C00F17EAA8419C53246CA8597E0FF1FE78025
:10217C00C0F6B7E700E023A08710F2406244268542
:10218C004249D244056182801D898545B395A500DD
:10219C00C2054111C181014506C6EF10112409C5C4
:1021AC000845B240410182800145E5BFB7E700E038
:1021BC009843B706200023A0D718758F0F10000086
:1021CC009706002083C656FB6375D50217060020C0
:1021DC00130646FD93161500084293C5F5FF369578
:1021EC0083560500F58D2310B50023A0E71001459B
:1021FC00828023A0E7100D458280011137E700E0B3
:10220C0026CA0443B706200006CE22CC4AC84EC6C6
:10221C00F58C2320D7180F100000130785FF1377B8
:10222C00F70F9D4763E3E70AB146B306D50297075C
:10223C0000209387E7FA984336971C43D9C7054487
:10224C001D893315A4001314050141802E89054501
:10225C00A285EF109118AA8929CDA2850545B93719
:10226C00970700209387C7F39C438297970700201A
:10227C0083D707F8338727032A8481461306006423
:10228C00B3B7270313050732B335E500BE95EF103E
:10229C00011DB3078500970600209386E6F43E8760
:1022AC00D44263E4A70063E4D7003387D74023A468
:1022BC00E900B7E700E023A097100145F240624423
:1022CC00D2444249B24905618280B7E700E023A0BD
:1022DC0097100945E5B779714AD037E900E026D265
:1022EC0083240900B707200006D622D44ECE52CC48
:1022FC0056CA5AC85EC6FD8C2320F9180F10000070
:10230C009707002083C757E7637AF50097070020EB
:10231C00938707E983AB070063970B00B7E700E0EF
:10232C0023A09710A9A0170B0020130BEBEB832A0B
:10233C004B00B74736FE938707C82E8A97050020B7
:10234C0083D505EBBE9AB387C5022A84B289814630
:10235C00B3B5C50213850732B337F5001306006415
:10236C00BE95EF10C10F63F0AA022320991001450E
:10237C00B250225492540259F249624AD24A424B08
:10238C00B24B45618280829B9705002083D545E640
:10239C00B38735032A89130600648146B3B5350328
:1023AC0013850732B337F500BE95EF10410BB30719
:1023BC0025013E8903274B0063E4A70063E4E70093
:1023CC003389E740D2852285EF10310109C92324D6
:1023DC002501B7E700E023A09710054551BF936591
:1023EC0004F0C205C1814145EF10515619E9970718
:1023FC0000209387A7DB9C5795D3A2851145829724
:10240C0031BF97070020938727DA9C438DE397070A
:10241C00002023ABA7D82326050023242501231154
:10242C004501230085002322050065B7BA87D847EC
:10243C0075FFC8C7CDB77971B7E700E026D28443E2
:10244C003707200006D622D44AD04ECE52CC56CADC
:10245C005AC85EC662C466C26AC0F98C23A0E7186B
:10246C000F10000039CD2144B689B28A2E8A2A89F0
:10247C00B14C170B0020130BABD6054D414CB30BD5
:10248C00940303270B005E971C43A9EF937574000C
:10249C00B315BD00C2055686C18105452D3D39C118
:1024AC0083270B00DE9723A0270123A24701638417
:1024BC00090023808900B7E700E023A097100145AD
:1024CC0021A023A097100945B250225492540259CE
:1024DC00F249624AD24A424BB24B224C924C024DC8
:1024EC00456182800504E31C84F9B7E700E023A072
:1024FC0097102145D1BF0111B7E700E026CA8443EC
:10250C0022CC4AC84EC63707200006CE2A84AE8994
:10251C003289F98C23A0E7180F1000006D3B22853F
:10252C00CE85EF10816B2A8405C59705002083D5D5
:10253C0025CCB3872503130600648146B3B5250368
:10254C0013850732B337F500BE95EF00517148C0C3
:10255C0013351400F2406244B7E700E023A0971053
:10256C004249D244B2490E05056182800111B7E798
:10257C0000E04AC803A9070022CC4EC6370720004A
:10258C0006CE26CAAA892E843379E90023A0E7183F
:10259C000F100000EF106164AA8419C1231105000B
:1025AC00A2854E8521319707002083C7E7BC639D28
:1025BC00370197070020938727BC83D767005D8C72
:1025CC0097070020239D87BAB7E700E023A02711C7
:1025DC00014591E01945F2406244D2444249B24966
:1025EC000561828001114AC837E900E022CC03243E
:1025FC000900B707200006CE26CA4EC67D8C2320C4
:10260C00F9180F100000BD4763E8A704B147B304E5
:10261C00F502970900209389A9BC83A70900A69706
:10262C009C439DCB937775008545B395F500C2050A
:10263C00C1810D81253F83A709000145A69723A0E1
:10264C00070023A2070023208910F2406244D244E1
:10265C004249B24905618280B7E700E023A08710A8
:10266C000945E5B797070020938707B19447638620
:10267C000610411126C2BE8497070020938787B2AB
:10268C008C4306C622C44AC0170600200346D6AEA9
:10269C00814763CFC70A170700200347B7B6954792
:1026AC00170900201309C9B563EEE7089707002046
:1026BC0083C787B6C1EB170400201304E4B258405B
:1026CC00970700209387C7AD9C43639BE6088297CE
:1026DC005440B74736FE938707C8B6973387A70091
:1026EC003A856364F7006364D7003305D7408327CA
:1026FC00490181CF97070020938707B3944337078D
:10270C00CDFF7D179C46F98F9CC611E14840970779
:10271C0000209387A7A9DC53829701E983274901FD
:10272C0095C3EF20E13AEF20C12F8327490199CBC4
:10273C0097070020938747AF9843B70633001C4791
:10274C00D58F1CC7B2402244924402494101828079
:10275C00139717002E97035707006DF7850715BFC2
:10276C00829794445840B387A6003E8563E4D70013
:10277C00E3EFE7F63385E7409DBF8280411106C643
:10278C009707002023A0A7A60295B2409707002028
:10279C0023ACA79E0145410182809707002023A10D
:1027AC00A7A00145828041111146814517050020E3
:1027BC001305C59E06C69707002023A7079E9707FB
:1027CC00002023A107A29707002023AB079C97E0CA
:1027DC00FF1FE78060941306000281451705002057
:1027EC001305859997E0FF1FE7800093EF20907DFC
:1027FC00C14785451305001217070020230FF796D4
:10280C00EF10D11417070020232CA79C41C999471E
:10281C0017060020034666963306F602814513061A
:10282C00060C97E0FF1FE780208F97070020938707
:10283C00279B9C439387070C17070020232EF794A4
:10284C0017070020034767930A07BA97170700205A
:10285C00232AF794EFF07F86392997070020938776
:10286C00A79398439707002083C717919396270047
:10287C00BA96171601001306C63890C29386270025
:10288C00850793F7F70F8A07BA9717060020A30559
:10289C00D68E170700001307278398C3B240410157
:1028AC0082809707002083C7378D170700200347C6
:1028BC00C78C63F3E702170700201307E78D184353
:1028CC009386170017060020A308D68A9396270034
:1028DC00369708C33E8582809307F00FE5BF1C41F5
:1028EC00638A0712370700F07D8FB70600208947EF
:1028FC006313D71203574500630F0710411122C40D
:10290C0019462A849305F00F5D0506C6EF10C13EEB
:10291C0005478D47630BE50E1C4491C758549947E6
:10292C006DC718587DC31306400381451705002059
:10293C001305C58797D0FF1FE780007E1306400361
:10294C00A285170500201305658697D0FF1FE78029
:10295C00C0789707002083D7278699E79307001044
:10296C0017070020231AF7849707002083C7E784F2
:10297C0091E78547170700202301F784970700206C
:10298C0083D7C78391E7ED47170700202318F782F9
:10299C009707002083C7778291E78D4717070020A0
:1029AC00A30DF7809707002083C7678191E78547C0
:1029BC00170700202305F7809707002083C737806F
:1029CC0099EB97F7FF1F9387677E83C7F70017F77D
:1029DC00FF1FA306F77E97F7FF1F83C7677E91E75C
:1029EC00C94717F7FF1F230DF77C8347540199E75D
:1029FC009307400617F7FF1FA304F77CFD57170733
:102A0C000020A30FF78645338147B24022443E8510
:102A1C004101828089473E85828001114EC697F91B
:102A2C00FF1F9389697C83A7090006CE22CC26CA96
:102A3C004AC852C4829713090064B335250303DADC
:102A4C0089008146528633052503EF00512197F703
:102A5C00FF1F93876772804BAA840145630694021B
:102A6C0033858440636E940003A5490052868146E9
:102A7C00B335A9023305A902EF00711E018D26950D
:102A8C0097F7FF1F23A29770F2406244D244424949
:102A9C00B249224A05618280011122CC0A852E841A
:102AAC00414697150100938565D506CEEFE0AFE75B
:102ABC00180806043A94035504FF97F7FF1F83D7B1
:102ACC004773F2406244AA9737450F00130505245B
:102ADC003355F5020561828097F7FF1F83D7677125
:102AEC0051471D45637CF702794719456378F70216
:102AFC001307200315456373F7021307B004114540
:102B0C00637EF700130740060D456379F700130742
:102B1C00600909456374F70013B5B70F8280011182
:102B2C0022CC06CE2A842EC697D0FF1FE780C05534
:102B3C00B245F240818D33A5A502229562441375EE
:102B4C00F50F05618280011122CC06CE2A842EC697
:102B5C0097D0FF1FE7804053B245F240818D33A5DB
:102B6C00A5022295624442054181056182800111D2
:102B7C0022CC06CE2A842EC697D0FF1FE780C050E9
:102B8C00B245F240818D33B5A502229562440561B0
:102B9C008280411106C651CD1C41AA850545D9C775
:102BAC00DC41C9C783D78500D1C383D7A500BDCF6E
:102BBC00514617F5FF1F1305256397D0FF1FE780BC
:102BCC00C05197F7FF1F2387076297F7FF1F938763
:102BDC00A7618843D93697F7FF1F83C7875E8DE7B8
:102BEC009307006417F5FF1F035585603305F50245
:102BFC0037460F001306062481468145EF00310647
:102C0C0097F7FF1F238FA75A17F7FF1F0347675B21
:102C1C00AD4763E7E700B14717F7FF1F2303F75AE8
:102C2C00170500001305A5DF913E0145B240410197
:102C3C00828097F7FF1F23AB075497D7FF1F93870B
:102C4C00677917F7FF1F2321F75A7D5797F7FF1F57
:102C5C0023AEE758B7873200938727A197F6FF1F5B
:102C6C0023A8F65897F7FF1F23860758B7C70040CD
:102C7C0023A4E72699BF011122CC17F4FF1F1304DC
:102C8C00E452084406CE26CA4AC801E90545F2407A
:102C9C006244D2444249056182805C54E5DB185899
:102CAC0075D77000854582971844B247E300F7FE4C
:102CBC009305E00417F5FF1F03550550EF1001496C
:102CCC0017F7FF1F2326A74C71D117F6FF1F0356CA
:102CDC00A64E9305F00F97D0FF1FE780E043814489
:102CEC0017F9FF1F1309494997F7FF1F83C7E74CD3
:102CFC000326890163C1F402328597E0FF1FE78048
:102D0C00C0B0014597F7FF1F23A4074897F7FF1F93
:102D1C0023A20748ADBF97F5FF1F83D5E549B387BD
:102D2C00950208441858898185043E9508C202977B
:102D3C0065BF011156C297FAFF1F938A2A4783A7D2
:102D4C008A0022CC4AC84EC606CE26CA52C45AC0E5
:102D5C00AA892E8432896380072203A7CA026305DD
:102D6C0007141307F01F6363A71497F4FF1F9384D2
:102D7C00A44003AA840163150A0A9565938515E09E
:102D8C0017F5FF1F03554543EF10413C97F7FF1F05
:102D9C0023A0A7402A866309051083A7CA0203A5AE
:102DAC008A0097F5FF1F83D525418981829783A7D8
:102DBC008A0003AA840117F7FF1F232DF73C8947CC
:102DCC00639AF908C1476311F40E97F5FF1F83D579
:102DDC00A53E938505FC9147B3C5F5028A05D295AE
:102DEC0003C725009307A005631CF70A83D70500CA
:102DFC006398370B4A852286910597D0FF1FE78091
:102E0C00C02D9C4C5285639F47130145F240624490
:102E1C00D2444249B249224A924A024B056182800D
:102E2C00D84CE38EE7F89565938525E017F5FF1FE1
:102E3C0003558538EF1081312A8A3DC52A8683A730
:102E4C00CA0203A58A0097F5FF1F83D5E536898151
:102E5C008297B5B78D47639DF900C1476316F4049B
:102E6C0097F5FF1F83D54535938545FDF19985BFB2
:102E7C009147639AF9006319340397F5FF1F83D5C3
:102E8C00A533A115E5B793070010639FF900A1477F
:102E9C0063EC870097F5FF1F83D50532C115F9B791
:102EAC009C4C52856394470D29458DB71D6A568BF2
:102EBC00637F4509130A05E01947334AEA0217F7FD
:102ECC00FF1F0357672F97FAFF1F938AEA2A330ACB
:102EDC00EA023E9A83A7CA016395470183A48A013B
:102EEC008DE49305E00417F5FF1F0355E52CEF1057
:102EFC00E125AA8455D98327CB0297F5FF1F83D5EB
:102F0C00A52B2A8689815285829791451307A005A6
:102F1C00898193972500A69783C627006393E604BF
:102F2C0083D60700639C360385058A052286A69501
:102F3C004A8597D0FF1FE780401A83A78A01E38652
:102F4C0097EC268597E0FF1FE780208C7DBD2167DD
:102F5C007917E36BA7F4330A454195B783C537005E
:102F6C0045BF83A78A01E38197F4268597E0FF1F6D
:102F7C00E780A08915BF97F7FF1F9387E71F8C4F3A
:102F8C0085D591479306A0058983139727002E9723
:102F9C0003462700E31AD6F003560700631C3601DC
:102FAC0085078A072286BE954A8597D0FF1FE78042
:102FBC00C012A1BD83473700C1BF97F7FF1F93878E
:102FCC00E71E984739C79C5BA9C705476313E504FF
:102FDC00411122C417F4FF1F1304041A104C06C627
:102FEC000DC6484C97F5FF1F83D5051D8981829727
:102FFC00084C97E0FF1FE780408197F7FF1F23A93C
:10300C00071897F7FF1F23A70718B2402244410166
:10301C0082808280011117F7FF1F130727194EC6F4
:10302C008329870022CC26CA4AC806CE52C456C26F
:10303C00AA842E843289638709201C5BBA8A99EB97
:10304C002945F2406244D2444249B249224A924A4A
:10305C00056182805C57EDD79307F01F63E8A70EDC
:10306C0097F9FF1F9389491183A78901B1CB03A558
:10307C008A0083A7C9016393A70689476391F40863
:10308C00C147E31FF4FA17F5FF1F0355E5129147EB
:10309C00130505FC3345F5029317250003A589019B
:1030AC002286CA853E959307A0052301F5002310BF
:1030BC009500110597D0FF1FE7802002014551B7FD
:1030CC009305E00417F5FF1F0355050FEF100108DA
:1030DC0097F7FF1F23AEA70A59F99DB783A7CA021A
:1030EC0003A6890197F5FF1F83D5050D898182976A
:1030FC0083A78A0017F7FF1F232EF708BDBF8D4744
:10310C00639EF400C147E31DF4F217F5FF1F03554E
:10311C00A50A130545FD9377C5FF49B79147639AF7
:10312C00F400E31F94F017F5FF1F0355E508211574
:10313C00DDB793070010E395F4F0A147E3E287F0C5
:10314C0017F5FF1F035545074115F1B79D676379C7
:10315C00F506930705E01947B3C7E70217F7FF1FFA
:10316C000357870517FAFF1F130A0A01B387E702F3
:10317C00BE9983278A01A1CF8327CA01639737079A
:10318C0003258A0191461308A0059305F00F93D7E8
:10319C002600139727002A9703462700631D06076E
:1031AC00835807000346370063939806B306D6404E
:1031BC0063CD860485078A072286CA853E95DDBDC8
:1031CC0021677917E36EA7E6B307F54041BF930576
:1031DC00E00417F5FF1F035525FEEF00317797F735
:1031EC00FF1F23A7A7FA49F9A1BD83A7CA0203268B
:1031FC008A0197F5FF1F83D525FC89814E8582971F
:10320C0097F7FF1F23A837F9A5BF2310B700931614
:10321C000601C182ADBFB385860017F6FF1F0356AA
:10322C00A6F99105130606FCE3FCC5E01306340071
:10323C00719A1106B2962301070123109700A3017E
:10324C00D7008DBF97F7FF1F938707F3944FBE8965
:10325C00A9C203A5890191461308A0059305F00F97
:10326C0093D72600139727002A9703462700631647
:10327C000605835807000346370063989800B30689
:10328C00D640E3D986F22310B70093160601C1820B
:10329C00C1BF8357C70017F5FF1F034505F2930500
:1032AC00E0043305F50242054181EF00316A97F7DE
:1032BC00FF1F23AFA7EC51FD61B317F6FF1F035699
:1032CC00A6EF97F5FF1F83C545EFB385C50233867F
:1032DC0086001106E3E6C5D691BF01458280F94709
:1032EC0063E0A70669478D47636AA7045D47894772
:1032FC006366A704514785476362A7044547814726
:10330C00636EA7023D47FD57636AA7022D47F55729
:10331C006366A7022547ED576362A7021947E15779
:10332C00636EA7001147D957636AA7000947C557B1
:10333C006366A7009D576313E500B1573E858280F5
:10334C009D47EDBFA157634DF50635578947634738
:10335C00E50649578D476343E5065D579547634F2F
:10336C00E50465579D47634BE5047157A9476347CF
:10337C00E5047957B1476343E504C147634005044D
:10338C00C9470DCD0547D547630AE5020947E14713
:10339C006306E5020D47ED476302E5021147FD4761
:1033AC00630EE5001547930750026309E5001947C2
:1033BC009307B0036314E5009307D0023E85828027
:1033CC008547EDBF97F6FF1F938646E590428177C0
:1033DC00FD175846F98F5CC60F1000009C42B706CB
:1033EC000200060594C7E8D3D8C78280011122CC0D
:1033FC002A8411452EC632C436C206CE26CAEF0028
:10340C00714E97F4FF1F938464DF98401305802559
:10341C005C5BF19B93E717005CDBEF106165B245D9
:10342C00268797F7FF1F938727E092462246D5C938
:10343C008C43136404041374F407DC55F59BDCD53E
:10344C009C408C4393F505F84D8CB745767180C341
:10345C0093859512CCC7ACD303A88700B70800FF9F
:10346C00B70580009385D532337818013368B800DE
:10347C0023A40701E84F17F4FF1F130464D8337516
:10348C0015014D8DE8CF1843B75755009387575505
:10349C005CC33CCF97F7FF1F938747D89C431848D2
:1034AC00B6850145B8DFD843799BD8C3914717F748
:1034BC00FF1FA309F7D497D0FF1FE780A00B83470A
:1034CC003400858B91CB97F7FF1F83D787D6850761
:1034DC0017F7FF1F231FF7D4F2406244D244056153
:1034EC0082808C431374F407DC55F59BDCD59C402F
:1034FC00B7C5898E938565ED8843137505F8498C9E
:10350C0080C389BF17F7FF1F0347D7CF91476303CA
:10351C00F70697F7FF1F9387A7EA9843B7C70040B2
:10352C00938707306318F7044111354506C6EF0041
:10353C00713BEF10E159C520EF10A14E97F7FF1F1B
:10354C009387C7CB9843130580551C4393F7F7CF4C
:10355C001CC3EF10E151052CEF003072352AFD220F
:10356C000145EF10E150B24097F7FF1FA38C07C83D
:10357C00410182808280FD572384F18423A201843F
:10358C00B7C700401387073097F6FF1F23AAE6E260
:10359C001387072097F6FF1F23A2E6C8938707100F
:1035AC0037D70040411197F6FF1F23AFE6C617F738
:1035BC00FF1F2325F7C406C617F7FF1F130747C4C1
:1035CC008547A302F70097F7FF1F938727BE9C43FD
:1035DC005CCB9387C7101CCB3537B7E700E003C72C
:1035EC00574113670708A38AE740B240370710001A
:1035FC0023A0E7103707200023A0E71041018280A9
:10360C0097F7FF1F23AEA7C011C5854717F7FF1FFC
:10361C002304F7C0828097F7FF1F9387E7C09C4372
:10362C0013070048B70600F998D7D85FFD16B70501
:10363C000040758FB7060002558FD8DFD85F37066C
:10364C00FAFF7D160E070D834D8FD8DF945BF18E3C
:10365C0094DB985BB7060090FD16758F4D8F98DB49
:10366C00B847B706F9FFFD16758FB8C7B84BB70644
:10367C0007001377F78F13670730B8CBF84F558FC8
:10368C00F8CFF84FB7060007558FF8CF93074006D1
:10369C000100FD17F5FF828017F7FF1F1307C7B84E
:1036AC001C4341767D16B44BF18EB4CB9447370650
:1036BC002000D18E94C7D44793E60601D4C7D447D3
:1036CC00BD9AD4C701000100010001001443056636
:1036DC00DC4693E70701DCC6DC42D18FDCC297F7EE
:1036EC00FF1F9387A7B39043930740067CD27C526D
:1036FC0091C783A7C609A183858BF5DB0100010067
:10370C0001000100184341668327C709FD8B97F61A
:10371C00FF1FA389F6B0344BD18E34CB344B370614
:10372C00E0FF7D16819ADD8E34CB14478907F18E2C
:10373C0014C77D476367F70017F7FF1F2304F7AE25
:10374C00828097F7FF1F238FE7AC828097F7FF1FCC
:10375C00938787AD9C4341777D17B44F4166F98EB3
:10376C00B4CF9447D18E94C7D44793F6F6EFD4C711
:10377C00D443758FD8C3D44793E60610D4C7D84327
:10378C00518FD8C38280397122DC17F4FF1F1304C8
:10379C00A4A91C4006DE26DA4AD84ED652D456D2FC
:1037AC005AD05ECE62CC66CA6AC86EC6D843FD7665
:1037BC00FD161377F7EFD8C39857758F98D7D8574E
:1037CC00B70602003D9BD8D79847558F98C7D8436A
:1037DC0013670701D8C3056783D6018513074723F1
:1037EC00E389E648D84381749384F40F799BD8C35A
:1037FC00985FB166938606F0658F558F98DFD84336
:10380C0013671700D8C3EF10E1331C4003A7070957
:10381C001377F7032389E18403A7470929831377D7
:10382C00F707A38AE184D843B96693860670799B1F
:10383C00D8C3985F658F558F98DFD84313671700EF
:10384C00D8C3EF1021301C4003A707091377F703E7
:10385C00238AE18403A7470929831377F707A38BEE
:10386C00E184D843B56693860630799BD8C3985FBC
:10387C00658F558F98DFD84313671700D8C3EF10A7
:10388C00612C18408327070993F7F703A389F18468
:10389C0083274709A98393F7F707238BF1841C40EF
:1038AC0003CC318583C6218503A7070AB3868641DD
:1038BC0013F6F600419B518F23A0E70A1307600211
:1038CC003387E6021306700283A5070A7D7E130E6A
:1038DC00FE0F93F5F5F01305400245737D131304A9
:1038EC0030023347C702B708F1FFFD181308200256
:1038FC00930E10027D4FF94FF542F1436D4DD14BB4
:10390C00454BBD443949314AAD4AB5493D8B120747
:10391C004D8F9305500223A0E70A3387B60283A587
:10392C00070AB3F5C5013347C7023D8B22074D8FFC
:10393C0023A0E70A3387A60283A5070A370500F1FF
:10394C007D15B3F565003347C7023D8B32074D8FAC
:10395C0023A0E70A3387860283A5070A6144B3F5DF
:10396C0015013347C7023D8B42074D8F23A0E70A51
:10397C003387060383A5070A370810FF7D18B3F5B4
:10398C0005013347C7023D8B52074D8F23A0E70A31
:10399C003387D60383A5070AB70E0010FD1EE98DE9
:1039AC003347C7023D8B62074D8F23A0E70A13975D
:1039BC0056003347C7029315C70103A7070A33778D
:1039CC00D7014D8F23A0E70A3387E6035D4F3347BA
:1039DC00C7029375F70003A7470A419B4D8F23A29B
:1039EC00E70A3387F60383A5470AD94F93F5F5F019
:1039FC003347C7023D8B12074D8F23A2E70A33874B
:103A0C00560283A5470AD542B3F5C5013347C70211
:103A1C003D8B22074D8F23A2E70A3387760283A5BD
:103A2C00470ACD43B3F565003347C7023D8B3207D8
:103A3C004D8F23A2E70A3387A60383A5470A494D76
:103A4C00B3F515013347C7023D8B42074D8F23A2B7
:103A5C00E70A69473387E60283A5470AB3F50501F0
:103A6C003347C7023D8B52074D8FE54523A2E70A2A
:103A7C003387B60283A5470AE98D3347C7023D8BCE
:103A8C0062074D8F23A2E70A338786020D44334722
:103A9C00C7029315C70103A7470A3377D7014D8F88
:103AAC0023A2E70A3387E603254F3347C7029375F2
:103ABC00F70003A7870A419B4D8F23A4E70A33879E
:103ACC00F60383A5870A9D4F93F5F5F03347C7029C
:103ADC003D8B12074D8F23A4E70A3387560283A52B
:103AEC00870A9942B3F5C5013347C7023D8B2207BC
:103AFC004D8F23A4E70A3387760383A5870AB3F592
:103B0C0065003347C7023D8B32074D8F23A4E70A6C
:103B1C003387760283A5870A9543B3F5150133479E
:103B2C00C7023D8B42074D8F23A4E70A3387A603B8
:103B3C0083A5870A294DB3F505013347C7023D8B91
:103B4C0052074D8F23A4E70A3387660383A5870AA0
:103B5C00E98D3347C7023D8B62074D8F9395460025
:103B6C00B3C5C50223A4E70A03A7870A3377D70195
:103B7C00F2054D8FB385960223A4E70A03A7C70A63
:103B8C00419BB3C5C502BD894D8F23A6E70A338778
:103B9C00260383A5C70A93F5F5F03347C7023D8B7F
:103BAC0012074D8FB3C5860223A6E70A03A7C70ADF
:103BBC003377C701BD89A2054D8F23A6E70A33874A
:103BCC00460383A5C70AB3F565003347C7023D8B8F
:103BDC0032074D8F23A6E70A3387560383A5C70AFE
:103BEC00B3F515013347C7023D8B42074D8F23A612
:103BFC00E70A3387A60383A5C70AB3F50501334744
:103C0C00C7023D8B52074D8F23A6E70A3387E60385
:103C1C0083A5C70AE98D3347C7023D8B62074D8FD9
:103C2C0093953600B3C5C50223A6E70A03A7C70AB6
:103C3C003377D701F2054D8FB385F60323A6E70A38
:103C4C0003A7070B419BB3C5C502BD894D8F23A8A4
:103C5C00E70A3387560283A5070B93F5F5F0334734
:103C6C00C7023D8B12074D8F23A8E70A33877602D4
:103C7C0083A5070BB3F5C5013347C7023D8B22075C
:103C8C004D8F23A8E70A139726003347C70283A555
:103C9C00070BB3F565003D8B32074D8FB3C536036B
:103CAC0023A8E70A03A7070B33771701BD89C205C1
:103CBC004D8F23A8E70A139716003347C70283A535
:103CCC00070BB3F505013D8B52074D8FB3C5C602EB
:103CDC0023A8E70A03A7070B698FBD89E2054D8F5F
:103CEC0023A8E70A03A7070B930580023377D701B4
:103CFC0023A8E70A03C741853307EC40B34DB7024D
:103D0C0083AC470B93FC0CFFB34B770393FDFD0087
:103D1C00B3ECBC0123AA970B83AC470BCD4D93FCA2
:103D2C00FCF093FBFB00920BB3EB7C0123AA770B0B
:103D3C00B30B870283AC470BB3FCCC01B3CBBB02F8
:103D4C0093FBFB00A20BB3EB7C01B34CA70323AAA0
:103D5C00770B83AB470BB3FB6B0093FCFC00B20CF3
:103D6C00B3EB9B0123AA770BA14BB34B770383AC2B
:103D7C00470BB3FC1C0193FBFB00C20BB3EB7C01A8
:103D8C0023AA770BB30B570283AC470BB3FC0C0184
:103D9C00B3CBBB0293FBFB00D20BB3EB7C0123AA8E
:103DAC00770BB30BF70383AC470BB3FCAC00B3CB73
:103DBC00BB0293FBFB00E20BB3EB7C01B34C770231
:103DCC0023AA770B83AB470BB3FBDB01F20CB3EBF2
:103DDC009B01B30CE70323AA770B83AB870B93FBF5
:103DEC000BFFB3CCBC02B30A570393FCFC00B3EB40
:103DFC009B0123AC770B914B83AC870B93FCFCF0B2
:103E0C00B34B7703330A470393FBFB00920BB3EBE3
:103E1C007C0123AC770B83AB870BD54CB3FBCB016D
:103E2C00B3CABA02B309370393FAFA00A20AB3EA87
:103E3C005B0123AC570B83AA870BD94BB3FA6A00EF
:103E4C00334ABA0233092703137AFA00320A33EAE7
:103E5C004A0123AC470B03AA870BE14A337A1A01B8
:103E6C00B3C9B902B304970293F9F900C209B36953
:103E7C003A0123AC370B83A9870B654AB3F90901C7
:103E8C003349B902B3C4B4021379F900520933E9C6
:103E9C00290123AC270B03A9870BE9493379A90026
:103EAC00330B6703BD88E204B36499001319470010
:103EBC0023AC970A83A4870BB3F4D4013349B9021A
:103ECC00334BBB027209B3E4240123AC970A83A4DD
:103EDC00C70BC198137BFB0033EB6401C944B304DB
:103EEC00970223AE670B03A9C70B5D4B1379F9F04F
:103EFC00B3C4B402BD889204B364990023AE970A8C
:103F0C00B304B70303A9C70BF54D3379C901B3C487
:103F1C00B402BD88A204B364990023AE970A894405
:103F2C00B344970203A9C70B33796900BD88B20467
:103F3C00B364990023AE970AB304970303A9C70B84
:103F4C00F94C33791901B3C4B402BD88C204B3640B
:103F5C00990023AE970AB304770303A9C70BFD4B53
:103F6C0033790901B3C4B402BD88D204B364990097
:103F7C0023AE970AB304670303A9C70B130B1002F4
:103F8C003379A900B3C4B402BD88E204B3649900C8
:103F9C0023AE970AB304570303A9C70B930A200255
:103FAC003379D901B3C4B402F204B364990023AEDB
:103FBC00970AB304470303A9070C130A30021379B9
:103FCC0009FFB3C4B402BD88B364990023A0970C55
:103FDC00B304370303A9070C930940021379F9F0D2
:103FEC00B3C4B402BD889204B36499006D4923A094
:103FFC00970CB304270303A9070C3379C901B3C485
:10400C00B402BD88A204B364990023A0970CF144B8
:10401C00B304970203A9070C33796900B3C4B40243
:10402C00BD88B204B364990023A0970CB304B70302
:10403C0003A9070C33791901B3C4B402BD88C204B7
:10404C00B364990023A0970CB304970303A9070C3E
:10405C0033790901B3C4B402BD88D204B3649900A6
:10406C0023A0970CB304770303A9070C3379A90099
:10407C00B3C4B402BD88E204B364990023A0970CC6
:10408C0093145700B3C4B4021399C40183A4070C4E
:10409C003306C702B3F4D401B3E4240123A0970C74
:1040AC0003A9470C137909FFB3046703B3C4B40223
:1040BC00BD88B364990023A2970CB304570303A9DA
:1040CC00470C1379F9F0B3C4B402BD889204B364FD
:1040DC00990023A2970CB304470303A9470C337927
:1040EC00C901B3C4B402BD88A204B364990023A26D
:1040FC00970CB304370303A9470C33796900B3C495
:10410C00B402BD88B204B36499001309500223A20F
:10411C00970CB304270303A9470C33791901B3C4D3
:10412C00B402BD88C204B364990023A2970C930413
:10413C006002B304970203A9470C33790901B3C495
:10414C00B4023346B602BD88D204B364990023A2EC
:10415C00970C83A4470CE98C3D8A6206458E23A2FA
:10416C00C70C03A6470C9314C7013376D601458EB2
:10417C0023A2C70C130690023306C70283A4870C34
:10418C00C1983346B6023D8A458E23A4C70C13064C
:10419C00A0023306C702B345B60203A6870C1376FA
:1041AC00F6F0BD899205D18D23A4B70C83C561852A
:1041BC0003C671853386C540B304A60303A9870CD7
:1041CC003379C901B3C4E40293E48400BD88A2042A
:1041DC00B364990023A4970CB304E60303A9870CDA
:1041EC0033796900B3C4E40293E48400BD88B2045B
:1041FC00B364990023A4970C93143600B3C4E4025F
:10420C0003A9870C3379190193E48400BD88C20497
:10421C00B364990023A4970CB304F60303A9870C89
:10422C0033790901B3C4E40293E48400BD88D20459
:10423C00B364990023A4970CB304560203A9870C0A
:10424C003379A900B3C4E40293E48400BD88E2048A
:10425C00B364990023A4970CB304760203A9870CCA
:10426C003379D901B3C4E40293E48400F204B36457
:10427C00990023A4970C93142600B3C4E40203A959
:10428C00C70C137909FF93E48400BD88B3649900CB
:10429C0023A6970CB304860203A9C70C1379F9F073
:1042AC00B3C4E40293E48400BD889204B36499001F
:1042BC0023A6970C93141600B3C4E40203A9C70CED
:1042CC003379C9013347E60293E48400BD88A20424
:1042DC00B364990023A6970C03A6C70C337666002B
:1042EC00136787003D8B3207518F23A6E70C03A77A
:1042FC00C70C3377170123A6E70C03C751850D8F25
:10430C003346D70293F5F507E2053D8A931446012F
:10431C0003A6C70C3304870233760601458E23A609
:10432C00C70C1316170083A4C70CE98C3346D602AE
:10433C003D8A6206458E23A6C70C03A6C70C3344E0
:10434C00D402B37ED60113162700B303770272048E
:10435C0033E48E0023A6870C3346D602B3025702F1
:10436C00937EF60003A6070D419A3366D60123A867
:10437C00C70C03A6070DB3C3D3021376F6F0B3C272
:10438C00D20293F3F3009203B363760023A8770C65
:10439C0003A6070D337EC601B30FF70393F2F200A9
:1043AC00A202B3625E0023A8570C03A6070D337359
:1043BC00660013163700B3CFDF02330FE70393FF0A
:1043CC00FF00B20FB36FF30123A8F70D03A3070D82
:1043DC00B37813013346D602330DA7033D8A420648
:1043EC0033E6C80023A8C70C03A6070D33780601D3
:1043FC00334FDF02B346DD02137FFF00520F336FE2
:10440C00E80123A8E70D03A7070D798DBD8AE20605
:10441C00C98E23A8D70CD84385663D9BD8C3D843F7
:10442C00799BD8C39857558F98D7D857B706008122
:10443C00FD1613670701D8D71377FC0303AC87036A
:10444C00137C0CFC336CEC0023AC8703985F758FEA
:10445C00D98D8CDF6254F250D2544259B259225A3F
:10446C00925A025BF24B624CD24C424DB24D2161DE
:10447C008280239801846FF08FC297E7FF1F938788
:10448C00A7DA98435C4393E707105CC3828097E7F5
:10449C00FF1F9387A7D983C6370003C6270083C5A0
:1044AC00170003C507008DA5411106C6EF0050117A
:1044BC0093056040EF803004B24001454101828099
:1044CC006F00101301111305D10006CEEF00D014AC
:1044DC002306A1000965700009059145EF80807BDA
:1044EC00F2400345C10005618280011106CEEF0048
:1044FC00D028A307A10009651306F10041058545E5
:10450C00EF804079F2400345F10005618280011192
:10451C0006CEEF005020A307A10009651306F10099
:10452C0045058545EF800077F2400345F1000561B4
:10453C00828001111305510006CEEF00D026230214
:10454C00A100096550006105A545EF80A074F240FB
:10455C00014505618280011106CE22CC2A84EF0030
:10456C00F0272306A1000965A306810070002180B5
:10457C0069058D4523078100EF80C071F2406244CC
:10458C00014505618280011106CE22CC2A84EF0000
:10459C00F0362306A1000965A30681007000218076
:1045AC006D058D4523078100EF80C06EF24062449B
:1045BC000145056182800111896722CC06CE938664
:1045CC00D7012A872E846393D50497E7FF1F239284
:1045DC0007C6034505000146854597E7FF1F23875E
:1045EC00A7C49307F01F17E7FF1F2312F7C4F12688
:1045FC00A307A10022851306F1008545EF80806991
:10460C00F24062440345F1000561828093873703D1
:10461C006399F50297E7FF1F239D07C0034505002B
:10462C0083451700014697E7FF1F2381A7C097E733
:10463C00FF1FA38EB7BEFD5717E7FF1F2309F7BE59
:10464C007DB7C947A307F10075B797E7FF1F83C76D
:10465C00D7B2638C07127971096722D406D626D299
:10466C009306E7012E84AA876394D50C03C6270012
:10467C000345050083C5170097E7FF1F2389C7BAB9
:10468C00854717E7FF1F2303A7BA17E7FF1FA30FE1
:10469C00B7B817E7FF1FA30CF7B88546B521A30FD2
:1046AC00A1008347F101E9E717E7FF1F231307B8C0
:1046BC0083C681801307F00F97E7FF1F83C717B7D7
:1046CC006398E60A8E07930510279387973BB3C729
:1046DC00B70297E5FF1F83D5A5B113060064814689
:1046EC0097E4FF1F938444B0B385F502138505321C
:1046FC00B335B500EFE0B0569C402EC42AC6829765
:10470C003247A245D440B307E50033B5A7002E9538
:10471C003E8619E163E4D7003386D74093868180C7
:10472C008145170500001305C5D6EFF0006189A07F
:10473C0013074703639BE5020345050083C5170078
:10474C0003C6270083C6370017E7FF1F2300A7AE59
:10475C0017E7FF1FA30CB7AC17E7FF1F2309C7AC64
:10476C0097E7FF1FA385D7AC15BFB147A30FF10087
:10477C0022851306F1018545EF80C051B2502254B9
:10478C000345F101925445618280314582800111CB
:10479C0006CE17E7FF1F034787A99307F00F631C8B
:1047AC00F7021305D10069292306A10009657000E1
:1047BC008D457D05EF80004E03C58180EFD09FE2D3
:1047CC00F240FD572384F18097E7FF1F238207A651
:1047DC000145056182800145A5212306A100A306A0
:1047EC00010023070100D9B7011106CE22CC2A847F
:1047FC00B9252306A1000965A3068100700021805C
:10480C00130505028D4523078100EF80A048F24077
:10481C006244014505618280011106CE22CC2A84B6
:10482C005D2D2306A1000965A3068100700021807F
:10483C00130515028D4523078100EF80A045F2403A
:10484C00624401450561828039711303D1021ACE8D
:10485C000343810506DE1ACC034341051ACA034300
:10486C0001051AC80343C1041AC6034381041AC4C0
:10487C00030341041AC2034301041AC0EF00700C75
:10488C002306A10209657010130565038945EF80A5
:10489C006040F2500345C10221618280011106CEB5
:1048AC00EF009027A307A10009651306F10013057B
:1048BC0075038545EF80003EF2400345F10005612C
:1048CC008280011106CEEF00302FA307A1000965ED
:1048DC001306F100130585038545EF80A03BF240DC
:1048EC000345F10005618280011106CEEF00D03640
:1048FC00A307A10009651306F1001305950385456F
:10490C00EF804039F2400345F1000561828097E762
:10491C00FF1F83D7279299E79307F01F17E7FF1F15
:10492C00231AF79097E7FF1F83D7C790A14601453D
:10493C0013F707108607C2073357D740C183598D29
:10494C0013D6574013D79740318F058BFD1613752F
:10495C00F50FD98FF1FE17E7FF1F231DF78C82800F
:10496C0097E7FF1F83D7278D81EBE17793C7F7FF7D
:10497C0017E7FF1F2311F78C97E7FF1F83D7A78B30
:10498C00B94601451168194633F707018607C20776
:10499C003357D740C183598D13D7E74093D5F700D0
:1049AC00058B2D8FFD161375F50FD98FE39EC6FC65
:1049BC0017E7FF1F2311F7888280411106C622C416
:1049CC006DC9AD472A8463E3A70C1304F5FF137478
:1049DC00F40F1385F5FF01469305F00F1375F50FD2
:1049EC00EFF0C05B97E7FF1F93870784984313642E
:1049FC0004041374F4075C57B70500FF37068000F6
:104A0C00F59B5CD797D7FF1F9387477F9C43130673
:104A1C00D632170500001305C50A9843137707F81B
:104A2C00598C3747767180C313079712B8D3D8C700
:104A3C003757550013075755B8CFD8C3F44F17D471
:104A4C00FF1F1304A47DED8ED18EF4CF98476D8F8C
:104A5C00518F98C7184097D7FF1F2383077A5C4361
:104A6C00F99B5CC3A54717D7FF1FA30DF778EFE0A1
:104A7C003FB997D7FF1FA38507781C40054713053F
:104A8C00801598C3EFF0D07E014505A0B1476305B2
:104A9C00F5029307600263E5A7001304E5FF05BF69
:104AAC00930770024945E306F4F2B24022444101F7
:104ABC0082801304500231BF1304600219BF97D7D0
:104ACC00FF1F83C7F773858B95C797D7FF1F9387F6
:104ADC002773DC4B03C71700BA9783C75700C18BEA
:104AEC0091EB97D7FF1F83D7C774850717D7FF1F85
:104AFC002311F774014697D5FF1F83C5557317D53E
:104B0C00FF1F0345A57255BD011126CA4AC84EC6E2
:104B1C0056C297D7FF1F9387A76E06CE22CC52C4DE
:104B2C005AC0AE893289B68A844B41C5AD472A84B6
:104B3C0063E8A7041304F5FF1374F40F97D7FF1F52
:104B4C0083C7076F89EF63110908268A338B990095
:104B5C0063174B07854717D7FF1F230BF76C137988
:104B6C00F9009386FAFF228523802401A380340167
:104B7C0093F6F60F4E868545EFE05F87014505A05D
:104B8C00B147630BF5029307600263E5A7001304BA
:104B9C00E5FF5DB7930770024945E301F4FAF24073
:104BAC006244D2444249B249224A924A024B0561BC
:104BBC0082801304500259B71304600241B7813B41
:104BCC002301AA00050A69B78547631CF9004E86C4
:104BDC009305000F1385240097B0FF1FE780C05387
:104BEC0095BF89476316F9004E869305A00ADDB779
:104BFC008D47631CF900268A338B9900E30C4BF527
:104C0C0085332301AA00050AD5BF91476316F90025
:104C1C004E869305F00F7DBF95476315F9004E86C0
:104C2C0081454DBF99476315F9004E86BD455DB76B
:104C3C009D474945E315F9F64E869305500559BF36
:104C4C00411122C42A84354506C6EFF0A04905C09F
:104C5C0097D7FF1F9387875D83D767002300F400E6
:104C6C0097D7FF1F83D7E75CA183A300F40097D7E6
:104C7C00FF1F2390075C97D7FF1F9387E75A9C432E
:104C8C00984B9316E70063DE0600371701141307E1
:104C9C00F78F98CB37071104F8CF09671307879F55
:104CAC0098C7B2402244014541018280AA8713076C
:104CBC00F0034945636AF70417D7FF1F2302F75027
:104CCC0017D7FF1F13078753104313E707049316D7
:104CDC009701585A01451E071D83558F58DA17D76F
:104CEC00FF1F130767541443984A1316E700635DBC
:104CFC000600984A71761306F60F93F7F703718F37
:104D0C00A207D98F9CCA82808280411122C42A8436
:104D1C00354506C6EFF0003D51CCAD4763EA87063A
:104D2C007D141374F40F97D7FF1F9387E74F9C43A1
:104D3C00B70600C1FD16984B1374F4036204758F0B
:104D4C00598C80CB17D7FF1F034787471377F7037F
:104D5C0093168700984B71761306F60F718F558F4B
:104D6C0098CBF84FB706F9FFFD1613674700F8CF3D
:104D7C00984B0145758FB7060200558F98CB9386DB
:104D8C00864F94C7B14717D7FF1FA30DF74639A815
:104D9C00B1476304F4029307600263E4870079145B
:104DAC0049B7930770024945E30FF4F6B240224429
:104DBC004101828013045002BDB713046002A5B7F1
:104DCC00011106CE2EC6EF9070080DC103472500C9
:104DDC00AA874945418B01CBB2456D472384E70037
:104DEC002387B7080145F240056182804945E5BF3C
:104DFC00011106CE22CC2EC6EF90500501CDB24546
:104E0C002A84EF80507BA30AA40A0145F240624435
:104E1C00056182804945DDBF97D7FF1F938707390E
:104E2C0003D707012300E50003D707012183A30063
:104E3C00E50083C7F7002301F500014582800111CD
:104E4C002EC606CE32C436C23AC0EF903000B24500
:104E5C00AA8705681385A5FF420541819308A8C759
:104E6C0063E9A8062246130808C849456360C806CA
:104E7C00636EB60492469308301F63E9D804024768
:104E8C006366E804138816003308C80293183700C9
:104E9C00635E180385CF03C5970013784500630242
:104EAC0008022397C70A03D607036D99A384A700AA
:104EBC00136606022398C70241462396B70AA387B6
:104ECC00C700239AD708239BE7080145F2400561E8
:104EDC0082804945E5BF01112EC606CEEF900077C2
:104EEC00B24509E54945F24005618280834795004A
:104EFC00A30AB50A13F7470075D7ED9BA304F50079
:104F0C00BD47230BF50A8357050393E727002318A6
:104F1C00F5020145C9BF97D7FF1F93876744DC4B48
:104F2C0081CB03C7670009C703C78700C94701EFD7
:104F3C0017D7FF1F0347474697D7FF1F83C7D74590
:104F4C00636AF7009D473E8582809D47F2403E850F
:104F5C00056182800111A304A10019461305A1006B
:104F6C0006CE97B0FF1FE78040172800EFA0B037A0
:104F7C008547E31CF5FC8147D1BF97D7FF1F93876B
:104F8C00273EDC4B81CB03C7670009C783C787006B
:104F9C00494589EB411106C6EFA03040B2400145AE
:104FAC00410182808280411122C426C24AC006C6B9
:104FBC002A890144A1449305F00F0545EFD03FB673
:104FCC00B30789002380A7000504E31694FEB240C2
:104FDC00224492440249014541018280011106CECE
:104FEC002EC6EF90A0666309051083468500130753
:104FFC004002AA87B2450145639AE60803C7E5005B
:10500C0083C6D5002207C206369783C6F5003697AD
:10501C0083C6C500E206369783C6E70BBDCA23A03C
:10502C00E70C03C7A50083C695002207C206369776
:10503C0083C6B500369783C68500E206369723A251
:10504C00E70C03C7650083C655002207C2063697D6
:10505C0083C67500369783C64500E206369723A4AF
:10506C00E70C03C7250083C615002207C206369736
:10507C0083C63500369783C60500E206369723A60D
:10508C00E70C1307A0022384E7000145F2400561F9
:10509C00828023A0E70E03C7A50083C695002207D4
:1050AC00C206369783C6B500369783C68500E206DE
:1050BC00369723A2E70E03C7650083C65500220767
:1050CC00C206369783C67500369783C64500E2063E
:1050DC00369723A4E70E03C7250083C615002207C5
:1050EC00C206369783C63500369783C60500E2069E
:1050FC00369723A6E70E71B7054549BF411106C681
:10510C00EF90C0540DCD8346850013074002AA874B
:10511C0009456393E6020D47238BE70A1947A38AD7
:10512C00E70A130750022384E70003C73701014540
:10513C0013671700A389E700B2404101828009453B
:10514C00E5BF17DEFF1F130EAE2103234E0139718D
:10515C0056D25ECE06DE22DC26DA4AD84ED652D4A1
:10516C005AD062CC66CA6AC86EC6830A4104834FA1
:10517C008104F28B63090300032E8304314313145F
:10518C005E00634D04008D4E494363E9FE0013FD40
:10519C00050163050D02054E638BCF03F25062547B
:1051AC00D2544259B259225A925A025BF24B624C77
:1051BC00D24C424DB24D1A852161828013FE3500CE
:1051CC004943E30DDEFD13FE8500E3190EFC468A10
:1051DC00428BBE893A8CB68DB2842E89AA8CEF8014
:1051EC00A0462A8411E983A78B01054582972A845E
:1051FC001D434DD52302950163040D0E9375F900E3
:10520C0095476395F502930710F8A303F400454303
:10521C00E3E69DF8FD474543E3F297F89167E3EF2A
:10522C00B7F7EE948580231C940011A8B5476390C2
:10523C00F50A8547A303F4008947231CF400A30453
:10524C0084019D476314FC0A8D47A309F400A30451
:10525C003403194681455285EFE0102A55E1854704
:10526C002308F402A30864031946D285130524030A
:10527C0097B0FF1FE78060E6834701042304F40026
:10528C009307F0076391FA0897D7FF1F938707F2EC
:10529C0083C7470176472300F7000305F400EFE0CE
:1052AC006F8A230AA404EFE08F83F647A307A400B8
:1052BC00370700082380A7008347810523090404CE
:1052CC000143A309F4043C44D98F3CC4C1BD8947B4
:1052DC006394F500994715BF8DD9A303040005BF4E
:1052EC00034774008547E314F7F2B9B79307FCFF43
:1052FC0033F78701854711C38947A304F40081BFA5
:10530C002308040295BF994763C55701A3075401AD
:10531C0069B7A307F40051B797D7FF1F93874704CA
:10532C00D04B011126CA06CE22CC4AC84EC6BE842A
:10533C0019CE3C4613965700635B0600B147F2400A
:10534C006244D2444249B2493E85056182803A8921
:10535C003684AE89EF80402F11E5DC48E5F39307E6
:10536C002004F1BF03477500854681473D8BE30858
:10537C00D7FC0D47C947E394E9FC7D47E36187FC03
:10538C00230B050009E83C45370700FF7D17F98F13
:10539C003CC581476DB7B7E700E094433707200061
:1053AC0023A0E718F98E0F10000023202503230BF0
:1053BC00850023A0D710F1BF97D7FF1F938747FA1B
:1053CC00D04B011126CA06CE22CC4AC84EC6BE848A
:1053DC0019CE3C4613965700635B0600B147F2406A
:1053EC006244D2444249B2493E85056182803A8981
:1053FC003684AE89EF80402511E5DC48E5F3930750
:10540C002004F1BF03477500854681473D8BE308B7
:10541C00D7FC0D47C947E394E9FC7D47E36187FC62
:10542C00A30B050009E83C45370700FE7D17F98FF3
:10543C003CC581476DB7B7E700E0944337072000C0
:10544C0023A0E718F98E0F10000023222503A30BCD
:10545C00850023A0D710F1BF411122C417D4FF1F20
:10546C00130404F0584806C626C24AC011CF3C4764
:10547C009394570063DA040031442285B2402244ED
:10548C009244024941018280937715003689B28497
:10549C0081C789E94944D5B7014465D33A85EF8082
:1054AC00E029E1BF03450600EF80001A11E55C48D6
:1054BC0013042004F1F3D1B73845B7070003F98F73
:1054CC00C5FF0347750085476318F70003570900AC
:1054DC0093070008E3E0E7FC0323C401E30C03FAA1
:1054EC00224403C50400B2409244024941010283A4
:1054FC0001114AC84EC652C406CE22CC26CAAE8969
:10550C00328A3689EF9080144DCD631E0A00854790
:10551C00238CF1840145F2406244D2444249B249A1
:10552C00224A0561828003C7818585472A846315D9
:10553C00F700238C01848949B7E700E084433707DF
:10554C00200023A0E718F98C0F100000EF906013D7
:10555C0021C98347A5002315F5003C509DEF28D0A9
:10556C0068D0930710F879192320050023164501FC
:10557C00A304F5002304350123222501834764018C
:10558C0085450145B395F500C205C181EFE0900C4E
:10559C00B7E700E023A09710B5BF7C5088C3C9B70C
:1055AC0097D7FF1F938787C09C5791C795659385A5
:1055BC00555505458297B7E700E023A097101D4588
:1055CC0099BF094589BFFD5717D7FF1FA30AF7CA13
:1055DC0017D7FF1FA304F7D897D7FF1F238207CA3B
:1055EC00854717D7FF1F2309F7C423AE01849947BA
:1055FC0017D7FF1F2310F7C68567938707C817D7E0
:10560C00FF1F231EF7C48D4717D7FF1FA307F7C231
:10561C0017D7FF1F2307F7C21946814517D5FF1F60
:10562C001305C5C117B3FF1F670003AF130505D0E2
:10563C0093170501C18351476366F70E17E7000006
:10564C00130747218A07BA979C43411106C6BA979C
:10565C002E85828797D7FF1F83C787C22300F5004B
:10566C002DA0414697D5FF1F938585BF97B0FF1F8F
:10567C00E780A0A619A8414697D5FF1F938545BF83
:10568C00F5B79387C1859C439CC10145B24041014C
:10569C008280194697D5FF1F938505C0C1BF97D748
:1056AC00FF1F83C767B95DBFEF101026F9BFEF105E
:1056BC001028E1BF97D7FF1F83C727B845B797D7E7
:1056CC00FF1F83C7A7B959BF194697D5FF1F9385ED
:1056DC00E5B669BF97D7FF1F83C717B641B797D7F2
:1056EC00FF1F83C727BB9DBF97D7FF1F9387C7B6E5
:1056FC009C43ADB797D7FF1F83D7C7B52310F500D1
:10570C0069B797D7FF1F83D787B5CDBF97D7FF1F33
:10571C0083C7B7B2A1B797D7FF1F83C787B23DBF67
:10572C000945ADB709458280411106C6EFA0E037A7
:10573C00174500001305654AEFD0AF96EF40804047
:10574C00171500001305E5F4EFD0AF95EF00F06EE0
:10575C001725000013054500EFD0AF94EF10F07C37
:10576C00176500001305A5F8EFD0AF93EF60200389
:10577C0017C5000013052598EFD0AF92EFB0F015C8
:10578C00174500001305A5ECEFD0AF91EF30B068D2
:10579C00B24041016FC0A04197D7FF1F9387C7B09C
:1057AC0017D7FF1F1307C7AF9C431843014563135B
:1057BC00F700828083D6670081E683D64700369552
:1057CC009C43F5B797D7FF1F9387479E8C4317D7FA
:1057DC00FF1F0357E79D41111386052197D7FF1F24
:1057EC0023A4C7AC938785FFBA97056597D6FF1F8F
:1057FC0023A8F6AA06C61D05930600206365E500DE
:10580C00935657008A063307D60017D5FF1F232B54
:10581C00E5A823A8E520E1162312D60023130600E1
:10582C001CC3998FE1172312F70023130700AD3720
:10583C00B24097D7FF1F2393A7944101828097D73B
:10584C00FF1F938767A697D6FF1F938666A59C4379
:10585C0090422A87B305B5406314F6003A8529A80F
:10586C00938687009C43E369D7FEE377F7FE2E858A
:10587C00E3E4D5FEE3F2F5FE8280011106CE2EC6DE
:10588C00EF40306501C9B245F24003552500056172
:10589C006FE09FC1F240494505618280A382018877
:1058AC002382018823AA018623AC018623A80186C2
:1058BC0023A6018697D7FF1F938707A11307400BD9
:1058CC002391E7001307000A2392E7002393E700D4
:1058DC007177130707B82394E7001D472395E7005A
:1058EC0041472396E70005472397E7001307F00786
:1058FC002399E700130710F8239BE7007D572390AB
:10590C00070023980700239A0700239CE700828056
:10591C00011126CAAA84214522CC06CE2E8432C679
:10592C0036C43AC2EFC0CFE01DC9A2461247324678
:10593C00930700FD2300F5009947A3009500230170
:10594C00F5002303D500A303E5002312C500AA85A7
:10595C0022856244F240D24405616FC0CFECF24024
:10596C006244D24405618280011122CC4AC806CE21
:10597C0026CA2A890144B30489006368B400F24042
:10598C006244D2444249056182802EC697A0FF1F13
:10599C00E780806F93170501C183A183B2452380F3
:1059AC00F4009307140093F7F70F850463F9B7001D
:1059BC00CA9709042380A7001374F40F6DBF3E84AB
:1059CC006DBFC16717D5FF1F0355458FFD176304C6
:1059DC00F502411117D6FF1F034606989385C18720
:1059EC0006C6EF40F02FB240FD5717D7FF1F231705
:1059FC00F78C41018280828023900500ADC28147E3
:105A0C00130E000C63FDC7043387F6000348070030
:105A1C001387170042079318080193D80801418394
:105A2C00638F08023A98634C06033388E6000348F8
:105A3C00080063060802130328FC1373F30F63704A
:105A4C006E021383F8FF239065006316A8001305FC
:105A5C00170036958280C697C207C18365B701458A
:105A6C008280814781CD19C98547631BF50083C7A7
:105A7C00550093E707FCA382F50085473E8582809D
:105A8C0009478547E31CE5FE03C755001377F70369
:105A9C00A382E500E5B7814781CD19C903C755003D
:105AAC009306000C85471377070C6303D7008947CF
:105ABC003E858280411122C4005D06C626C21DC8E7
:105ACC00AA84085009C597B0FF1FE78000D448503E
