:040000006F00C0715C
:1000040000000000000000007439000046030020D6
:10001400A9BDF9F3743900000000000000000000DD
:100024007439000074390000000000000000000072
:100034007439000000000000743900000000000062
:100044000000000074390000000000007439000052
:100054007439000074390000743900000000000095
:100064007439000000000000000000007439000032
:1000740074390000743900007439000074390000C8
:100084000000000074390000000000007439000012
:100094009307000C01116316F50493078008F3B766
:1000A400078093F787083EC00F100000B717004081
:1000B400130770052380E704130780FA2380E704FD
:1000C4000F10000003C787001367070C2384E700A1
:1000D400238007048247F3A707800F1000000561FF
:1000E4008280B717004003C7A700118B79EF83C63E
:1000F400E7041307800893F6F60F73360780137628
:10010400860832C20F10000013087005238007050B
:10011400930580FA2380B7040F10000003C6E70498
:10012400136636002387C70403C6A7001366460078
:100134002385C700238007041246732606800F1008
:10014400000003C687001376F60F73370780137712
:1001540087083AC40F100000238007052380B704E2
:100164000F10000003C787001367070C2384E70000
:1001740023800704A247F3A707800F100000A547B8
:100184000100FD1793F7F70FE5FF93078008F3B716
:10019400078093F787083EC60F100000B71700408A
:1001A400130770052380E704130780FA2380E7040C
:1001B4000F1000002384C7002387D704238007047B
:1001C400B247F3A707800F1000009377050C1307BD
:1001D4000004639CE70893078008F3B7078093F74C
:1001E40087083EC80F100000B717004013077005BA
:1001F4002380E704130780FA2380E7040F1000002C
:1002040003C7A7008546136707012385E70037273F
:100214000040A303D7808346578093E60601A302D8
:10022400D78023800704C247F3A707800F1000007C
:1002340093078008F3B7078093F787083ECE0F1023
:100244000000B7170040130770052380E704130765
:1002540080FA2380E7040F1000001375F50F238440
:10026400A70023800704F247BDB59377F5019DCF1E
:1002740093078008F3B7078093F787083ECA0F10E7
:100284000000B7170040130770052380E704130725
:1002940080FA2380E7040F100000372700408946C6
:1002A400A303D78023800704D247BDBF93078008E8
:1002B400F3B7078093F787083ECC0F100000B717F9
:1002C4000040130770052380E704130780FA238096
:1002D400E7040F100000372700409D46A303D78092
:1002E40023800704E24789B701118146014681450D
:1002F400114506CE972000E0E78040CE93078008A2
:10030400F3B7078093F787083EC60F100000B717AE
:100314000040130770052380E704130780FA238045
:10032400E7040F10000003C7670413671700238353
:10033400E70423800704B247F3A707800F100000E7
:10034400F240056182804111814601468145114593
:10035400972000E0E78080C813078008F337078000
:1003640093F787083EC40F100000B7170040130628
:1003740070052380C704930680FA2380D7040F10E6
:100384000000FD552396B70223800704A245F3A578
:1003940005800F10000073370780137787083AC66B
:1003A4000F1000002380C7042380D7040F1000001F
:1003B40003C76704136717002383E7042380070434
:1003C400B247F3A707800F10000001A0E5473305EB
:1003D400F50201007D1575FD8280411122C406C617
:1003E4002A841305803E7D14D5373344040875F8F8
:1003F400B2402244410182802E96AA870F70B678BB
:100404008280230304801547A2872303E48001002C
:1004140001002302A48003C7678062076187E34C5D
:1004240007FE2382A780228783476780E207E1874C
:10043400E3CC07FE82802303048015472303E48072
:10044400010001002302A480828083076480E3CE3C
:1004540007FE23030480828083076480E3CE07FEC3
:1004640003454480828083076480E3CE07FE230231
:10047400A4808280411126C44AC24EC006C61377A6
:10048400F50BAD47AA892E8995446306F7001945F3
:100494005D37653F8D444E85793FFD59FD14639862
:1004A4003401B240A2441249824941018280135569
:1004B40009011375F50F453F2209CDB7011126CC6B
:1004C40006CEB704080051371545B537713769377B
:1004D4002AC6A53F32459377150089EB13651500AD
:1004E4001375F50FF240E24405618280FD14E9FCC6
:1004F4000145CDBF411106C6B7170040130770056B
:100504002380E704130780FA2380E70403C7470422
:100514001305F00F1367070E2382E70491472303A3
:10052400F480C535B24041010DB7011126CC4ACA49
:100534004EC852C606CE2A89AE89B284554A5D3F5A
:1005440091E82137F24026855249E244C249324AB1
:1005540005618280CA850945313F910903A7C9FF16
:1005640091472320E48003076480E34E07FE2303BE
:100574004481FD17EDFBFD14110981C49377F90F34
:10058400E9FF2D3F55FDFD5475BF011126CC4ACA24
:100594004EC852C656C45AC206CE2A89328A8D49DA
:1005A400913FC164C16A056B9387F4FFB3F72701D8
:1005B40099E363719A02FD199180E39709FE7135FD
:1005C4000145F240E2445249C249324AA24A124B1E
:1005D400056182801305800D6388540113050002B0
:1005E4006384640113051008CA856935C13D09C5D2
:1005F4002699330A9A4075BF7D55E1B7011106CE9D
:1006040026CC4ACAB2844EC82AC62E89E53532455C
:10061400FD14FD59AA852D45B13D639A3401353544
:10062400F24026855249E244C249056182802D3553
:1006340093F7340091EB8326048003270900930782
:100644004900E39EE6FC3E89FD14C1BF011106CEBC
:100654002AC64D353245C533F2400561FDB301115B
:1006640006CE26CC4ACA4EC852C6AA8956C42E897A
:100674005135B7050400B3E5B9002D45E53B814488
:100684008D4A214AD13B6396540183270480232059
:10069400F9008504E39844FF832704801397290114
:1006A400635C07002312F900F240E2445249C24954
:1006B400324AA24A056151BB2322F900F5B7411120
:1006C40006C626C44AC24EC0AE892D3581451305DF
:1006D400B0044D33BD447D59413393F77400CE9734
:1006E40003C70700FD14398D2380A700E39624FF78
:1006F400B240A24412498249410181BB411106C65C
:10070400D53B13056006053B893313059009253352
:08071400B24041011DBB0000D1
:10071C00971100209381C185173100201301C18DE1
:10072C0013054000970500209385058D17060020C2
:10073C00130606FE63FAC5008322050023A05500AC
:10074C0011059105E3EAC5FE173500001305452296
:10075C00970500209385C5FB1386418463FAC50079
:10076C008322050023A0550011059105E3EAC5FE7F
:10077C00138541849385C19A6377B50023200500C6
:10078C001105E36DB5FE93025002739002BC8D42CD
:10079C00739042808542739012BC930280087390D0
:1007AC000230970200209382228593E232007390EC
:1007BC00523097020000938202027390123473003D
:1007CC0020302A8311C62300B3007D16050365FE75
:1007DC0082803971194506DE22DC26DA4AD84ED6DB
:1007EC0056D25AD052D45ECE62CC66CA6AC86EC695
:1007FC00712C1305600497000020E780E0881545F4
:10080C0097000020E780E0BC85450545892E37140C
:10081C0000409307840B214798C38D4521457D2CBF
:10082C000146814505452523D529834514041735F3
:10083C000000130525CD9389C18AEF10900C23A6D7
:10084C0031859387C18623A4F18483578401717702
:10085C007D17F98F231CF400EF00103917350000B9
:10086C00130585CBC164EF10F02C938A0185173BDF
:10087C000000130B6BCBFD141389C191378A004018
:10088C00854B554C938CC18E83476A00858B63993D
:10089C00071883C70A0085C31305800C23880184BD
:1008AC0097000020E780E0B2EF009072AA8501C5A6
:1008BC005A85EF101005EF10206DAA8519C5173554
:1008CC000000130525C8EF10D00313053003EF000B
:1008DC007051630E95081374F50F2285212D630753
:1008EC0004149307F4FF3147B387E702E69703CD6F
:1008FC0087009377FD00638C071493154D60FD857D
:10090C0093F5050C014613650D09892DAA85631510
:10091C000512134D0D08630E0410B1477D143304FA
:10092C00F4029387C18EA2972384A70183478A0080
:10093C0013FDF70F9DCB17350000130565C2EF10A3
:10094C00407C0144973D0000938D8DC2B387890094
:10095C0083C507006E850504EF10A07A9377F40F1A
:10096C00E3E6A7FF2945EF10A07D05456D2913058A
:10097C003002EF003047E30995F01374F50F228530
:10098C00952B630D040CB1471307F4FF3307F702E3
:10099C009387C18EBA9703CA87009377FA00638056
:1009AC00070E93154A60FD8593F5050C01461365FA
:1009BC000A096D23AA854DE9134A0A085DC0B1479F
:1009CC007D143304F4029387C18EA29723844701CC
:1009DC00B787004083C7870013FAF70F9DCF1385A5
:1009EC00C18AEF00F046173500001305E5BBEF1088
:1009FC0040710144973B0000938B8BB7B387890000
:100A0C0083C507005E850504EF10A06F9377F40F84
:100A1C00E3E647FF2945EF10A07205452921B9BD32
:100A2C0023037A01BD2EE31685E7BDB5034D89007E
:100A3C00C9B52304A901DDBD9307A002E307F5F2B4
:100A4C0017350000130545B3EF10A06B39BF1735F0
:100A5C0000001305A5B3EF10F00D01BF034A890088
:100A6C002DBF23044901ADB79307A002E307F5FAA4
:100A7C0017350000130545B4EF10A06879BF173582
:100A8C0000001305E5B4EF10F00A41BF3717004022
:100A9C008347E70412054111BD8BC98F93F7F70FFC
:100AAC0093068008F3B6068093F6860836C60F10B8
:100ABC000000930670052300D704930680FA2300E8
:100ACC00D7040F1000002307F70423000704B247D4
:100ADC00F3A707800F10000041018280914763EC5F
:100AEC00B704973700009387A7B0B3C5F52098419A
:100AFC003E97B71700409387470B028794433717ED
:100B0C000040B3F6A64094C39306070B9C42B3F780
:100B1C00A74019A8944337170040B3F6A64094C3D6
:100B2C009306070B9C42C98F9CC29307070A9843F4
:100B3C003377A74098C38280944337170040C98EFF
:100B4C00D9B798433377A74098C3B717004093871A
:100B5C00070A9843498FF9BF9843498FF5B77971C4
:100B6C0022D406D626D24AD04ECE37140040834724
:100B7C0044028347540221E593078008F3B70780AA
:100B8C0093F787083EC20F100000930770052300EF
:100B9C00F404930780FA2300F4040F1000002302DE
:100BAC000402230004049247F3A707800F100000EF
:100BBC00B250225492540259F249456182808D8977
:100BCC0093048008F3B7048093F787083EC40F1092
:100BDC0000009309700523003405130980FA2300E3
:100BEC0024050F10000089472302F402A302B4026B
:100BFC0023000404A247F3A707800F10000005454B
:100C0C0097F0FF1FE780007CF3B4048093F4840812
:100C1C0026C60F10000023003405230024050F10F6
:100C2C0000008347440293E787002302F402230069
:100C3C000404B24795BFB717004003C7870093065B
:100C4C00000C1377070C6315D70003A54184828031
:100C5C0003C78700930600041377070C6312D702AF
:100C6C0083C6870013070002FD8A81C603C787006D
:100C7C007D8B3745C323130505603345E502828020
:100C8C0083C6870013070002FD8A81C603C787004D
:100C9C007D8B3755E80113050580C5B73285814733
:100CAC0037370040A14663C3A70082800346B74094
:100CBC00E30ED6FE3386F5000346060085072304B3
:100CCC00C740D5B797060020938686AAAA87884284
:100CDC001387C19AAA9763E9E7000A87130707FCF1
:100CEC006364F7009CC282807D558280411122C4CE
:100CFC0006C62A8489372947B307E502B2408D839B
:100D0C00B3D7870222449507B3D7E70237370040A1
:100D1C00B3C707082316F740410182807165411162
:100D2C001305052006C6D937B7370040130710F84E
:100D3C002381E7400D47A381E74013070004A380FC
:100D4C00E74005472387E740B240410182803717CF
:100D5C0000408357A701B3C7070893F707FCB3C735
:100D6C000708231DF70019C98357A7018E055D8E4F
:100D7C00D18DB3C50508231DB70082808280B7874B
:100D8C00004003C707001377F70B2380E70003C766
:100D9C0067021377F7072383E7028280239E019073
:100DAC008280411122C406C6378700408347570012
:100DBC001384C19103450400858BA1C311C58347DE
:100DCC0017000145858B95E7D13FB787004083C756
:100DDC005700173500001305E58293C7270093D7FA
:100DEC0017482301F40085472300F400EF108054CA
:100DFC005545B24022444101828065DD45371735A7
:100E0C0000001305E580EF10E0525945DDB7378738
:100E1C000040834737001375F50793F70708C98F10
:100E2C00A301F700828011C199BF37870040834727
:100E3C00070093E707042300F70082804111A147C4
:100E4C00014506C622C4A388F18437840040C1370B
:100E5C008347140093F7E70FA300F4000D37834783
:100E6C0014003D4593F7970F93E72700A300F40078
:100E7C0097F0FF1FE780E055834714001305A00F80
:100E8C0093F7D70FA300F40097F0FF1FE780805370
:100E9C0085472303F400B2402244410182809386AB
:100EAC00C19183C7060081E785472380F600B78789
:100EBC00004003C757005945058B05CF03C71700E2
:100ECC00058B19EF03C75700098B133617002381C5
:100EDC00C60019C703C7170013674700A380E700B4
:100EEC003787004083471700014593E71700A3009D
:100EFC00F7008280411106C622C431C1B1477D156D
:100F0C003305F5021384C18E2A940345140001376E
:100F1C0003452400093F834724008DEF37870040A9
:100F2C00834767021305400693E707082303F7027C
:100F3C002244B240410117F3FF1F6700A3481384FA
:100F4C00C19103451400E135034524002244B2400D
:100F5C004101D1BDB240224441018280397122DC71
:100F6C0026DA4AD84ED652D456D25AD05ECE62CC5D
:100F7C0066CA6AC86EC606DEB78700402387B7020A
:100F8C0037890040AA8932842385B702935A4500D9
:100F9C008144930D6900894B054A554C938CC19142
:100FAC000D4B7D5D2304390323807D0193070032B3
:100FBC0003C70D00098B09E7FD17B3C70708EDFB45
:100FCC002304090283C70D00898BA5CF83C70D00AD
:100FDC00858B9DC323804D01E933631485012388E0
:100FEC00418583C70C00D5CB638B470B1305800C55
:100FFC0097F0FF1FE780003D83C70D00898BD9CB8D
:10100C008347790093F70704C9EF03457900B94783
:10101C003D89630AF508A947631DF50041C8FD57D2
:10102C006303F4007D143D4597F0FF1FE780803982
:10103C0095BFA547638CFA02B5476385FA026383B3
:10104C004A031305E00FF2506254D2544259B2597C
:10105C00225A925A025BF24B624CD24C424DB24D28
:10106C002161828019C913650502F1BF85679387D9
:10107C009780B3D7A700858BFDD785043D4593F4A6
:10108C00F40F97F0FF1FE780E033E39D64F1130545
:10109C00000255BF2380AD01CDB759456DB75545FD
:1010AC005DB701454DB71305E00271BF1305A002F2
:1010BC0059BF011126CA4AC8AE842A891305800C6F
:1010CC0006CE22CC4EC652C456C25AC097F0FF1F51
:1010DC00E780402F99C02380040037840040A1474B
:1010EC00096A2306F40213060A7181451305000DE3
:1010FC00B535631E0516930700FD2307F40223057F
:10110C00F40285472306F402938A818483A70A009C
:10111C00172500001305855003C4770003C767002B
:10112C002204598CA285EF00D07D63000410630E5D
:10113C00090E83A70A00172500001305254F83C548
:10114C000700EF00107C83A70A008387070063C9A0
:10115C000706138B1185B7890040130A0A71130512
:10116C00800C97F0FF1FE780E02583470B0063742A
:10117C00F4009377F40F2386F902814703C7C90261
:10118C006395E71283C5E90252864145C13B65E18F
:10119C0083C7C902B307F44033C4070881C883C7A7
:1011AC00C90203C70400BA972380F4004DF883C525
:1011BC000400172500001305A548EF009074B5A096
:1011CC00B7890040130A0A71938AC184138B118565
:1011DC001305800C97F0FF1FE780C01E83C5A90282
:1011EC005286130500099D3B59E103C7890093778B
:1011FC00F40F6376870083C7890093F7F70F1D8C74
:10120C003344040891C403C704003E972380E400D0
:10121C0001479376F70F6396D7063E9983C78900EB
:10122C00A5EFB7870040238607021305800C97F0C3
:10123C00FF1FE7802019B787004083C7C7024145CD
:10124C0099C3130500090966130606719305000C72
:10125C00313311EDB787004003C7C7021375F70F81
:10126C0019C783C7870013F5F70F91C35D45F2408B
:10127C006244D2444249B249224A924A024B056125
:10128C00828083A60A00BA9603C60600B306E9005C
:10129C0005072380C600B5BF83470B0003C7890031
:1012AC00FD17F98FBDFF0DF4ADBF03A70A008346F0
:1012BC00090005093E9785072300D70093F7F70F20
:1012CC0075BD814793858184A1463307F50003469C
:1012DC00070098413E972300C7008507E397D7FE88
:1012EC008280011122CC06CEA14713850182138482
:1012FC0011852300F400F1379305F1001385C19299
:10130C004D3B19E90347F10083C731932300F400E7
:10131C00C54763E3E7005D45F240624405618280A6
:10132C0001111385818106CE22CC26CA593F930523
:10133C00F1001385C192B53B15ED0347F1008D47C4
:10134C005D4563F9E7029384C19203C4340083C7FB
:10135C0024001385818122045D8CA30781009537BD
:10136C0083A7818423838700A38307009305F1005F
:10137C0026858133F2406244D2440561828041115A
:10138C0026C2AA841385018106C622C41D3F83A7E9
:10139C00818423819700A381070081450145113B7E
:1013AC002A8401E92685A534294597F0FF1FE7809B
:1013BC004002B24022852244924441018280411174
:1013CC0022C42A8417F5FF1F1305053B06C6D53D1D
:1013DC0083A78184238187002244B240A381070024
:1013EC00814501454101F1B1411122C406C6378442
:1013FC000040930700F82300F400A3000400A301AD
:10140C00040093078004A306F40083D7C184231C33
:10141C00F40083D78184231EF400230504022307E0
:10142C000402930790F82300F400930700042303AD
:10143C00F402FD572303F400EFF05F968D47230170
:10144C00F400B240224423880184410182807971E6
:10145C0026D24AD006D622D44ECE52CC56CA5AC820
:10146C005EC62A89AE84A9C931479387F5FFB38735
:10147C00E7021387418FBA97239007002391070047
:10148C0001448149954A0D4BC14B834739000347B1
:10149C002900A207D98F63E6F9022945EF00504ACB
:1014AC00B2502285225492540259F249624AD24ACD
:1014BC00424BB24B4561828023920192239301925D
:1014CC00C1B7330A390183471A00639D5705834717
:1014DC003A008D8B6398670583472A001397476002
:1014EC00635207049386C191BD8B3387860091C8E4
:1014FC0031471386F4FF3306E6021387C18E329709
:10150C0022972304F700A29683C5860017250000B6
:10151C001305C5130504EF00D03E1374F40F8D476B
:10152C00E3ED87F683470A00E3E9FBF6CE9793F9E0
:10153C00F70FA1BF95CD31479387F5FFB387E7022E
:10154C001387418FBA972390070023910700034814
:10155C00350083472500094E22083368F800814680
:10156C000143954E094FC14F6369030101458280C8
:10157C002392019223930192D9BFB308650083C7CC
:10158C001800639BD70383C738008D8B6396E703E2
:10159C0003C72800931247603D8BA1C11386F5FF4A
:1015AC009387C18E63D20202B14233065602B297C0
:1015BC00B6972384E700854683C70800E3E8FFFA63
:1015CC009A9713F3F70F4DB7B14233065602B29701
:1015DC00F2972384E7000D4EC5B79387C191E3D9E9
:1015EC0002FEF9B79386C19103C63600A547631076
:1015FC00F60203C70600894763FBE70083C5C600F4
:10160C0085471388C18EB148094363FDF500631EFD
:10161C00A60203C50600133535003305A04033453B
:10162C00050882801387F7FF330717034297034E91
:10163C0037006318AE00034707006374E3003E8570
:10164C008280850793F7F70FC9B741657D158280B6
:10165C00B717000201119387179206CE3EC4C167DB
:10166C00034715003EC683470500D98F0347350055
:10167C00D98F03474500D98F03475500D98F0347AE
:10168C006500D98F03477500D98F85EF83472500F7
:10169C009387D7FA9DE793858184A14630009841C2
:1016AC003E96034606003E9785072300C700E39746
:1016BC00D7FE930571001385C192E53AF24005619E
:1016CC0082800145E5BF011122CC2A8413858183D8
:1016DC0026CA4AC806CE13898184E53683270900B9
:1016EC001374F40F814423828700A382970093051F
:1016FC00F1001385C192EFF0DF9B05E113850183A7
:10170C00C936832709009305F1001385C192238202
:10171C008700A3829700EFF0DF99F2406244D24435
:10172C0042490561828001111385818206CE513EAA
:10173C009305F1001385C192EFF0BF9719E50347AC
:10174C00F100A14763E3E7005D45F240056182804B
:10175C00011106CE83A78184130730FA2380E7009A
:10176C0011472382A700A380070023810700A381D0
:10177C000700A38207002383E700A38307009305D8
:10178C00F1001385C192EFF0DF9219E50347F100E8
:10179C008D4763E3E7005D45F2400561828083A7D6
:1017AC008184130730022380E7000D472381B700A3
:1017BC002382A700A380E700A3810700A382070070
:1017CC0023830700A3830700814501456FF07F8EBB
:1017DC000111172500001305E5E706CE22CC26CA19
:1017EC004AC84EC652C456C2EF00D034EFF00FE5D3
:1017FC008144014413094006054597F0FF1FE7801B
:10180C0040BDEFF0CFE901E9850493F4F40F636E6A
:10181C0099260544D5B705041374F40FE31E24FD73
:10182C00EFF0CFD717250000130545F0EF009030EF
:10183C005944D1A0B307890083C507005285EF0036
:10184C00500C130514001374F50FE36534FF294590
:10185C00EF00100F8357890083C921814E85239295
:10186C00F4008357A900034A49002393F400013E76
:10187C002A84631E051E172500001305A5DEA38010
:10188C003401EF001008693C2A846312051E0144E0
:10189C00972900009389C9CD19A8B307890083C57E
:1018AC0007004E850504EF00D0051374F40F835721
:1018BC002900E364F4FE2945EF00900883495900A0
:1018CC00834AE90063160A10A1476390FA044E8517
:1018DC00FD342A84631D05188D472380F400A381F1
:1018EC005401172500001305E5D8EF00B024054579
:1018FC00EFF06FD30144F24022856244D244424956
:10190C00B249224A924A056182809D476396FA0247
:10191C000347F90085476310F7144E854D342A842C
:10192C00631705148D472380F400A38154011725F8
:10193C000000130525D555BF8D47639EFA1003474C
:10194C00F900854763E9E71081451385C19201369B
:10195C00AA85172500001305E5D3EF00807A4E8584
:10196C00034A0901A93C2A8463130510A93B05E528
:10197C00972A0000938ACABF93090004B307890011
:10198C0083C5070056850504EF00A077E31834FFE4
:10199C002945EF00E07A8D472380F4008547631BCF
:1019AC00FA0093073002A381F400172500001305F9
:1019BC00E5CF25BF89471304B00F631AFA0A9307C2
:1019CC003003A381F40017250000130565CF31BF48
:1019DC00A5476312FA08813B2A8451E98345290003
:1019EC00172500001305C5CEEF00A0718347290011
:1019FC0011474E85B3D7E70A2386F400EFF03F9CDE
:101A0C002A8435E58D47A38144012380F4000544E5
:101A1C001389C18EB149172A0000130A6ACC83C7F7
:101A2C00C40063F78700172500001305A5CD75BD0D
:101A3C009307F4FFB3873703A1452285CA97238008
:101A4C000700B13B09C5A2855285EF00806B0504E8
:101A5C001374F40FE9B74E85EFF07F962A8401E9F1
:101A6C008D472380F400FD57A381F40049B5A2856E
:101A7C0017250000130505CAEF00A0688947054526
:101A8C002380F400EFF02FBABDB59384C19103C548
:101A9C002400EFF04FB9172500001305A5CBEF007C
:101AAC004066EFF01F842A8479F19387018283C901
:101ABC00770003C767001389C192A209B3E9E90053
:101ACC00172A0000130ACAAA49B383A781841307F3
:101ADC0030022380E70005472381B7002382A7004B
:101AEC00A380E700A3810700A382070023830700DC
:101AFC00A3830700814501456FF0AFDB797122D4D8
:101B0C00AA852A84172500001305C5C526D206D63A
:101B1C004AD04ECE52CC56CA5AC85EC662C466C2B1
:101B2C009304E00FF92B630E040E2285EFF08FBCAB
:101B3C0017250000130505C2E923EFF08FFAAA84DC
:101B4C006311050E9309F4FFB14AB38A5903138A42
:101B5C00C19283578A001389C18E930B040193FBA6
:101B6C00FB0F5E85034B4A00CA9A2392FA008357F7
:101B7C00AA002393FA00EFF09F80AA845DE1172559
:101B8C000000130525AEA3807A01A52BEFF04FF9C9
:101B9C00AA8441E9834A5A00014C972B0000938B8D
:101BAC002B9D83572A00636CFC082945512B834BD2
:101BBC00EA00631D0B18A147639DFB08A285314405
:101BCC00338489021385C192EFF0DF96114A172BEB
:101BDC000000130BABA74A94834584007D1A5A85E9
:101BEC00137AFA0F392B0504E3180AFE2945892BC1
:101BFC005685EFF0CFFC2A8463160510B147B387E6
:101C0C00F9020D47172500001305C5A6CA972380B6
:101C1C00E7002147A381E700EF00C0710545EFF015
:101C2C008FA0B25022540259F249624AD24A424B16
:101C3C00B24B224C924C2685925445618280B3075C
:101C4C008A0183C507005E85050C6529137CFC0F92
:101C5C0089BF8D476390FB120347FA00854763EBFE
:101C6C00E710A2851385C192834B4A00EFF02FFE3B
:101C7C00AA85172500001305E5A161215685034BA4
:101C8C000A01EFF0CFF32A8435ED172C0000130C6A
:101C9C002C8E930C0004631E7403314A338A49035F
:101CAC008D4A85474A9A23005A016318FB0493070F
:101CBC003002A301FA0063798B001725000013058D
:101CCC0025AC8D2DA3015A01172500001305059E87
:101CDC00A1B72285EFF03F9F09ED814AB3075A0166
:101CEC0083C507006285850A2929E3999AFF29454E
:101CFC00812905041374F40F79BF09476306EB02BD
:101D0C001304B00FA28517250000130565ABD52E63
:101D1C00B147B389F90205458947A2844E9923003E
:101D2C00F900EFF04F90F5BD13073003A301EA0063
:101D3C0063F9870017250000130585A4E52BA30183
:101D4C005A01172500001305A597F9B5A54763138C
:101D5C00FB02B147B387F902172500001305C5A391
:101D6C00CA97A3816701F92385456285B93BAA848B
:101D7C0041D945BDA2853144338489021385C19272
:101D8C00EFF04FFB114A172C0000130C2C8C4A94CB
:101D9C00834584007D1A6285137AFA0F9D2605040B
:101DAC00E3180AFE2945692E5685EFF04FE12A8487
:101DBC0031F9B147B387F9020D47CA972380E70081
:101DCC0063130B005E8BB147B387F902CA97A381EB
:101DDC006701A9B5797122D426D24AD04ECE52CC05
:101DEC0056CA5AC806D65EC662C40544938AC191C7
:101DFC009384C192B1491389C18E172B0000130B28
:101E0C00ABA2414A83C7CA00014563FE8700B250AA
:101E1C00225492540259F249624AD24A424BB24B72
:101E2C00224C45618280EFF0EF8C2285EFF05F92BF
:101E3C0079FD03C7040083C72400058B29E3638B5A
:101E4C004705898B63860710C5452285BD39172543
:101E5C0000001305259FF92991452285EFF03F9449
:101E6C005DF5054597E0FF1FE780A0562285EFF052
:101E7C003F8E51FD83C70400C18BE5F701A813F712
:101E8C00170009EB63884701898BDDFF0504137488
:101E9C00F40F8DBF930BF4FF338C3B0385472285E6
:101EAC004A9C2310FC00EFF0BF8A35F183C7140065
:101EBC00A2851725000013056592898B13B71700AF
:101ECC002301EC0089C7172500001305A593152CD9
:101EDC001305800C97E0FF1FE780A04F91452285EA
:101EEC00EFF0FF8B0DF55A85B121054597E0FF1FEB
:101EFC00E780204E2285EFF0BF85E31A05F083C7FB
:101F0C000400C18BFDF31305400697E0FF1FE7802B
:101F1C00404CD1452285553EC14522857D36E3187E
:101F2C0005EE2285EFF0DF82E31305EE83C7040094
:101F3C00858B99E7B147B38BFB02CA9B23800B00BF
:101F4C0022856D3EE31505EC0545EFE0DFED3DBF69
:101F5C00930BF4FFB3873B03CA9783C7070099C75A
:101F6C00A285172500001305658F612AB38B3B03EF
:101F7C0083C72400858BCA9B23800B00E38807F062
:101F8C00C1452285993619B79387C19183C607003D
:101F9C000947637BD70203C73700A5476316F702CF
:101FAC004111014506C6EFE0FFF42D35AA8511C598
:101FBC001715000013050559A9220545EFE0BFE6EA
:101FCC00B2400145410182800145828001112A877E
:101FDC0006CE2E8526CCB2854ACA368622C6372432
:101FEC000040B7E700E0FD5603A90700C44323A057
:101FFC00D71823A2D7189307F7FF93F7F70F894643
:10200C0063E0F60AB717004083C75704B70604000D
:10201C0093F7070299E3B7C60300F9576375D50424
:10202C003308C50063E1060589476314F704098288
:10203C0097E0FF1FE780E04EAA8737170040930612
:10204C0070052300D704930680FA2300D704834637
:10205C004704C18A2302D70437E700E02320271165
:10206C00232297103244F240E24452493E850561E6
:10207C0082808547631FF7008567FD173E96E98FC1
:10208C003E96FD777D8E7D8D97E0FF1FE780604F3C
:10209C0065B797E0FF1FE780E0559307150071BF08
:1020AC00B547631AF7001305900B97E0FF1FE78005
:1020BC006059814759B7B1476315F7001305B00A4A
:1020CC00EDB799476317F70097E0FF1FE780A0581B
:1020DC00CDB79D47631BF70023A0050023A2050085
:1020EC0097E0FF1FE780205DE9B791476317F70082
:1020FC0097E0FF1FE78000606DBF81471DDFF15740
:10210C002DBF5D7122D406D62A842EDA32DC36DE5F
:10211C00BAC0BEC2C2C4C6C617E5FF1F032585657B
:10212C0011C51C4D81E72AC6A52532450C4554180E
:10213C00228636CEEF009033B250225461618280F9
:10214C00AA8517E5FF1F0325E56211CD1C4D81EF14
:10215C00011106CE2EC62AC4252D2245B245F240C9
:10216C001045056119A01045F5BF411122C426C2C6
:10217C004AC006C62A89AE84328401C51C4D91E33F
:10218C00012D97170000938727736316F406032419
:10219C0049007C50858B89EB8357C40093F707204B
:1021AC0081E7284CEF0060761C44FD171CC463DAF1
:1021BC000700184C63C3E70693F7F40F2947638EA7
:1021CC00E7041C401387170018C02380970093F472
:1021DC00F40F7C50858B89EB8357C40093F7072051
:1021EC0081E7284CEF008072B240224402492685D8
:1021FC00924441018280971700009387E769631529
:10220C00F4000324890071B7971700009387C76601
:10221C00E311F4F80324C900ADBFA68522864A85D4
:10222C000522AA847DB7011126CA06CE22CC4AC843
:10223C004EC652C4AA8419E11C4502901C4D2E892D
:10224C00A5E7B9239C4C8044B5C39717000093872E
:10225C00A7666310F406C0407C50858B81EB8357D6
:10226C00C40093F7072099E3284C45258357C400F5
:10227C00A18B99C31C48C5E7A2852685512245C16F
:10228C00FD547C50858B81EB8357C40093F707205A
:10229C0099E3284CA52DF24062444249B249224AA6
:1022AC002685D24405618280004545B72685CD211F
:1022BC0069BF971700009387275E6314F40080446E
:1022CC0061BF971700009387275BE317F4F8C044AE
:1022DC0061B71CC4050963C907021C4013871700AA
:1022EC0018C02380B7001C4483450900FD17F5F185
:1022FC001CC463D907022286A94526859120FD5767
:10230C00E300F5F8A944B5BF184C63C4E700E396A5
:10231C0045FD228626852D20E31735FD95B7FD5901
:10232C00294AD1B71C401387170018C029472380AE
:10233C00E700C9BFAA8517E5FF1F0325A543E5B52F
:10234C00011122CC26CA4AC806CE4EC6AA842E89B2
:10235C00328401C51C4D91E3252997170000938702
:10236C00A7556318F402C0401C4C1CC48357C4000E
:10237C00A18B99C31C4895EFA2852685512015C9C0
:10238C007D59F2406244D244B2494A8542490561C2
:10239C00828097170000938727506314F4008044C1
:1023AC00E1B7971700009387274DE31FF4FAC04459
:1023BC0065BF1C4808409379F90F1379F90F1D8DEF
:1023CC005C486346F500A2852685B52455F91C4466
:1023DC000505FD171CC41C401387170018C023806B
:1023EC0037015C486389A7008357C400858BD1DB18
:1023FC00A947E318F9F8A2852685352C59D149B798
:10240C00411122C426C24AC006C697E4FF1F83A40A
:10241C0064362A892E8489C49C4C99E326858D2E9A
:10242C0097170000938747496314F402C040831741
:10243C00C40013F787002DEB13F7070115EB2547A5
:10244C002320E90093E707042316F4007D5559A8CF
:10245C0097170000938747446314F4008044C1BF6E
:10246C009717000093874741E313F4FCC044C1B7AE
:10247C00918B8DC74C5889C9930744046384F5002C
:10248C004A856923232A04028357C40023220400AB
:10249C0093F7B7FD2316F4001C481CC08357C400E7
:1024AC0093E787002316F4001C4881EF8357C40080
:1024BC001307002093F707286385E700A2854A8558
:1024CC006D218317C40013F717001DC3584823242C
:1024DC0004003307E04018CC1848014501E713F716
:1024EC0007082DF3B24022449244024941018280F4
:1024FC0013F72700814611E3544814C4F1BF8397A6
:10250C00C500011122CC26CA06CE4AC84EC613F706
:10251C008700AA842E8469E7D8416345E000B8415E
:10252C006358E008585449C703A9040023A00400C9
:10253C000C5093D7C748B9CB70488357C400918BC4
:10254C0099C75C401D8E5C5899C33C401D8E5C54F1
:10255C000C50814626858297FD57630DF5041C4867
:10256C000567232204001CC08357C400F98F91C354
:10257C0068C84C5823A0240185CD93074404638478
:10258C00F50026856121232A04021DA001468546FB
:10259C0026850297FD572A86E311F5FA9C40D1DF78
:1025AC0075476385E70059476395E70623A0240127
:1025BC000145BDA098408317C40001CFF5466305C3
:1025CC00D700D9466319D7041C48232204001CC029
:1025DC004DB718482322040093D7C74818C041BFF1
:1025EC0083A90501E38609FC03A905008D8B23A0B3
:1025FC00350133093941014791E3D84918C4E359EE
:10260C0020FB1C540C50CA864E862685829763404C
:10261C00A0028317C40093E707042316F4007D552A
:10262C00F2406244D2444249B24905618280AA997F
:10263C003309A940E9B79C49411106C622C426C2F8
:10264C0081EB8144B2402244268592444101828030
:10265C00AA842E8401C51C4D91E31D2A97170000F6
:10266C0093878725631DF402C0408317C400F1DBF8
:10267C007850058B11E793F7072099E3284C7124C8
:10268C002685A285AD3D7C50AA84858BC5FF8357DA
:10269C00C40093F70720DDF7284C8D2C65B79717EE
:1026AC0000009387671F6314F40080447DBF971765
:1026BC0000009387671CE31AF4FAC0447DB74111FC
:1026CC0022C406C62A842316B5002317C50023206E
:1026DC0005002322050023240500232205062328B8
:1026EC000500232A0500232C0500214681451305EE
:1026FC00C505EFE00F8D971700009387E7865CD038
:10270C0097170000938727891CD49717000093878D
:10271C00478D5CD4971700009387E78FB24000D0A9
:10272C001CD8224441018280970500009385E5F076
:10273C00BDA2411126C2930780069384F5FFB38492
:10274C00F4024AC02E8922C406C693854407452E3E
:10275C002A8401CD2320050023222501310508C43C
:10276C00138684068145EFE0CF85B2402285224452
:10277C0092440249410182801385818579A2138597
:10278C00818569A21385C18549A21385C185BDAA1E
:10279C00411122C406C62A84F5371C4C89C7224431
:1027AC00B2404101DDB797070000938727F81CD48E
:1027BC0023240404232604042328040483A701846B
:1027CC006394870085471CCC22853D2048C0228518
:1027DC00252008C422850D2048C448400146914557
:1027EC00F93D08440546A545D93D48440946C94527
:1027FC00F93585471CCC65B7411126C24AC006C6BF
:10280C0022C42A89953F83A401849C4C99E3268594
:10281C004137938484048044DC40FD1763D6070061
:10282C009C40BDC38440C5BF0317C40039EBC177BE
:10283C0085075CC41305840523220406F120813727
:10284C0021462320040023240400232204002328EF
:10285C000400232A0400232C040081451305C4051D
:10286C00EFD03FF6232A0402232C04022324040471
:10287C0023260404B2402285224492440249410199
:10288C0082801304840651BF91454A855D3588C00A
:10289C002A8449F9ED35B1472320F900E1BF79715C
:1028AC0022D44AD04ECE52CC5AC85EC606D626D2B8
:1028BC0056CA2A892E8A130485048149054BFD5B6F
:1028CC000444832A4400FD1A63D00A0200406DF8C8
:1028DC00B250225492540259624AD24A424BB24BE1
:1028EC004E85F2494561828083D7C400637BFB002F
:1028FC008397E40063877701A6854A85029AB3E93A
:10290C00A90093848406C1B7828082808280597129
:10291C00A2D42E848395E500A6D2CAD086D6B284E2
:10292C00368963D305028357C40093F7070895EBE8
:10293C0013070040B65026542320F90098C00659BE
:10294C0096540145656182803000EF000072E34CC3
:10295C0005FC3247BD67F98F7977BA9793B71700A3
:10296C00C1BF814713070004F1B783D7C500797144
:10297C0022D406D626D24AD04ECE898B2E8491CF25
:10298C00930774041CC01CC885475CC8B250225401
:10299C0092540259F2494561828074003000AA8435
:1029AC00BD37A2492A892685CE85912A01ED831748
:1029BC00C40013F7072079FBF19B93E7270023163C
:1029CC00F4007DBF97070000938747D69CD48357AC
:1029DC00C40008C008C893E707082316F400B247E0
:1029EC00232A340189CF8315E40026855D2501C98E
:1029FC008357C400F19B93E717002316F400835709
:102A0C00C40033E527012316A40049B7D1CD83A711
:102A1C00C5FF011122CC06CE1384C5FF63D307007A
:102A2C003E942AC6E12D138741861C43324581EB27
:102A3C002322040000C36244F2400561E1A5637DDA
:102A4C00F4001040B306C4006396D7009443DC43F3
:102A5C00B29614C05CC0F9BF3E87DC4399C3E37DDA
:102A6C00F4FE14433306D700631F86001040B29661
:102A7C0014C33306D700E390C7FC9043DC43B296F3
:102A8C0014C35CC34DBF6375C400B1471CC165B7AB
:102A9C001040B306C4006396D7009443DC43B2964F
:102AAC0014C05CC040C341BF828041114AC013892D
:102ABC0001868327090022C426C206C6AA842E8456
:102ACC0089E78145A5292320A900A2852685BD215A
:102ADC007D59631A25017D54B240228522449244CB
:102AEC00024941018280130435007198E30685FE8A
:102AFC00B305A44026859921E31025FFE9BF0111F8
:102B0C0026CA93843500F1984AC8A104B14706CE71
:102B1C0022CC4EC62A89B3F4F40A63C4040063FDC4
:102B2C00B400B1472320F9000145F2406244D2447D
:102B3C004249B24905618280D1239389418683A79A
:102B4C0009003E8431E4A6854A858537FD572A84E1
:102B5C006316F50A03A40900A287C1EB83290400BC
:102B6C0081454A85A299D92E6394A9081C408D04ED
:102B7C004A859D8CF198B147A104B3F4F40AA6855B
:102B8C002D37FD576306F5061C40A6971CC015A0F3
:102B9C001440858E63C806042D47637DD70204C09C
:102BAC00330794006396870223A0E9005C4014C3AA
:102BBC005CC34A85812B1305B400930744006199CB
:102BCC003307F540E303F5F63A94898F1CC0B1BF87
:102BDC00D8C3E9BF58406395870023A0E900D1BF53
:102BEC00D8C3C1BFA2874040B1BF3E84DC43B5B758
:102BFC00B1472320F9004A8531233DB704C155BFA5
:102C0C001C46FD171CC663DA0700184E63C5E700A7
:102C1C00A9476394F5006FF0AFF21C422E85138721
:102C2C00170018C22380B7008280011122CC26CA5B
:102C3C004AC84EC652C406CE2A89AE893284B30421
:102C4C00D6007D5A63149400014509A883450400FD
:102C5C004E864A8575370504E31645FFF2406244FB
:102C6C00D2444249B249224A05618280357122CD53
:102C7C0026CB4AC94EC706CF52C556C35AC1DEDE53
:102C8C00E2DCAA892E843289B68409C51C4D99E3ED
:102C9C00EFF01FB097170000938707C2631AF40474
:102CAC0003A449007C50858B89EB8357C40093F7B0
:102CBC00072081E7284CEFF05FC58357C400A18B38
:102CCC0099C31C48ADE3A2854E85EFF06FF321CD7F
:102CDC007C50858BA1C37D55FA406A44DA444A493D
:102CEC00BA492A4A9A4A0A4BF65B665C0D618280A5
:102CFC0097170000938747BA6315F40003A4890063
:102D0C0055B797170000938727B7E31DF4F803A472
:102D1C00C90049BF8357C40093F70720CDFF284C47
:102D2C00EFF0DFBE4DBF93070002A304F10293073F
:102D3C00000302D22305F10226C6930B5002971A08
:102D4C000000938A6AB9294BCA8483C7040099C3CB
:102D5C00639B7709338C2441638D2401E2864A8678
:102D6C00A2854E85D935FD57630DF5189257E2971C
:102D7C003ED283C7040063860718FD5713891400DD
:102D8C0002C802CE3ECA02CCA309010482D48345F8
:102D9C00090015465685B126C2479304190031E542
:102DAC0013F7070109C713070002A309E10413F77E
:102DBC00870009C71307B002A309E1048346090081
:102DCC001307A002638AE602F247CA8481462546AD
:102DDC0003C7040093851400130707FD6374E6060C
:102DEC0085C63ECE15A085048DB733055541B397E6
:102DFC00A72826893EC861BF32479306470018436F
:102E0C0036C6634A07023ACE03C704009307E002B2
:102E1C00631EF70403C714009307A002631AF7029A
:102E2C00B2478904138747009C433AC67D57B3E7E2
:102E3C00E70A3ECA25A83307E04093E727003ACEBD
:102E4C003EC8D9B7B3876703AE848546BA9749B7EE
:102E5C00850402CA81468147254603C70400938531
:102E6C001400130707FD6374E606E1F683C504003E
:102E7C000D46171500001305A5A6A52411CD97170F
:102E8C0000009387E7A51D8DC24713070004331775
:102E9C00A700D98F85043EC883C5040019461715B1
:102EAC000000130525A4138914002304B102152C6A
:102EBC0025CD9307000095E74247B24713770710DB
:102ECC0009CF91073EC69257D2973ED2B5BDB38774
:102EDC006703AE848546BA9749B79D07E19BA10766
:102EEC00D5B7780097060000938666D422860C0826
:102EFC004E8597000000E7000000FD572A8AE31476
:102F0C00F5FC7C50858B89EB8357C40093F7072025
:102F1C0081E7284CEFF09F9F8357C40093F7070479
:102F2C00E39B07DA12554DBB780097060000938699
:102F3C0006D022860C084E85F92CC1B7411122C44B
:102F4C002A842E8523A4018606C6EFD0BFD7FD5751
:102F5C006316F50083A7818691C31CC0B24022443E
:102F6C0041018280411122C42E848395E50006C65E
:102F7C002D23634905007C48AA977CC8B2402244A3
:102F8C00410182808357C4009397C7482316F400ED
:102F9C00F5B783D7C500011122CC26CA4AC84EC644
:102FAC0006CE93F70710AA842E843289B68991C76E
:102FBC008395E5008946014601228357C400831599
:102FCC00E400F2409397C7482316F4006244CE867F
:102FDC004A86B24942492685D244056135A8411139
:102FEC0022C42E848395E50006C6F9207D578357AD
:102FFC00C400631AE5009397C7482316F400B24047
:10300C002244410182809397C72868C82316F40094
:10301C00FDB78395E5003DA0411122C42A842E857D
:10302C00B285368623A4018606C6EFD03FC7FD576E
:10303C006316F50083A7818691C31CC0B24022445D
:10304C0041018280411122C42A842E8523A4018649
:10305C0006C68D29FD576316F50083A7818691C39B
:10306C001CC0B240224441018280411122C42A84F6
:10307C002E85B28523A4018606C69929FD576316B1
:10308C00F50083A7818691C31CC0B2402244410144
:10309C008280411122C42A842E8523A4018606C66F
:1030AC003529FD576316F50083A7818691C31CC093
:1030BC00B240224441018280411122C42A842E85CF
:1030CC00B285368623A4018606C63929FD576316B8
:1030DC00F50083A7818691C31CC0B24022444101F4
:1030EC00828093F5F50F2A966314C5000145828002
:1030FC0083470500E38DB7FE0505FDB713854185B4
:10310C006FF0BF80138541856FF05F80797156CA6F
:10311C009C49BA8A984522D44AD04ECE52CC06D677
:10312C0026D25AC85EC6B3E7E70A1CC203C73504E9
:10313C00AA892E843289368A19C385071CC21C4081
:10314C0093F7070291C78327090089072320F90009
:10315C000440998891E8130B9401FD5B5C440327B0
:10316C000900998F63CCF40483473404B336F00020
:10317C001C4093F70702A5EB13063404D2854E8549
:10318C00829AFD576303F5041C4011478144998BC7
:10319C006399E7008327090044449D8C8147B3E47D
:1031AC00F40A1C4418486354F700998FBE940149E3
:1031BC0069047D5B63982405014509A885465A86F8
:1031CC00D2854E85829A631E75017D55B25022546C
:1031DC0092540259F249624AD24A424BB24B45616F
:1031EC0082808504A5BF3307D40013060003A30116
:1031FC00C7040347540493871600A2978906A3813A
:10320C00E7049DBF85462286D2854E85829AE30EC1
:10321C0065FB050945B7797122D44AD04ECE52CC04
:10322C0006D626D256CA5AC803C88501930780070A
:10323C002A892E84B289368A63E207039307200613
:10324C009386350463E107036300081E930780052A
:10325C001706000013068669630AF8149304240405
:10326C002301040515A89307D8F993F7F70F5546D2
:10327C00E366F6FE170600001306C669B3C7C7203F
:10328C009C43B29782871C43938425049386470002
:10329C009C4314C32381F504854755AA90411C43D4
:1032AC00137506089385470039C19C430CC35840DD
:1032BC0063D207149305D002A301B40418C463505D
:1032CC000704B307F04017060000130626622948CE
:1032DC00B68433F70703FD143297034707002380A6
:1032EC00E4003E87B3D70703E37507FF8DA09C432B
:1032FC00137506040CC345DD939757604DBF6D9A4B
:10330C0010C0C1B790411C43137506089385470044
:10331C0001C50CC39C4339A0137606040CC37DDA9B
:10332C0083D707001307F006170600001306065C88
:10333C006310E80C2148A3010404584018C4E34965
:10334C0007F80C40ED990CC0C1F7B68451F3A147B6
:10335C00631EF8001C40858B91CB58401C4863C7FA
:10336C00E70093070003A38FF4FEFD14858E14C8A9
:10337C005287CE867000A2854A85493BFD5A631C54
:10338C00550D7D55B250225492540259F249624A5D
:10339C00D24A424B456182809C4193E707029CC113
:1033AC00130880071706000013068655A3020405B0
:1033BC000C401C4313F805081385470063050800EF
:1033CC0008C39C4301A813F8050408C3E30B08FECB
:1033DC0083D7070013F7150001C793E505020CC04E
:1033EC0099C3414889BF18401377F7FD18C0D5BF62
:1033FC00294891B7170600001306464F294835BFD8
:10340C0090411C43CC49137806081385470063068A
:10341C00080008C39C438CC301A808C31376060498
:10342C009C4375DA2390B70023280400B68489B72F
:10343C001C43D04181459386470014C384432685A1
:10344C00EFF03FCA01C5B30795405CC05C401CC897
:10345C00A301040431BF14482686CE854A85029AFE
:10346C00E30155F31C40898B85E74844B24733652B
:10347C00F50A09BF85465686CE854A85029AE3022F
:10348C0065F185045C443247998FE3C5F4FEF1BFC6
:10349C008144930A94017D5BF5B7411122C42A84BF
:1034AC002E85B285368623A4018606C6A120FD573B
:1034BC006316F50083A7818691C31CC0B2402244D9
:1034CC00410182809307800523A4F1867D5582807B
:1034DC009307800523A4F1867D5582809307800590
:1034EC0023A4F186014582809307800523A4F186ED
:1034FC007D5582809307800523A4F1867D558280BB
:10350C00537461727420404368697049443D25309E
:10351C0032580A00576169742044657669636520E6
:10352C00496E0000456E756D416C6C526F6F744442
:10353C00657620657272203D20253032580A0000D5
:10354C00456E756D416C6C487562506F7274206578
:10355C007272203D20253032580A00004D6F757371
:10356C006520646174613A200000000078253032D7
:10357C00582000004D6F757365206572726F722054
:10358C00253032780A0000004D6F757365206E6F20
:10359C0020696E7465727275707420656E64706FDC
:1035AC00696E74006B6579626F617264206461741A
:1035BC00613A20006B6579626F617264206572728A
:1035CC006F7220253032780A000000006B6579623A
:1035DC006F617264206E6F20696E746572727570A3
:1035EC007420656E64706F696E74000010D5FFFFF7
:1035FC0028D5FFFF4CD5FFFF56D5FFFF6CD5FFFF3D
:10360C005553422064657620696E00005553422064
:10361C00646576206F757400774C656E6774683AD4
:10362C002025780A0000000062526571756573747C
:10363C00547970653A2025780A00000053656E6451
:10364C003A2025640A000000253032782000000062
:10365C00526573657420686F737420706F72740098
:10366C0047657443666744657363723A20000000D3
:10367C005553422D4469736B205265616479000087
:10368C005553422D5072696E7420526561647900F5
:10369C00416E616C797A65486964496E74456E64F3
:1036AC007020253032780A005553422D4B657962D3
:1036BC006F61726420526561647900005553422D2C
:1036CC004D6F757365205265616479004D6178208A
:1036DC00506F72743A253032582000004578742DA2
:1036EC0048554220506F72745F2531642320706FEF
:1036FC00776572206F6E206572726F720A0000001F
:10370C005553422D485542205265616479000000A2
:10371C00496E6974526F6F744465762045727220DD
:10372C003D20253032580A0044697361626C652073
:10373C00686F737420706F72742062656361757347
:10374C0065206F6620646973636F6E6E65637400C9
:10375C0047657444657644657363723A20000000D3
:10376C00496E6974206465762040457874487562AA
:10377C002D706F72745F2531642000005553425FC9
:10378C004445565F434C4153535F4849442052656E
:10379C0061647900546869732070726F6772616D2F
:1037AC0020646F6E277420737570706F7274204C68
:1037BC006576656C2032204855420000496E69746C
:1037CC004465764F6E48756220457272203D202507
:1037DC003032580A00000000466F756E6420667522
:1037EC006C6C207370656564206465766963652014
:1037FC006F6E20706F7274202531640A0000000017
:10380C00466F756E64206C6F7720737065656420ED
:10381C00646576696365206F6E20706F7274202505
:10382C0031640A00526573657420706F7274206184
:10383C006E64207468656E207761697420696E000F
:10384C00446576696365206F6E20706F72742065B5
:10385C0072726F7200000000446576696365206FB8
:10386C006E20706F7274202531642072656D6F76D6
:10387C0065640A0000000000000000000000000069
:10388C00000000000000000000000000000000002C
:10389C00000000000000000000000000000000001C
:1038AC00000000000000000000000000000000000C
:1038BC0000000000000000000000000000000000FC
:1038CC0000000000000000000000000000000000EC
:1038DC0000000000232D302B20000000686C4C00F1
:1038EC00656667454647000030313233343536372C
:1038FC0038394142434445460000000030313233F0
:10390C00343536373839616263646566000000000F
:10391C0076F9FFFF8CF9FFFF4CF9FFFF4CF9FFFF25
:10392C004CF9FFFF4CF9FFFF8CF9FFFF4CF9FFFF3F
:10393C004CF9FFFF4CF9FFFF4CF9FFFFF0FAFFFFCA
:10394C00F4F9FFFF88FAFFFF4CF9FFFF4CF9FFFF7A
:10395C0020FBFFFF4CF9FFFFF4F9FFFF4CF9FFFFD1
:08396C004CF9FFFF90FAFFFF88
:0239740001A0B0
:1039780000000000C0380000A038000080380000B7
:10398800000000000000000000000000000000002F
:10399800000000000000000000000000000000001F
:1039A800000000000000000000000000000000000F
:1039B80000000000000000000000000000000000FF
:1039C80000000000000000000000000000000000EF
:1039D800240900201807002000090000000000004A
:1039E800000502000000000080060002000004003C
:1039F8008006000100001200A0060029000009004E
:103A08008106002200004100210A00000000000099
:043A1800180700206B
:00000001FF
