:040000006F10000F6E
:100004000000000000000000A43400007C0C00206C
:10001400A9BDF9F3A43400000000000000000000B2
:10002400A4340000A434000000000000000000001C
:10003400A434000000000000A4340000000000000C
:1000440000000000A434000000000000A4340000FC
:10005400A20D00209A0D0020A4340000000000002E
:10006400AA0D00200000000000000000A4340000DD
:10007400000D0020A4340000A4340000A4340000C7
:1000840000000000A434000000000000A4340000BC
:10009400411122C406C6937725002A8495C7938705
:1000A40081829C433707020023A2070698C7817701
:1000B400FD17138781813374F5005C43C18B89C7B5
:1000C4001C43814541458297937714009DCF9387C4
:1000D40081829C433707020023A2070698C7F526AE
:1000E40093878181D84319E9058B15CF03A30700B2
:1000F400814505452244B24041010283218B05C755
:1001040003A3070081452145F5B79317E40063DC99
:100114000700138781815C43918B91C703230700F8
:1001240081451145C1BFB240224441018280372735
:10013400230093874182130707869C438589637A4A
:10014400A70E138741831443B70810FEFD18D85631
:1001540013672700D8D64167130707A03356E50273
:100164003377E5027D8A13184601F042337616018F
:1001740033660601F0C21306A00F3708FCFF2A07F6
:100184003357C702F042337606013A073983518F59
:10019400F8C237B724001307F7E96364A70298434A
:1001A400137707F81367570298C399C998431377CD
:1001B400F703936607049843137707F8558F98C39A
:1001C4008280370725009306F74863E3A602376762
:1001D400DBFF130707932A971305007D3357A70204
:1001E4007D1794431377F70793F606F8558F6DBF81
:1001F400130707496318E5009843137707F8136753
:1002040067025DB737D725001307F777636DA7003B
:100214003767DBFF130707932A971305007D3357CE
:10022400A70279177DBF9843137707F813677702FE
:10023400A5BF98431375F507137707F8598D88C33D
:10024400ADB7630805125C49411122C406C626C233
:100254004AC02A84094563850710938481829C409F
:1002640011472393E70098430D8B09C798431367FD
:10027400870098C313894182832609003707FDFF4D
:100284001306F7FF8C4233F7C50098C29842718F6A
:1002940037060200518F98C21387418314433706EF
:1002A4003300484498460C48518F98C637070F00CE
:1002B4001307871DB8CBB72723009387078663F9F5
:1002C400A70093F7050341476392E70A13050583E3
:1002D400B93D08489377450085C383260900034741
:1002E40084019C4293F70704D98F984293F7F70748
:1002F400137707F8D98F9CC2184083270900370663
:1003040000FF37090200B8D303474400F8D3184468
:10031400B8CF584C93168700F84FA182718F558F30
:10032400F8CF9C4058480146F8DF23A2070623A4CF
:10033400270183459401992394400357A4018547D9
:100344009CC2014511CFD0468177FD17F18FDCC6E1
:100354000F1000009C40060723A42701F8D3D0C740
:10036400B24022449244024941018280130585C16E
:1003740085B70545828001114AC813898182032605
:10038400090022CC26CA06CE4EC61C429384418262
:100394002A8493E787001CC20347B5019C40136776
:1003A400070493169701D85B1E071D83558FD8DB6E
:1003B4000347A5012313E600D85B719B136717005D
:1003C400D8DB8C433707FDFF9306F7FF33F7D500DF
:1003D40098C39843758FB7060200558F98C39387C7
:1003E40041839843B70633000C491C474845D58FD1
:1003F4001CC7B7070F009387872D3CCA0D3B1C48C9
:10040400918B99CF9440034784019C4293F707044E
:10041400D98F984293F7F707137707F8D98F9CC2BF
:100424009C401840544CB7090001D8C70347440006
:10043400370600FF228598CB1844D8C31387F9FFE9
:10044400F98E9847718F558F98C7832709005848AC
:10045400B8DF552C9C40014598433367370198C356
:10046400D85B719BD8DB83270900F24062440947BB
:1004740098C3D2444249B2490561828093878182FC
:100484009C439847D447F98E99CA9386C18203A3A3
:10049400060098C763050300C847798D02838280EC
:1004A4009387418298433C439983858B91CF9307EB
:1004B40000063CC3938781829C433707020098C798
:1004C400138701821843F8D38280938741829C4327
:1004D400A8431581058982809387418298431365D7
:1004E400050466055C5B9E079D83C98F5CDB828087
:1004F4009387418337272300944313070786938701
:1005040041829C436376A70E37B724001307F7E9AB
:100514006365A7069843137707F81367570298C3D0
:1005240093F7150081CB93F50503C147639FF50A43
:1005340013050583DC56B70510FEFD1593E7270068
:10054400DCD6C167938707A03357F5023375F502EC
:100554009307A00F7D8B13164701F8426D8F518FBF
:10056400F8C23707FCFF2A053355F502FC42F98F20
:100574003A0539815D8DE8C282803707250013066C
:10058400F7486363A6023767DBFF130707932A97CD
:100594001306007D3357C7027D1790431377F7077F
:1005A400137606F8518FA5BF130707496318E500B2
:1005B4009843137707F81367670295B737D7250071
:1005C4001307F777636DA7003767DBFF13070793FC
:1005D4002A971306007D3357C70279177DBF9843C6
:1005E400137707F8136777021DBF130585C199B701
:1005F400D8561375F507759BD8D69843137707F823
:10060400598D88C38280938741839C4371C12D4750
:100614006361A7027D15D857B70600C11375F503AA
:10062400759BD8D7984BFD166205758F598D88CB6D
:1006340085A031476301E50A130760026364A700DC
:100644007915D1BF13077002E307E5FCD85741665B
:10065400130606A013672700D8D73357C502B7057A
:1006640010FEFD153375C5027D8B93164701F843C3
:100674006D8F558FF8C31307A00FB706FCFF2A052B
:100684003355E502F843758F3A053981598DE8C32E
:1006940013874182184371761306F60F585B944B07
:1006A40065831377F703F18E2207558F98CBF84FA4
:1006B400B706F9FFFD1613674700F8CF984B758FFF
:1006C400B7060200558F98CB9386864F94C78280D5
:1006D4001305500289B71305600235BF9387418320
:1006E4009C43984B9316E70063DE0600371701140A
:1006F4001307F78F98CB37071104F8CF096713074F
:10070400879F98C7828093874183944318491388AD
:100714008182DC5A937507701376070393F7F78F7A
:10072400CD8FDCDAC145938741829C438326080040
:10073400C288631AB60490435849B70500FA137681
:10074400F6CF184390C3D053FD1521836D8ED0D3BB
:1007540003D66600CC468177FD17ED8F42064182B1
:10076400DCC60F10000083260800B70702009CC6F1
:100774009377F70FAD07135716008A076107BA97E7
:100784008607FCD285A8930500036310B60A90433C
:1007940041831366063090C30966518F2393E702A1
:1007A400D8531316770063490604F04B03479501A9
:1007B40013660610F0CB238AE704DC530546E58371
:1007C4008D8B639FC70283D76600CC4601767D1666
:1007D4006D8EC207C183D0C60F10000083A6080027
:1007E400370602008583290790C6E1070E073E9766
:1007F4000607F8D2CCC6828058490347070075BF64
:1008040083D76600CC4601767D166D8EC207C18300
:10081400D0C60F10000083A60800370602008583A7
:100824002D0790C6E1070A07D9B790435849B70581
:1008340000FA1376F6CF13660610184390C3D0530C
:10084400FD1521836D8EB70500024D8ED0D303D6DE
:100854006600CC468177FD17ED8F42064182DCC6E7
:100864000F10000083260800B70702009CC6937788
:10087400F70FA9078E071307860111B71387418362
:100884009387418213760503414814439C4313879D
:100894003500631A060590430E071376F6CF90C30E
:1008A40003C631839375F601B04A019A4D8EB0CADE
:1008B400D453370600FA7D16F18ED4D3D44B93F675
:1008C40006FC93E6D600D4CB9306F007238FD7001B
:1008D400D44F93F606C093E6060AD4CF1307C70392
:1008E40023A0E1828280130800036312060B904365
:1008F40041811366063090C30966518D2393A70284
:10090400D0531315760063480500F04B13660610A8
:10091400F0CB238AB704D053854565820D8A6310D2
:10092400B6040E071307C70323A0E182D84B13773D
:1009340007FC1367B700D8CB13078007238FE700A2
:10094400D84F137707C01367C709D8CF83C721834C
:1009540013F7F701BC4A819BD98FBCCA8280120766
:100964001307C70323A0E182D84B137707FC13674F
:10097400D700D8CB1307F007238FE700D84F13779E
:1009840007C01367070AD8CF83C73183D1B7904311
:1009940012071376F6CF1366061090C303C621839D
:1009A4009375F601B04A019A4D8EB0CAD4533706F6
:1009B40000FA7D16F18E37060002D18ED4D3D44BC3
:1009C40093F606FC93E6B600D4CB93068007238FF8
:1009D400D700D44F93F606C093E6C609D4CFFDBD25
:1009E400938781829C43D8431367E701D8C33707B1
:1009F400020023AA07040D07D8C7938741829843AE
:100A0400C167FD173CC3930700045CDF82809386B3
:100A140081829C42B84B3D9BB8CB98430D8B11CF40
:100A240098431367870098C30100010098423C4B28
:100A340093F7F78F93E707503CCB82809307000C22
:100A440001116314F50493078008F3B7078093F743
:100A540087083EC00F100000B71700401307700549
:100A64002380E704130780FA2380E7040F100000B3
:100A740098271367070C98A7238007048247F3A7D6
:100A840007800F10000005618280B7170040B82767
:100A9400118B69EB83C6E7041307800893F6F60FFE
:100AA400733607801376860832C20F1000001308CD
:100AB400700523800705930580FA2380B7040F107F
:100AC400000003C6E704136636002387C704B02773
:100AD40013664600B0A723800704124673260680D7
:100AE4000F10000090271376F60F733707801377E3
:100AF40087083AC40F100000238007052380B70439
:100B04000F10000098271367070C98A72380070489
:100B1400A247F3A707800F100000A5470100FD17A7
:100B240093F7F70FE5FF93078008F3B7078093F770
:100B340087083EC60F100000B71700401307700562
:100B44002380E704130780FA2380E7040F100000D2
:100B540090A72387D70423800704B247F3A707800D
:100B64000F1000009377050C130700046399E7083E
:100B740093078008F3B7078093F787083EC80F10E0
:100B84000000B7170040130770052380E70413071C
:100B940080FA2380E7040F100000B8278546136706
:100BA4000701B8A737270040A303D780834657809F
:100BB40093E60601A302D78023800704C247F3A764
:100BC40007800F10000093078008F3B7078093F79E
:100BD40087083ECE0F100000B717004013077005BA
:100BE4002380E704130780FA2380E7040F10000032
:100BF4001375F50F88A723800704F24749B5937747
:100C0400F5019DCF93078008F3B7078093F7870812
:100C14003ECA0F100000B717004013077005238069
:100C2400E704130780FA2380E7040F100000372736
:100C340000408946A303D78023800704D24741B7E5
:100C440093078008F3B7078093F787083ECC0F100B
:100C54000000B7170040130770052380E70413074B
:100C640080FA2380E7040F100000372700409D46D8
:100C7400A303D78023800704E24791B7411181463B
:100C8400014681451145971000E0E780C08B1307AA
:100C94008008F337078093F787083EC40F100000DD
:100CA400B7170040130670052380C704930680FA23
:100CB4002380D7040F100000FD55CEB7238007040E
:100CC400A245F3A505800F10000073370780137742
:100CD40087083AC60F1000002380C7042380D70476
:100CE4000F10000003C76704136717002383E7048A
:100CF40023800704B247F3A707800F10000001A068
:100D0400B7170040130700032388E702730020305D
:100D14009387019C4147D8C7C8CB130700053E857C
:100D2400B8AF6FF04FE51385019AC1475CC5231D29
:100D340005006FF00FD1138701811C4385071CC385
:100D44008280411122C406C6937715002A8499C76C
:100D5400DD3713850196B5471EA15D3F9377840067
:100D640091C3D1379377040199C7753F13874181A4
:100D74001C4385071CC3118809CC172500E0130503
:100D8400255C971000E0E78060442244B2404101B2
:100D940059BFB240224441018280EFF02FEE73002C
:100DA4002030EFF0EFEF7300203037270040834707
:100DB4006740858B85C385472303F74083A501815D
:100DC400172500E013058558971000E0E780E02B15
:100DD40023A8018073002030230304801547A287D1
:100DE4002303E480010001002302A48003C7678079
:100DF40062076187E34C07FE2382A780228783472B
:100E04006780E207E187E3CC07FE82802303048046
:100E140015472303E480010001002302A48082809B
:100E240083076480E3CE07FE230304808280830764
:100E34006480E3CE07FE0345448082808307648098
:100E4400E3CE07FE2302A4808280411126C44AC255
:100E54004EC006C61377F50BAD47AA892E89954473
:100E64006306F70019455D37653F8D444E85793F2C
:100E7400FD59FD1463983401B240A24412498249D9
:100E840041018280135509011375F50F453F22096D
:100E9400CDB7011126CC06CEB7040800513715454D
:100EA400B537713769372AC6A53F324593771500A0
:100EB40089EB136515001375F50FF240E2440561E3
:100EC4008280FD14E9FC0145CDBF411106C6B71768
:100ED4000040130770052380E704130780FA23807A
:100EE400E70403C747041305F00F1367070E2382B3
:100EF400E70491472303F480C535B24041010DB79F
:100F0400011126CC4ACA4EC852C606CE2A89AE89D9
:100F1400B284554A5D3F91E82137F2402685524913
:100F2400E244C249324A05618280CA850945313F9B
:100F3400910903A7C9FF91472320E4800307648034
:100F4400E34E07FE23034481FD17EDFBFD14110955
:100F540081C49377F90FE9FF2D3F55FDFD5475BF0B
:100F6400011126CC4ACA4EC852C656C45AC206CE2D
:100F74002A89328A8D49913FC164C16A056B93877E
:100F8400F4FFB3F7270199E363719A02FD19918085
:100F9400E39709FE71350145F240E2445249C249E2
:100FA400324AA24A124B056182801305800D638880
:100FB4005401130500026384640113051008CA85F3
:100FC4006935C13D09C52699330A9A4075BF7D55D7
:100FD400E1B7011106CE26CC4ACAB2844EC82AC64D
:100FE4002E89E5353245FD14FD59AA852D45B13DBF
:100FF400639A34013535F24026855249E244C249A8
:10100400056182802D3593F7340091EB83260480AB
:101014000327090093074900E39EE6FC3E89FD147B
:10102400C1BF011106CE2AC64D353245C533F24043
:101034000561FDB3011106CE26CC4ACA4EC852C67C
:10104400AA8956C42E895135B7050400B3E5B90001
:101054002D45E53B81448D4A214AD13B6396540199
:10106400832704802320F9008504E39844FF832721
:10107400048013972901635C07002312F900F240EE
:10108400E2445249C249324AA24A056151BB232271
:10109400F900F5B7411106C626C44AC24EC0AE894E
:1010A4002D3581451305B0044D33BD447D5941337D
:1010B40093F77400CE9703C70700FD14398D23807E
:1010C400A700E39624FFB240A24412498249410199
:1010D40081BB411106C6D53B13056006053B893328
:0C10E400130590092533B24041011DBBEB
:1010F000971100209381018617210020130181F0B0
:101100001305400097F5FF1F9385C5EF17060020D4
:10111000130606FE63FAC5008322050023A05500CE
:1011200011059105E3EAC5FE1725000013050538F2
:10113000970500209385C5FB1386C18063FAC5001F
:101140008322050023A0550011059105E3EAC5FEA1
:101150001385C1809385019E6377B5002320050028
:101160001105E36DB5FE93025002739002BC8D42EF
:10117000739042808542739012BC930280087390F2
:10118000023097F2FF1F9382E2E793E232007390FE
:101190005230970200009382C2237390123473007E
:1011A00020302A8311C62300B3007D16050365FE97
:1011B0008280371700408347E70412054111BD8B39
:1011C000C98F93F7F70F93068008F3B6068093F65E
:1011D000860836C60F100000930670052300D7045A
:1011E000930680FA2300D7040F1000002307F704AA
:1011F00023000704B247F3A707800F100000410146
:101200008280914763ECB70497270000938787118A
:10121000B3C5F52098413E97B71700409387470B19
:101220000287944337170040B3F6A64094C3930651
:10123000070B9C42B3F7A74019A894433717004007
:10124000B3F6A64094C39306070B9C42C98F9CC279
:101250009307070A98433377A74098C38280944343
:1012600037170040C98ED9B798433377A74098C342
:10127000B71700409387070A9843498FF9BF9843EF
:10128000498FF5B7B717004098279306000C1377DE
:10129000070C6315D70003A5C180828098279306A9
:1012A00000041377070C6310D7029427130700027A
:1012B000FD8A99C298277D8B3745C32313050560A6
:1012C0003345E5028280942713070002FD8A99C204
:1012D00098277D8B3755E80113050580D5B73285F2
:1012E000814737370040A14663C3A7008280034689
:1012F000B740E30ED6FE3386F5001022850723049F
:10130000C740DDB7970600209386C6E4AA878842C7
:101310001387019EAA9763E9E7000A87130707FC72
:101320006364F7009CC282807D558280B7270040AD
:101330001387C74008C309472380E740114723802C
:10134000E7408280411122C406C62A84253F2947EE
:10135000B307E502B2408D83B3D7870222449507D5
:10136000B3D7E70237370040B3C707082316F74063
:1013700041018280716541111305052006C6D937E8
:10138000B7370040130710F82381E7400D47A381CA
:10139000E74013070004A380E74005472387E740A1
:1013A000B24041018280371700403E2FB3C7070883
:1013B00093F707FCB3C707083EAF09C93E2F8E0558
:1013C0005D8ED18DB3C505082EAF8280828041111C
:1013D000194506C6F93B1305600497F0FF1FE78027
:1013E0002066B7170040214723ACE70A8D45214509
:1013F000093D0146814505457D37AD3F1725000074
:10140000130585F3EF00505C172500001305C5F8A0
:10141000EF00905B112001A0011106CE22CC9307B2
:101420008008F3B7078093F787083EC20F100000CB
:10143000B7170040130770052380E704130780FAED
:101440002380E7040F100000B847B70600C1FD165F
:10145000758FB706000E558FB8C7238007049247D3
:10146000F3A707800F100000970700209387A78D30
:101470003EC42800F5473EC637045202F52A9305BC
:101480001403172500001305E5ECEF00D03F0567B6
:101490009387019C1307072ABAAF37768294C166F7
:1014A00025671306E6E8FD16914513041403130798
:1014B000078190C394C78CBF80CBD8CF238207000D
:1014C0009387019AD8CF17070020130727CED8CBD0
:1014D00090C394C78CBF80CB2382070037E400E021
:1014E000B70710002320F410B70720002320F410C2
:1014F000172500001305C5E6EF00104D23AA018053
:1015000023A801804133AA85172500001305C5E7EC
:10151000EF00703797000020E7802081A533058118
:101520003135372700408347274093E717002301D1
:10153000F740B7070001F2402320F4106244056130
:10154000828001112A8706CE2E8526CCB2854ACA12
:10155000368622C637240040B7E700E0FD5603A9CF
:101560000700C44323A0D71823A2D7189307F7FF77
:1015700093F7F70F894663E0F60AB717004083C771
:101580005704B706040093F7070299E3B7C60300B0
:10159000F9576375D5043308C50063E1060589472B
:1015A0006314F704098297000020E780A095AA87BA
:1015B00037170040930670052300D704930680FA7E
:1015C0002300D70483464704C18A2302D70437E7A0
:1015D00000E023202711232297103244F240E244F6
:1015E00052493E85056182808547631FF700856704
:1015F000FD173E96E98F3E96FD777D8E7D8D970097
:101600000020E780209665B797000020E780A09C27
:101610009307150071BFB547631AF7001305900BC8
:1016200097000020E78020A0814759B7B147631594
:10163000F7001305B00AEDB799476317F700970055
:101640000020E780609FCDB79D47631BF70023A074
:10165000050023A2050097000020E780E0A3E9B77A
:1016600091476317F70097000020E780C0A66DBF81
:1016700081471DDFF1572DBF1841411106C69387E1
:10168000818198C3584117F5FF1F1305A5A0D8C342
:101690007520B24001454101828001114EC69389F7
:1016A000418203A7090006CE22CC26CA4AC852C4EA
:1016B00056C21443B707FDFF1384F7FFB3F7860044
:1016C0001CC31C43370A020013894183E18FB3E72F
:1016D00047011CC303270900B7063300938A8182A0
:1016E0001C47B7040F00D58F1CC783A70A001387B8
:1016F000845D93840408B8CB0924EF00D017D52863
:10170000492A83A60A0003A70900416623A44601CB
:101710001C43E18FD18F1CC3032609003707CEFF7E
:101720007D171C46F2406244F98F1CC6A4CA424988
:10173000D244B249224A924A05618280B7C700402A
:101740001387072001119387071023A4E18237D75D
:10175000004006CE2AC623AAE18223A2F1822928CC
:1017600097F0FF1FE78000280D3F3245F24023A687
:10177000A182014505618280938741839C431307C1
:101780000048B70600F998D7D85FFD16758FB706E1
:101790000002558FD8DFD85FB70600400E070D83D3
:1017A000558FD8DF985BB706FAFFFD16758F98DB6B
:1017B000985BB7060070558F98DBB847B706F9FFFE
:1017C000FD16758FB8C7B84BB70607001377F78FAC
:1017D00013670730B8CBF84F558FF8CFF84FB706DF
:1017E0000007558FF8CF930740060100FD17F5FF5E
:1017F0008280138741831C4341767D16B44BF18E62
:10180000B4CB944737062000D18E94C7D44793E6D3
:101810000601D4C7D447BD9AD4C701000100010016
:10182000010014430566DC4693E70701DCC6DC4291
:10183000D18FDCC2938781829043930740067CD28C
:101840007C5291C783A7C609A183858BF5DB010074
:10185000010001000100184341668327C709FD8B81
:101860002389F182344BD18E34CB344B3706E0FFE1
:101870007D16819ADD8E34CB14478907F18E14C70B
:101880007D476365F700A389F1828280A389E182A5
:101890008280938741839C4341777D17B44F416693
:1018A000F98EB4CF9447D18E94C7D44793F6F6EF10
:1018B000D4C7D443758FD8C3D44793E60610D4C792
:1018C000D843518FD8C38280938781829843896798
:1018D000938707F47CD3938741839C4383A60709AE
:1018E000139656006358060083A6070913966600F0
:1018F000634406007453FDF28280397122DC138444
:1019000041831C4006DE26DA4AD84ED652D456D23F
:101910005AD05ECE62CC66CA6AC86EC6D843FD761F
:10192000FD161377F7EFD8C39857758F98D7D85708
:10193000B70602003D9BD8D79847558F98C7D84324
:1019400013670701D8C3056783D6018313074723AD
:101950006380E672D84381749384F40F799BD8C373
:10196000985FB166938606F0658F558F98DFD843F0
:1019700013671700D8C3893F1C4003A707091377D3
:10198000F703238CE18203A7470929831377F7071D
:10199000238EE182D843B96693860670799BD8C3BB
:1019A000985F658F558F98DFD84313671700D8C3AA
:1019B000213F1C4003A707091377F703238DE1821A
:1019C00003A7470929831377F707238FE182D843B9
:1019D000B56693860630799BD8C3985F658F558F1F
:1019E00098DFD84313671700D8C3F93D1C4003A7FD
:1019F00007091377F703A38CE18203A7470929831B
:101A00001377F707A38EE182D843799BD8C3985FF9
:101A1000F98C4167130707C0D98C84DFD84313675B
:101A20001700D8C3553518408327070993F7F703E4
:101A3000A38DF18283274709A98393F7F707A38F23
:101A4000F18283CC918303C7818333079741930746
:101A5000600213065002B307F702930670021305E3
:101A6000400213083002130E2002930E10020C40A5
:101A7000794FF54FFD423306C702714AED4A654B77
:101A8000E14BD94355445D43D14DCD44B3C7D70253
:101A90004949454CB949294D3346D6029207220699
:101AA000D18F3306A702D98F3346D6023206D18FA3
:101AB0003306070369483346D6024206D18F330600
:101AC000C7033D4E3346D6025206D18F3306D703A5
:101AD000A54E3346D6026206D18F13165700334601
:101AE000D6027206D18F23A0F50A3306F703994F69
:101AF000B307E7031D4FB3C7D7023346D602920799
:101B00002206D18F330657028D423346D602D18F3B
:101B100033064703354A3346D6023206D18F3306A1
:101B20005703B14A3346D6024206D18F3306070324
:101B30003346D6025206D18F330667032D4B334608
:101B4000D6026206D18F330677033346D602720679
:101B5000D18F23A2F50A33068702B30777023346F3
:101B6000D602B3C7D70222069207D18F3306670287
:101B70003346D602D18F3306B7033346D602320638
:101B8000D18F330697023346D6024206D18F3306F1
:101B900027033346D6025206D18F330687033346D6
:101BA000D6026206D18F131647003346D60272065C
:101BB000D18F3306C70323A4F50AB3475702334531
:101BC000D602A2073366F500B30737031545B3C73E
:101BD000D7029207D18F330657033346D602320617
:101BE000D18F330667033346D6024206D18F3306C0
:101BF000A7033346D6025206D18F3306D7033346A6
:101C0000D6026206D18F131637003346D60272060B
:101C1000D18F23A6F50AB307E70333C6D702B3472C
:101C20004703C207D18F3346D7026206D18F3306EE
:101C3000F7033346D6021206D18F3306A702334686
:101C4000D6022206D18F131627003346D60232065B
:101C5000D18F131617003346D6025206D18F23A810
:101C6000F50A83C7A183B387FC40B3C8A703130653
:101C70008002B3CDB703B208920DB3ED1D01B3C816
:101C8000C702B3ED1D01A148B3C81703C208B3E8EA
:101C90001D01B3CDA702F20DB3E8B801B38D570211
:101CA000B3CDCD02A20DB3E8B801B38DF703B3CD28
:101CB000CD02D20DB3E8B801B38DE703B3CDCD02A9
:101CC000E20DB3E8B801B38DD70323AA150B9148F1
:101CD000B3C81703B3CDCD029208B3E81D01B38D8D
:101CE0006703654BB3CDCD02A20DB3E8B801B38D48
:101CF0005703ED4AB3CDCD02B20DB3E8B801B38DB1
:101D00004703714AB3CDCD02C20DB3E8B801B38D1C
:101D10003703F549B3CDCD02D20DB3E8B801B38D89
:101D2000C703130E2002B3CDCD02E20DB3EDB8010F
:101D300093984700B3C8C802338C8703F208B3ED09
:101D40001D01894823ACB50BB3C81703334CCC0233
:101D5000B208336C1C01B38827037949B3C8C802A1
:101D60009208336C1C01B388970293045002B3C8E5
:101D7000C802A208336C1C01B388870213046002F6
:101D8000B3C8C802C208336C1C01B388770293033E
:101D90001002B3C8C802D208336C1C01B3886702B2
:101DA00013033002B3C8C802E208336C1C01B388C5
:101DB0007703B3C8C802F208B3681C0123AE150B41
:101DC00033880703B38857033348C802B3C8C8022F
:101DD0001208A20833681801B3886703B3C8C802A1
:101DE00033681801B3884703B3C8C802B208336820
:101DF0001801B3883703B3C8C802C2083368180192
:101E0000B38827037D49B3C8C802D20833681801D4
:101E1000B3882703B3C8C802E2083368180193984F
:101E20005700B3C8C802F2083368180123A0050D93
:101E3000338877029398C7013348C8023368180182
:101E4000B388C703B3C8C802920833681801B388BF
:101E50006702B3C8C802A208336818019308400299
:101E6000B3881703B3C8C802B20833681801B3882F
:101E70009702B3C8C802C20833681801B388870242
:101E8000B386D702B3C8C802B3C6C602D208336845
:101E90001801E206B366D80023A2D50C930690027F
:101EA000B386D70203A8850C137808FFB3C6C60211
:101EB000BD8AB366D80023A4D50C9306A002B386CE
:101EC000D70233C6C60283A6850C93F6F6F03D8A88
:101ED0001206558E23A4C50C03C6D18303C8E18323
:101EE00033080641B306A80303A3850CB308A80270
:101EF000B3C6F602B3C8F802A206F208B3E61601AA
:101F0000B308D803B3C8F802B208B3E616019318B1
:101F10003800B3C8F802C208B3E61601B308E803F4
:101F2000B3C8F802D208B3E61601B308F803B3C881
:101F3000F802E208B3E61601B7988888938808800B
:101F4000B3E61601B3E66600931828003343F8029F
:101F500023A4D50C83C6C183918E1376F60762063F
:101F6000B3C8F8023203B3E8680033835602334340
:101F7000E302B30258027203B3E86800060833C3F1
:101F8000E602B3C2F2025203B3E86800B347F802B4
:101F9000139816009202B3E258003348E802A207F1
:101FA000B3E7F2006208B3E70701256813088888E1
:101FB000B3E7070123A6F50CB38FF603B387A60298
:101FC00013952600B3C7E702B3CFEF02920733455C
:101FD000E502A20FB3E7F701338FE603C98F13952C
:101FE0003600B38ED603338DA603334FEF0233454D
:101FF000E502320FB3E7E701B3CEEE024205C98F27
:102000003347ED02D20EB3EED701620733E7EE009D
:1020100023A8E50CDC410567BD9BDCC1DC41F99BD5
:10202000DCC19C55D98F9CD5DC55370700817D17C5
:1020300093E70701DCD593F7FC0383AC850393FC9E
:102040000CFCB3ECFC0023AC95039C5DF98F5D8E1A
:1020500090DDF2506254D2544259B259225A925AE7
:10206000025BF24B624CD24C424DB24D21618280F8
:1020700023980182F9B29387418398435C4393E7A5
:1020800007105CC382805D7122D406D62A842EDAC2
:1020900032DC36DEBAC0BEC2C2C4C6C617F5FF1FE8
:1020A0000325850B11C51C4D81E72AC6B12B32458E
:1020B0000C455418228636CEEF003021B2502254FF
:1020C00061618280011126CA06CE22CC4AC84EC662
:1020D00052C4AA8419E11C4502901C4D2E89ADE31F
:1020E00025239C4C8044B9CF9717000093878730F5
:1020F000631DF404C0407C50858B99E75E2493F700
:10210000072099E3284CAD2D5E24A18B99C31C4870
:10211000D5E3A2852685AD2A51CDFD547C50858B13
:1021200099E75E2493F7072099E3284C992DF24014
:1021300062444249B249224A2685D24405618280DE
:1021400000455DB72685C92145B7971700009387DD
:1021500067286314F400804479BF971700009387C1
:102160006725E31AF4F8C04479B71CC4050963C8AD
:1021700007021C401387170018C08CA31C4483451A
:102180000900FD17FDF11CC463D907022286A94589
:1021900026858920FD57E302F5F8A94441B7184C7C
:1021A00063C4E700E39745FD228626852520E317D3
:1021B00035FDA5B7FD59294AD1B71C401387170033
:1021C00018C0294798A3D1BFAA8517F5FF1F03257B
:1021D000A5F8CDBD011122CC26CA4AC806CE4EC6EE
:1021E000AA842E89328401C51C4D91E331299717A9
:1021F0000000938727206317F402C0401C4C1CC4C6
:102200005E24A18B99C31C4895EFA28526854920A1
:1022100015C97D59F2406244D244B2494A854249C7
:1022200005618280971700009387C71A6314F40032
:102230008044E9B7971700009387C717E310F4FCB1
:10224000C0446DBF1C4808409379F90F1379F90F0A
:102250001D8D5C486346F500A2852685A12C55F9A5
:102260001C440505FD171CC41C401387170018C02B
:10227000238037015C486388A7005E24858BD9DB07
:10228000A947E319F9F8A28526852D2441D551B730
:10229000411122C426C24AC006C697F4FF1F83A478
:1022A000A4EB2A892E8489C49C4C99E32685A92E07
:1022B00097170000938707146313F402C040831735
:1022C000C40013F7870025E713F707010DEB254737
:1022D0002320E90093E707045EA47D5571A09717BA
:1022E00000009387270F6314F4008044C9BF971739
:1022F00000009387270CE314F4FCC044C9B7918B0A
:102300009DC34C5889C9930744046384F5004A85EA
:10231000B92B232A04025E242322040093F7B7FD7D
:102320005EA41C481CC05E2493E787005EA41C4882
:1023300099EB5E241307002093F707286385E700D5
:10234000A2854A8561298317C40013F717001DC3AE
:102350005848232404003307E04018CC18480145AE
:1023600001E713F707083DF7B240224492440249BF
:102370004101828013F72700814611E3544814C4B9
:10238000F1BF8397C500011122CC26CA06CE4AC8E8
:102390004EC613F78700AA842E8479E3D84163459B
:1023A000E000B8416356E008585459C303A904003B
:1023B00023A004000C5093D7C748A9CB70485E24D3
:1023C000918B99C75C401D8E5C5899C33C401D8E13
:1023D0005C540C50814626858297FD57630CF504AA
:1023E0001C480567232204001CC05E24F98F91C39A
:1023F00068C84C5823A0240185CD93074404638406
:10240000F5002685AD21232A04021DA0014685463C
:1024100026850297FD572A86E313F5FA9C40C5D31B
:1024200075476385E70059476395E70623A02401B4
:102430000145B5A098408317C40001CFF546630558
:10244000D700D9466319D7041C48232204001CC0B6
:102450004DB718482322040093D7C74818C041BF7E
:1024600083A90501E38609FC03A905008D8B23A040
:10247000350133093941014791E3D84918C4E3597B
:1024800020FB1C540C50CA864E8626858297634FCB
:10249000A0008317C40093E707045EA47D55F240B3
:1024A0006244D2444249B24905618280AA99330903
:1024B000A940F1B79C49411106C622C426C281EB4E
:1024C0008144B24022442685924441018280AA84FC
:1024D0002E8401C51C4D91E3052A971700009387B0
:1024E00067F1631CF402C0408317C400F1DB78502D
:1024F000058B11E793F7072099E3284C5124268593
:10250000A28541357C50AA84858BC5FF5E2493F754
:102510000720C5FB284CB5246DB79717000093879B
:1025200067EB6314F4008044C1B7971700009387EA
:1025300067E8E31BF4FAC04445BF411122C406C654
:102540002A844EA572A523200500232205002324FA
:1025500005002322050623280500232A0500232C35
:102560000500214681451305C505EFE09FC3971778
:102570000000938727835CD09717000093872785F7
:102580001CD4971700009387E7885CD49717000046
:102590009387278BB24000D01CD82244410182800F
:1025A00097050000938545F1BDA2411126C293070E
:1025B00080069384F5FFB384F4024AC02E8922C4B6
:1025C00006C693854407692E2A8401CD2320050081
:1025D00023222501310508C4138684068145EFE0D6
:1025E0005FBCB2402285224492440249410182806C
:1025F0001385418471A21385418461A2138581846E
:1026000041A213858184B5AA411122C406C62A8439
:10261000F5371C4C89C72244B2404101DDB797070A
:102620000000938727F81CD42324040423260404E1
:102630002328040483A781806394870085471CCCEA
:1026400022853D2048C02285252008C422850D20F2
:1026500048C4484001469145CD3508440546A54546
:10266000E93D48440946C945C93D85471CCC65B785
:10267000411126C24AC006C622C42A89953F83A4B6
:1026800081809C4C99E3268541379384840480445F
:10269000DC40FD1763D607009C40BDC38440C5BF26
:1026A0000317C40039EBC17785075CC413058405A3
:1026B00023220406E9208137214623200400232415
:1026C00004002322040023280400232A0400232CCE
:1026D000040081451305C405EFE0BFAC232A0402C2
:1026E000232C04022324040423260404B24022855C
:1026F000224492440249410182801304840651BF5E
:1027000091454A855D3588C02A8449F9ED35B14740
:102710002320F900E1BF797122D44AD04ECE52CCA9
:102720005AC85EC606D626D256CA2A892E8A1304ED
:1027300085048149054BFD5B0444832A4400FD1A4E
:1027400063D00A0200406DF8B250225492540259EC
:10275000624AD24A424BB24B4E85F2494561828071
:10276000DE24637BFB008397E40063877701A68503
:102770004A85029AB3E9A90093848406C9B7828086
:10278000828082805971A2D42E848395E500A6D2DE
:10279000CAD086D6B284368963D205025E2493F706
:1027A00007088DEB13070040B65026542320F9008C
:1027B00098C0065996540145656182803000E12D2C
:1027C000E34E05FC3247BD67F98F7977BA9793B727
:1027D0001700C9BF814713070004F9B7DE257971D7
:1027E00022D406D626D24AD04ECE898B2E8491CFC3
:1027F000930774041CC01CC885475CC8B25022549F
:1028000092540259F2494561828074003000AA84D2
:10281000953FA2492A892685CE85992219E98317F1
:10282000C40013F7072079FBF19B93E727005EA410
:10283000C1B7970700009387E7D69CD45E2408C0F1
:1028400008C893E707085EA4B247232A340199CB4E
:102850008315E4002685A52511C55E24F19B93E729
:1028600017005EA45E2433E527014AA441BFD1CD01
:1028700083A7C5FF011122CC06CE1384C5FF63D305
:1028800007003E942AC64525138701851C4332451F
:1028900081EB2322040000C36244F240056141AD94
:1028A000637DF4001040B306C4006396D7009443E0
:1028B000DC43B29614C05CC0F9BF3E87DC4399C3C9
:1028C000E37DF4FE14433306D700631F86001040F7
:1028D000B29614C33306D700E390C7FC9043DC43A1
:1028E000B29614C35CC34DBF6375C400B1471CC12D
:1028F00065B71040B306C4006396D7009443DC4329
:10290000B29614C05CC040C341BF828041114AC02E
:102910001389C1848327090022C426C206C6AA845B
:102920002E8489E7814589292320A900A28526854F
:10293000A1217D59631A25017D54B240228522448C
:102940009244024941018280130435007198E306E4
:1029500085FEB305A44026850521E31025FFE9BFC8
:10296000011126CA93843500F1984AC8A104B147E1
:1029700006CE22CC4EC62A89B3F4F40A63C40400FE
:1029800063FDB400B1472320F9000145F2406244E1
:10299000D2444249B24905618280712393890185FD
:1029A00083A709003E8431E4A6854A858537FD5713
:1029B0002A846316F50A03A40900A287C1EB8329C0
:1029C000040081454A85A299452E6394A9081C40BC
:1029D0008D044A859D8CF198B147A104B3F4F40AA3
:1029E000A6852D37FD576306F5061C40A6971CC02B
:1029F00015A01440858E63C806042D47637DD70259
:102A000004C0330794006396870223A0E9005C406A
:102A100014C35CC34A85212B1305B40093074400FB
:102A200061993307F540E303F5F63A94898F1CC0AA
:102A3000B1BFD8C3E9BF58406395870023A0E90020
:102A4000D1BFD8C3C1BFA2874040B1BF3E84DC43E1
:102A5000B5B7B1472320F9004A85D1293DB704C154
:102A600055BF1C46FD171CC663DA0700184E63C528
:102A7000E700A9476394F5006FF0CFF51C422E855F
:102A80001387170018C28CA38280011122CC26CA9A
:102A90004AC84EC652C406CE2A89AE893284B304CF
:102AA000D6007D5A63149400014501A80C204E867F
:102AB0004A85453F0504E31745FFF2406244D2448E
:102AC0004249B249224A05618280357122CD26CB26
:102AD0004AC94EC706CF52C556C35AC1DEDEE2DC34
:102AE000AA892E843289B68401C51C4D91E3293E02
:102AF00097170000938707906317F40403A4490015
:102B00007C50858B99E75E2493F7072099E3284C46
:102B100085395E24A18B99C31C48B9EFA2854E85E7
:102B2000EFF00FF731C97C50858BA1C37D55FA407A
:102B30006A44DA444A49BA492A4A9A4A0A4BF65B35
:102B4000665C0D618280971700009387A7886315E4
:102B5000F40003A489006DB7971700009387878559
:102B6000E310F4FA03A4C90061BF5E2493F70720C1
:102B7000D5FF284C39315DBF93070002A304F10251
:102B80009307000302D22305F10226C6930B5002DD
:102B9000971A0000938A0A88294BCA849C2099C3FB
:102BA00063997709338C2441638D2401E2864A8638
:102BB000A2854E85D93DFD576306F5189257E297D9
:102BC0003ED29C2063800718FD571389140002C869
:102BD00002CE3ECA02CCA309010482D48345090077
:102BE000154656852D26C2479304190029E513F78B
:102BF000070109C713070002A309E10413F78700BF
:102C000009C71307B002A309E104834609001307AB
:102C1000A0026389E602F247CA84814625469820CD
:102C200093851400130707FD6372E60685C63ECE42
:102C300015A08504A5B733055541B397A728268964
:102C40003EC869BF324793064700184336C66348FB
:102C500007023ACE98209307E002631CF7049830ED
:102C60009307A002631AF702B2478904138747004B
:102C70009C433AC67D57B3E7E70A3ECA1DA833070F
:102C8000E04093E727003ACE3EC8E9B7B387670331
:102C9000AE848546BA9761B7850402CA81468147EA
:102CA0002546982093851400130707FD6372E606F6
:102CB000E9F68C200D461705000013052576812CBA
:102CC00011CD97070000938767751D8DC2471307C5
:102CD00000043317A700D98F85043EC88C201946FD
:102CE000170500001305C573138914002304B102EE
:102CF000392C2DC99307000095E74247B247137757
:102D0000071009CF91073EC69257D2973ED271B5B0
:102D1000B3876703AE848546BA9761B79D07E19B89
:102D2000A107D5B7780097060000938646D622867D
:102D30000C084E8597000000E7000000FD572A8A26
:102D4000E314F5FC7C50858B99E75E2493F707200C
:102D500099E3284C3D345E2493F70704E39807DC9D
:102D60001255F1B3780097060000938646D222866A
:102D70000C084E85F124D9B7411122C42A842E852E
:102D800023AA018406C6EFE0EFD7FD576316F500CE
:102D900083A7418591C31CC0B24022444101828077
:102DA000411122C42E848395E50006C63123634970
:102DB00005007C48AA977CC8B24022444101828029
:102DC0005E249397C7485EA4C5BFDE25011122CCBF
:102DD00026CA4AC84EC606CE93F70710AA842E8488
:102DE0003289B68991C78395E50089460146DD2879
:102DF0005E248315E400F2409397C7485EA46244C2
:102E0000CE864A86B24942492685D24405611DA82C
:102E1000411122C42E848395E50006C6E1207D572A
:102E20005E246319E5009397C7485EA4B24022442C
:102E3000410182809397C72868C85EA4C5BF839567
:102E4000E5003DA0411122C42A842E85B285368634
:102E500023AA018406C6EFE08FC8FD576316F5006C
:102E600083A7418591C31CC0B240224441018280A6
:102E7000411122C42A842E8523AA018406C69521E5
:102E8000FD576316F50083A7418591C31CC0B2406E
:102E9000224441018280411122C42A842E85B285B8
:102EA00023AA018406C6A121FD576316F50083A756
:102EB000418591C31CC0B24022444101828041112E
:102EC00022C42A842E8523AA018406C63D21FD57EB
:102ED0006316F50083A7418591C31CC0B24022440C
:102EE00041018280411122C42A842E85B285368612
:102EF00023AA018406C60129FD576316F50083A79E
:102F0000418591C31CC0B24022444101828093F5A7
:102F1000F50F2A966314C500014582801C21E38EBB
:102F2000B7FE0505C5BF138501846FF07F85138546
:102F300001846FF01F85797156CA9C49BA8A9845F9
:102F400022D44AD04ECE52CC06D626D25AC85EC61D
:102F5000B3E7E70A1CC203C73504AA892E84328965
:102F6000368A19C385071CC21C4093F7070291C714
:102F70008327090089072320F9000440998891E8F4
:102F8000130B9401FD5B5C4403270900998F63CC0C
:102F9000F40483473404B336F0001C4093F707026F
:102FA000A5EB13063404D2854E85829AFD57630340
:102FB000F5041C4011478144998B6399E7008327EE
:102FC000090044449D8C8147B3E4F40A1C4418482A
:102FD0006354F700998FBE94014969047D5B63983F
:102FE0002405014509A885465A86D2854E85829AD0
:102FF000631E75017D55B250225492540259F24914
:10300000624AD24A424BB24B456182808504A5BFD9
:103010003307D40013060003A301C7040347540475
:1030200093871600A2978906A381E7049DBF854672
:103030002286D2854E85829AE30E65FB050945B747
:10304000797122D44AD04ECE52CC06D626D256CA58
:103050005AC803C88501930780072A892E84B2893C
:10306000368A63E20703930720069386350463E1FB
:103070000703630B081C930780051706000013065F
:10308000A63A6307F814930424042301040515A841
:103090009307D8F993F7F70F5546E366F6FE170640
:1030A00000001306E63AB3C7C7209C43B297828755
:1030B0001C4393842504938647009C4314C32381B7
:1030C000F504854765A290411C4313750608938556
:1030D000470029C19C430CC3584063DE0712930587
:1030E000D002A301B40418C4635E0702B307F04022
:1030F00017060000130646332948B68433F7070342
:10310000FD143297182398A03E87B3D70703E377BF
:1031100007FF85A09C43137506040CC355DD9397E8
:1031200057605DBF6D9A10C0D1B790411C431375B5
:1031300006089385470001C50CC39C4331A0137654
:1031400006040CC37DDA9E231307F0061706000061
:103150001306862D631FE80A2148A3010404584082
:1031600018C4E34C07F80C40ED990CC0D9F7B684AD
:1031700049F7A147631EF8001C40858B91CB58404E
:103180001C4863C7E70093070003A38FF4FEFD14F8
:10319000858E14C85287CE867000A2854A85613B11
:1031A000FD5A6319550D7D55B2502254925402595F
:1031B000F249624AD24A424B456182809C4193E780
:1031C00007029CC113088007170600001306062794
:1031D000A30204050C401C4313F80508138547009F
:1031E0006305080008C39C4339A013F8050408C30D
:1031F000E30B08FE9E2313F7150001C793E50502B4
:103200000CC099C3414891BF18401377F7FD18C00F
:10321000D5BF294899B7170600001306E6202948AC
:103220003DBF90411C43CC491378060813854700E5
:103230006306080008C39C438CC339A008C31376F7
:1032400006049C4375DA8EA323280400B68499B73C
:103250001C43D04181459386470014C3844326858F
:103260007D3101C5B30795405CC05C401CC8A3011B
:1032700004040DB714482686CE854A85029AE304D5
:1032800055F31C40898B85E74844B2473365F50AFE
:1032900021BF85465686CE854A85029AE30565F1AB
:1032A00085045C443247998FE3C5F4FEF1BF814445
:1032B000930A94017D5BF5B7411122C42A842E85BF
:1032C000B285368623AA018406C6A120FD5763165F
:1032D000F50083A7418591C31CC0B240224441013F
:1032E00082809307800523AAF1847D55828093070D
:1032F000800523AAF1847D5582809307800523AA47
:10330000F184014582809307800523AAF1847D55CD
:1033100082809307800523AAF1847D558280000076
:1033200002DFFFFF1ADFFFFF3EDFFFFF48DFFFFF87
:103330005EDFFFFF73746172742E000073656E644C
:10334000206572726F722E0072782D25640A00005B
:1033500063666756616C3D25780A00002D2D2D2D82
:103360002D2D2D2D2D2D2D2D2D2D2D2D2D2072780A
:10337000202D2D2D2D2D2D2D2D2D2D2D2D2D2D2D8A
:103380002D2D000073746172742072782E2E2E25FC
:10339000640A000043483537785F52465F42415324
:1033A00049435F4C49425F56312E302E30000000B9
:1033B000000000000000000000000000000000000D
:1033C00000000000000000000000000000000000FD
:1033D00000000000000000000000000000000000ED
:1033E00000000000000000000000000000000000DD
:1033F00000000000000000000000000000000000CD
:1034000000000000000000000000000000000000BC
:10341000232D302B20000000686C4C00656667454A
:10342000464700003031323334353637383941427F
:1034300043444546000000003031323334353637DE
:1034400038396162636465660000000064FCFFFF58
:103450007AFCFFFF3AFCFFFF3AFCFFFF3AFCFFFF5C
:103460003AFCFFFF7AFCFFFF3AFCFFFF3AFCFFFF4C
:103470003AFCFFFF3AFCFFFFD6FDFFFFDEFCFFFF3B
:1034800070FDFFFF3AFCFFFF3AFCFFFF04FEFFFF69
:103490003AFCFFFFDEFCFFFF3AFCFFFF3AFCFFFFB8
:0434A00078FDFFFFB5
:0234A40001A085
:1034A80000000000F0330000D0330000B03300000B
:1034B8000000000000000000000000000000000004
:1034C80000000000000000000000000000000000F4
:1034D80000000000000000000000000000000000E4
:1034E80000000000000000000000000000000000D4
:1034F80000000000000000000000000000000000C4
:103508000000000030130020EC100020EC10002018
:00000001FF
