:040000006F00D07D40
:100004000000000000000000F45F0100000C00206C
:10001400A9BDF9F3F45F0100000000000000000036
:10002400F45F0100F45F0100000000000000000024
:10003400F45F010000000000F45F01000000000014
:1000440000000000F45F010000000000F45F010004
:10005400F45F0100F45F0100F45F010000000000A0
:10006400F45F01000000000000000000F45F0100E4
:10007400AA0C0020F45F0100F45F0100F45F0100AA
:1000840000000000F45F010000000000F45F0100C4
:10009400972700009387072A9C53411122C406C660
:1000A4001384C18299C782971C403E9523A6A182DE
:1000B40039A097270000938727279C43EDF7084032
:1000C400B74703009387D73F3305F502B7A7260048
:1000D400938737ECB24022443E9523A6A182410186
:1000E4008280B7E700E09843B706200023A0D71822
:1000F400758F0F10000001C599C1814711E6B7E75C
:1001040000E023A0E7108280B386F50003C8060050
:10011400B306F500850723800601E317F6FEC5B78D
:1001240037E700E01C43B70620002320D718F58FDB
:100134000F10000001C53307C50011E637E700E0E2
:100144002320F71082800505A30FB5FEE31DE5FE0D
:10015400F5B737E700E01C43B70620002320D71883
:10016400F58F0F10000001C599C1014711EA37E767
:1001740000E02320F710054582800507E309E6FE29
:100184003308E500B386E5000348080083C606008B
:10019400E305D8FE37E700E02320F710014582800D
:1001A400797126D2972400009384C41722D406D6EA
:1001B4004AD04ECE52CC56CA5AC85EC626849C40FB
:1001C400F9EB9727000093876716984317260000DA
:1001D40003461613BE84172A0000130A6A129727CF
:1001E400000083C7E71193961700BA9683D60600DA
:1001F400CDC69727000083C7A71063EAC70A9727CD
:100204000000238F070E1C4063910712172900007A
:1002140013098911832709006389071097270000B0
:10022400938707118043630204109724000093848A
:100234002414DC40B7C9C901014B1727000023254A
:10024400F70C9389F937972A0000938AAA0E8357EB
:100254002400F5EB5C4463150B0E172700002329DB
:10026400F70C832BC40022856D235E846DF09727E1
:1002740000009387270CDC53CDCB2254B250925408
:100284000259F249624AD24A424BB24B4561173392
:1002940000E06700A3B182971DB7850793F7F70FB6
:1002A40097260000238EF604E3EBC7F299B786077E
:1002B4003E978355070023100700972700002394D7
:1002C4000704972700009387A7059C431725000080
:1002D4000345050313172500BA979C4382971727F4
:1002E40000000347E7019317170098403E97835790
:1002F4006A0093C7F7FF7D8D835707005D8D231038
:10030400A7009727000083C7A7FF91C78507172772
:1003140000002307F7FE17270000034767FE97270F
:10032400000083C7F7FDE37CF7ECB25022549254EB
:100334000259F249624AD24A424BB24B4561828029
:100344002326FB0039BF8327090082971C44330707
:10035400F5406375F500D8401D8F2A9763EBE902D9
:100364008355240003450400976001E0E78080F092
:100374005C40E38107EE1044D440B2973E8763E4C7
:10038400C70063E4D7003387D74018C4228B4044A6
:10039400F1BD03A74A027DDB63EFA7023385A740C3
:1003A4008347040085E317270000034707FA511722
:1003B400B307A7003E85D44063E4E70063E4D700B5
:1003C4003385D74083278A00E372F5FC9727000022
:1003D40023ACA7F265BFD840BA97C9B737C7004066
:1003E4008326C720B707FCFFFD17F58F2326F720C8
:1003F4000F10000097270000938787F0C84B8327CE
:1004040087262326D7206A0593C7F7FF99835D8D36
:10041400828017270000130767021443411122C486
:10042400BC4206C63A849983858BA5C3930700060C
:10043400BCC29727000083C7A70093F707049DC792
:10044400972700009387C7F29C4382979727000061
:1004540023AEA7FE97270000938787FE83C7070074
:1004640093F7F70B17270000230CF7FC97270000DE
:1004740083D787FD99CB17270000130727FE18435E
:100484007CD397270000239107FC18403C439183B9
:10049400858B91CBC1473CC397270000938707FC0A
:1004A4009C4323A20706972700009387E7F8984305
:1004B4005C438583858B99C323220700B240224481
:1004C40041018280B9377300203097270000A38947
:1004D40007F697270000938767F8944317270000CF
:1004E400130707F683470700858B99E783471700AF
:1004F400858B99E3FC52FDF7828083471500939620
:100504000701C1821387260081CF972700009387B4
:10051400E7F49C43BC4B9583858B99C31387660092
:1005240093063700AA9603C6060005488547137646
:10053400F6076311060591C52A9783472700238090
:10054400F500834715009DC797270000938707F19F
:100554009C43B84B81471583058B09CF03C706001D
:1005640085461376F7066319D600620761876353DD
:100574000700B9473E8582809947EDBF011197274F
:100584000000238007EC26CA97270000A38B07EA04
:1005940097240000938404DADC504AC806CE22CCA7
:1005A4004EC62A892E85B28595C7B7E700E037077E
:1005B400200023A0E728B7F700E003A707D16D9B2D
:1005C40023A8E7D003A707D11367870323A8E7D09D
:1005D40073005010854797290000938929E6172452
:1005E40000001304A4E76317F9060146976001E0CD
:1005F400E780C0DC83A709009C43A1838D8BB9E706
:100604001C4013076019F8D3DC5099CB37F700E08E
:10061400832707D193E787002328F7D0730050106E
:100624001440172700001307A7E183472700858B91
:1006340099E783473700858B99E3FC52FDF7F24035
:100644006244D2444249B249056182801C40130786
:10065400E01B55BF976001E0E78000CF83A7090046
:10066400B70600019843558F98C3D85B719BD8DBBC
:10067400E31C09F897270000A38407DC1C40094702
:1006840098C359B797270000938747DD9C43984741
:10069400D447758F98C79316D70063DE0600FD56BE
:1006A400B4D7972600009386A6C5D44A8506172694
:1006B40000002321D6C6937687008DC697260000B6
:1006C40083C626D893E6160017260000230BD6D639
:1006D40097260000938686D69042545AF19A93E660
:1006E400160054DA937617008DC69726000083C649
:1006F40036D593E6160017260000A303D6D4972612
:1007040000009386A6D39042545AF19A93E61600B9
:1007140054DA93766700A9C6118B97260000938656
:1007240026D297250000938565D14DCB9841184377
:1007340021830D8B4DE3D84A0347170025E71307A0
:100744007006D8CF83C7060093E717001727000069
:100754002308F7CE98415C5BF19B93E717005CDBC1
:100764009727000083C747CFCDC397270000238571
:1007740007CE972700009387A7CE9C43ADCB4111AA
:1007840006C6829797270000938707CD83C7070083
:1007940093F7F70F89E79727000023A307CCB2400C
:1007A40041018280B04B1376060201C6130750073D
:1007B40049BF05466315C7001307B00659B7094674
:1007C4006315C7001307F006ADBF0D46E310C7FE5F
:1007D40013073007BDB713076007A5B783C73600F3
:1007E40093E7170017270000A30DF7C4A5B79727B1
:1007F4000000938767C683C7070093F7F70F91E755
:100804009727000023AE07C482808280A53D730031
:100814002030B7E700E08C433707200023A0E71817
:10082400F98D0F10000097270000938727CC03A3AE
:100834000700972700009387E7CA83A8070081462B
:100844009A8763F6170D03A807006367F50C6365C1
:10085400A80C13878700636CE50A03D66700216739
:100864000507631BE600172700000347C7B6050703
:10087400172600002301E6B617250000130545A836
:1008840003D64700035745002393070032974207D6
:100894004183172E00002317EEA6638C67021723EB
:1008A4000000130363C4032303006304F30203D3AC
:1008B40066006310030283D7460023A006012107C4
:1008C4003E9621062392C60097270000239CE7A2A8
:1008D400B6879843630D1703972600009386C6C016
:1008E40094426306D7028356670095E283D6470095
:1008F400035647001843A106B2962392D70098C323
:1009040083574500A10717270000231DF79EB7E76B
:1009140000E023A0B7108280BE86C2871DB7972748
:1009240000009387E7B1DC4B9385150295859843C6
:10093400FD1518C1D84358C1984718C5D84758C59C
:10094400984B18C9D84B58C9984F18CDD84F58CD83
:1009540091C51305050293870702D1BF82809727AB
:1009640000009387A7AF98433C5BFDFF01000100A3
:100974008280011197270000938787B722CCC05F3C
:1009840026CA06CE2AC42EC6854419E40145F2407F
:100994006244D24405618280834791000347140076
:1009A400858B6304F7000044CDB719469305A10075
:1009B40013052400EFF0EFF9E31795FE0545C1BFD9
:1009C4009307000C01116314F50493078008F3B72F
:1009D400078093F787083EC00F100000B717004048
:1009E400130770052380E704130780FA2380E704C4
:1009F4000F10000098271367070C98A7238007049B
:100A04008247F3A707800F10000005618280B717A3
:100A14000040B827118B69EB83C6E70413078008ED
:100A240093F6F60F733607801376860832C20F10DA
:100A340000001308700523800705930580FA2380BE
:100A4400B7040F10000003C6E704136636002387BB
:100A5400C704B02713664600B0A7238007041246D4
:100A6400732606800F10000090271376F60F733755
:100A74000780137787083AC40F1000002380070506
:100A84002380B7040F10000098271367070C98A75A
:100A940023800704A247F3A707800F100000A5478F
:100AA4000100FD1793F7F70FE5FF93078008F3B7ED
:100AB400078093F787083EC60F100000B717004061
:100AC400130770052380E704130780FA2380E704E3
:100AD4000F10000090A72387D70423800704B24790
:100AE400F3A707800F1000009377050C1307000489
:100AF4006399E70893078008F3B7078093F787089B
:100B04003EC80F100000B71700401307700523807C
:100B1400E704130780FA2380E7040F100000B827C6
:100B2400854613670701B8A737270040A303D7807A
:100B34008346578093E60601A302D78023800704E7
:100B4400C247F3A707800F10000093078008F3B78C
:100B5400078093F787083ECE0F100000B7170040B8
:100B6400130770052380E704130780FA2380E70442
:100B74000F1000001375F50F88A723800704F247B0
:100B840049B59377F5019DCF93078008F3B70780A4
:100B940093F787083ECA0F100000B71700401307E9
:100BA40070052380E704130780FA2380E7040F10FD
:100BB4000000372700408946A303D7802380070419
:100BC400D24741B793078008F3B7078093F78708A4
:100BD4003ECC0F100000B7170040130770052380A8
:100BE400E704130780FA2380E7040F100000372777
:100BF40000409D46A303D78023800704E24791B7B2
:100C040041118146014681451145972000E0E78066
:100C1400A09313078008F337078093F787083EC42F
:100C24000F100000B7170040130670052380C70497
:100C3400930680FA2380D7040F100000FD55CEB729
:100C440023800704A245F3A505800F100000733725
:100C54000780137787083AC60F1000002380C70463
:100C64002380D7040F10000003C76704136717001D
:100C74002383E70423800704B247F3A707800F10F8
:100C8400000001A04111B7170040985F3AC6945F75
:100C94003247E39CE6FE324541018280B7E700E03B
:100CA4003707001023A0E7208280B71700401307FE
:100CB40000032388E70273002030411106C6EFF0D9
:100CC4002FCEF5BF230304801547A2872303E480B6
:100CD400010001002302A48003C7678062076187C3
:100CE400E34C07FE2382A780228783476780E207BD
:100CF400E187E3CC07FE82802303048015472303A6
:100D0400E480010001002302A480828083076480C0
:100D1400E3CE07FE23030480828083076480E3CE4E
:100D240007FE03454480828083076480E3CE07FE88
:100D34002302A4808280411126C44AC24EC006C642
:100D44001377F50BAD47AA892E8995446306F700FE
:100D540019455D37653F8D444E85793FFD59FD1436
:100D640063983401B240A24412498249410182800D
:100D7400135509011375F50F453F2209CDB701112C
:100D840026CC06CEB704080051371545B537713760
:100D940069372AC6A53F32459377150089EB136559
:100DA40015001375F50FF240E24405618280FD14CD
:100DB400E9FC0145CDBF411106C6B7170040130732
:100DC40070052380E704130780FA2380E70403C730
:100DD40047041305F00F1367070E2382E7049147B6
:100DE4002303F480C535B24041010DB7011126CC6F
:100DF4004ACA4EC852C606CE2A89AE89B284554A1A
:100E04005D3F91E82137F24026855249E244C249C8
:100E1400324A05618280CA850945313F910903A799
:100E2400C9FF91472320E48003076480E34E07FE53
:100E340023034481FD17EDFBFD14110981C493774D
:100E4400F90FE9FF2D3F55FDFD5475BF011126CC67
:100E54004ACA4EC852C656C45AC206CE2A89328AD3
:100E64008D49913FC164C16A056B9387F4FFB3F761
:100E7400270199E363719A02FD199180E39709FEB2
:100E840071350145F240E2445249C249324AA24A0C
:100E9400124B056182801305800D6388540113058C
:100EA40000026384640113051008CA856935C13DD5
:100EB40009C52699330A9A4075BF7D55E1B70111DA
:100EC40006CE26CC4ACAB2844EC82AC62E89E53537
:100ED4003245FD14FD59AA852D45B13D639A34016F
:100EE4003535F24026855249E244C2490561828083
:100EF4002D3593F7340091EB8326048003270900F2
:100F040093074900E39EE6FC3E89FD14C1BF01112D
:100F140006CE2AC64D353245C533F2400561FDB3D0
:100F2400011106CE26CC4ACA4EC852C6AA8956C456
:100F34002E895135B7050400B3E5B9002D45E53BCD
:100F440081448D4A214AD13B63965401832704800E
:100F54002320F9008504E39844FF83270480139732
:100F64002901635C07002312F900F240E24452496C
:100F7400C249324AA24A056151BB2322F900F5B79E
:100F8400411106C626C44AC24EC0AE892D358145DC
:100F94001305B0044D33BD447D59413393F77400B8
:100FA400CE9703C70700FD14398D2380A700E3966D
:100FB40024FFB240A24412498249410181BB41113C
:100FC40006C6D53B13056006053B89331305900916
:080FD4002533B24041011DBBB1
:100FDC00971100209381C1A3172100201301C10197
:100FEC001305400097F5FF1F938505011706002098
:100FFC00130606FE63FAC5008322050023A05500E4
:10100C0011059105E3EAC5FE176501001305854638
:10101C00970500209385C5FB1386818863FAC5006C
:10102C008322050023A0550011059105E3EAC5FEB6
:10103C0013858188971500209385C5506377B5007B
:10104C00232005001105E36DB5FE93025002739049
:10105C0002BC8D42739042808542739012BC930205
:10106C0080087390023097F2FF1F9382E2F893E2AC
:10107C00320073905230971200009382A246739004
:10108C001234730020302A8309CA8383050023009D
:10109C0073007D16050385056DFA82802A8311C6BF
:1010AC002300B3007D16050365FE828037170040D0
:1010BC008347E70412054111BD8BC98F93F7F70FD6
:1010CC0093068008F3B6068093F6860836C60F1092
:1010DC000000930670052300D704930680FA2300C2
:1010EC00D7040F1000002307F70423000704B247AE
:1010FC00F3A707800F10000041018280011126CA5E
:10110C0006CE22CC8947B314A02863F9A7009547D3
:10111C0063E4A70A93042500B3149028B717004082
:10112C0003D70705B166558F2398E704130780088A
:10113C0073370780137787083AC60F100000130720
:10114C0070052380E704130780FA2380E7040F104F
:10115C00000003C737051375F50F13670708A3893C
:10116C00E704A389A70403C7370513670702A389FC
:10117C00E70423800704B247F3A707800F10000091
:10118C00B717004003D7070513175760E35C07FE3A
:10119C0003D4070583C727054A04BA0749803E9440
:1011AC007D2C33549402F240D24433558502624470
:1011BC0023A4A18805618280994793040040E30F22
:1011CC00F5F49304F07F99BF41113A8E2A8381483C
:1011DC00930E407E130F0019930F400663EF6E14AD
:1011EC00130700193377E502854E0D4F994FFD42D9
:1011FC0063E1BE1861477D1603A581884696AA85D2
:10120C00B3F6E602130780703387E602F946330E15
:10121C00DE0293D61700858B7297369791E3814542
:10122C00B307A602A166FD161306302A13D8F700E1
:10123C00F58FB387C7021166B385A5023307A702E2
:10124C00B29513F6F71F1E06BD81A583F98EB3A6C2
:10125C00C6203D83AE96BA9713D70601BA972D6771
:10126C001307078C33D6E702B3C6060833F7E70239
:10127C0042964207558FB716004083C7F60293F784
:10128C000708DC838C8383C7F60293F70708E39681
:10129C00F5FE9C83B7160040638107129307800804
:1012AC00F3B7078093F787083EC40F100000B717F9
:1012BC000040930670052380D704930680FA2380A0
:1012CC00D7040F100000D0DB83C6170393E6060883
:1012DC00A388D70223800704A247F3A707800F1027
:1012EC0000001166B71700407D16D45BCC5FAD8E45
:1012FC00F18EE5FE93068008F3B6068093F6860819
:10130C0036C60F100000930670052380D704930691
:10131C0080FA2380D7040F100000D8DB03C7170313
:10132C0013670704A388E70223800704B247F3A7D7
:10133C0007800F100000410182807D133377E30397
:10134C001308E01601CF3377F3031308D01619C72F
:10135C0013783300133818001308D816C298BDBD83
:10136C0013F81500F91563FBBF029305E801AE985D
:10137C009A851383F5FFE395E5FF854501CF1308A7
:10138C0040063378050381456306080093753500E4
:10139C0093B51500F105AE989A8599BDB3850241B8
:1013AC00DDBF83C7F60293F70708DC838C8383C702
:1013BC00F60293F70708E396F5FE9C83FDD3F9BD7F
:1013CC000D06719A81473307F5006393C70082803D
:1013DC0014433387F500910714C3F5B7914763ECB9
:1013EC00B7049747010093872744B3C5F52098416C
:1013FC003E97B71700409387470B028794433717E4
:10140C000040B3F6A64094C39306070B9C42B3F777
:10141C00A74019A8944337170040B3F6A64094C3CD
:10142C009306070B9C42C98F9CC29307070A9843EB
:10143C003377A74098C38280944337170040C98EF6
:10144C00D9B798433377A74098C3B7170040938711
:10145C00070A9843498FF9BF9843498FF5B7B717D7
:10146C00004098279306000C1377070C6315D700E0
:10147C0003A5818882809827930600041377070CB4
:10148C006310D702942713070002FD8A99C298278C
:10149C007D8B3745C323130505603345E5028280F8
:1014AC00942713070002FD8A99C298277D8B375524
:1014BC00E80113050580D5B7B7F700E088478280AF
:1014CC003285814737370040A14663C3A70082802D
:1014DC000346B740E30ED6FE3386F500102285078F
:1014EC002304C740DDB797060020938666D2AA87EF
:1014FC008842171700201307E704AA9763E9E7004F
:10150C000A87130707FC6364F7009CC282807D5531
:10151C008280411122C406C62A8491372947B30719
:10152C00E502B2408D83B3D7870222449507B3D727
:10153C00E70237370040B3C707082316F7404101CD
:10154C008280716541111305052006C6D937B7375E
:10155C000040130710F82381E7400D47A381E740B3
:10156C0013070004A380E74005472387E740B240F8
:10157C0041018280371700403E2FB3C7070893F70D
:10158C0007FCB3C707083EAF09C93E2F8E055D8E19
:10159C00D18DB3C505082EAF8280828032852D4651
:1015AC0005EBDC4198239C33A207D98F0D671306FA
:1015BC0097A16391C702938761809023130720033F
:1015CC006303E60098A39C2305479AA21CA101463D
:1015DC0032858280130787902946E39BE7FECC4532
:1015EC008947411109469EA206C697F0FF1FE78066
:1015FC00C0AEB2400146328541018280DC414111CE
:10160C0022C406C626C203C807009C332944A2077D
:10161C00B3E707010D681308289063940703854707
:10162C00B284EF40700B2A8409ED03A7C18811CB5B
:10163C009C309420A207D58F93B717001385170001
:10164C000297B240228522449244410182805C215F
:10165C00858BA9CF011122CC2A842A2193858199CB
:10166C0006CEEF409002058915CD2A200147814610
:10167C000546ED45EF40203C2AC60DC597070020D6
:10168C0083D767987C8485477C8583C761801CA140
:10169C002A2001462C00EF50205909C5ED452800A1
:1016AC00EF400051F24062440561828082804165C6
:1016BC004111938581997D1506C6EF602047B24094
:1016CC00970600209386C690414695451705002045
:1016DC001305C59041016F60003B23A6A188828051
:1016EC00411122C406C6094419E91C222A84170593
:1016FC000000130505F62383F180EF70007FB240E4
:10170C0022852244410182800947AA87630CE500A7
:10171C000D47630FE500094585EF83C761809CA1E8
:10172C00014582809707002083D7E78B9EA1CDBF10
:10173C009707002083D707AEDEA197070020938779
:10174C00E789BA37BE3F9AA1BEA18547FCA1C9BFA4
:10175C00828093876180942313072003638FE600B4
:10176C00411106C6170500001305A5EE98A3EF70EE
:10177C00C077B24001454101828001458280C1673A
:10178C00F917630CF502411122C406C685472A8459
:10179C00639AF50022852244B240938581994101D8
:1017AC006F60C03889476396F5008545EF70606EB1
:1017BC0075D1B24022444101828082804165411141
:1017CC009385819A7D1506C622C426C24AC0EF6055
:1017DC00E03597060020938666854146C945170576
:1017EC00002013056585EF60002A97040020938480
:1017FC00A484CC4C2A890945013F1384819B83D74F
:10180C00C1805EA083D7A40C03D781805AA41EA0EC
:10181C0083D7A40D03D7A4109385819C3EA00D45BE
:10182C0085477CA01AA47CA423150400F13DA28555
:10183C000D45BD2EB240224492444A8502494101D5
:10184C0082808D679387D7A4631DF6008D47294549
:10185C00639AF500854735456396F6001C2323886B
:10186C00F188014582808D679387D7A40145631960
:10187C00F6008D476396F50083C701891CA30545C7
:10188C008AA2014582802A8783C7018A03A5418ADF
:10189C0083C6F18099E30145828012216315E6002D
:1018AC007021E30BD6FEFD1793F7F70F2105DDB77B
:1018BC00B2862E86AA85174501001305E5F96F201F
:1018CC00113C011193050003094506CEEF302008A9
:1018DC00930500050D45EF3080079305C0030545C2
:1018EC00EF30E00685471306F100854513055030AF
:1018FC00DC87EFE0000EF24005618280854763983B
:10190C00F50019E22386B18A2384C18A82800947B3
:10191C006395E50019E22386F18A82808547631A74
:10192C00F5001166130686A9894503C5418B6F1016
:10193C00601589476317F500894503C5418B6F1006
:10194C0060368280011122CC06CE83A7C1892E84F9
:10195C0099C79C4789C76244F240056182876C0035
:10196C0013057040EFC0C069324622858145EFC037
:10197C00B049F240624405618280011126CA06CE4C
:10198C0022CC4AC84EC652C4AE849397556063D3DA
:10199C00070803C5418BEF00505B2A8429C9182125
:1019AC009307000D6312F7043C214547638BE70452
:1019BC006547639BE70217450100130525ECEF20F3
:1019CC00112C130954009309B400174A0100130A8F
:1019DC002AEC8345090052850509EF20512AE31AA8
:1019EC0039FF2945EF20512D2285EF00304A139500
:1019FC00F468F2406244D2444249B249224A056139
:101A0C00828070216C31174501001305E5E8EF2049
:101A1C001127D9BF93F7150085C317F6FF1F1306BF
:101A2C00667497F5FF1F9385257303C5418BEFD023
:101A3C00104D13C5140075BF13F525005DD9113B6E
:101A4C001166130686A9894503C5418BEF108003E7
:101A5C0013C5240079BF797122D44AD052CC06D652
:101A6C0026D24ECE56CA91472A842E89138A018BD0
:101A7C00631AF502BE252395F18A2386018A83A772
:101A8C00C18991C7DC4781C7CA85228582972320EB
:101A9C008A00B250225492540259F249624AD24AF4
:101AAC004561828003270A00E31BF7FC9384A18A1B
:101ABC008A208545E93183DA0400C167F917639AF6
:101ACC00FA0285449305E100130550412386018AEF
:101ADC00A387918023070100EFC080521C87A1E3EC
:101AEC0003C7818A9147E31CF7F8E13B2384018A01
:101AFC0079B783A9418A83C4018AE1D403D529002B
:101B0C0011C99305E100EF40101B09C54C455685E2
:101B1C00EF60C001FD1493F4F40FA109F9BF83A782
:101B2C008189DC23898BCDDF9305000A0945EF20E1
:101B3C0010629305000A0D45EF2070618145054543
:101B4C00EF20F0601306E100854513055030448703
:101B5C00EFD0306871B7011117050000130525E2AD
:101B6C0006CE22CCEF1060471384418B85471306B9
:101B7C00F100854508A013054041DC87EFC0806D5E
:101B8C007D55EFD080767D55EF5070770D3617056B
:101B9C0000001305E5D8913608206244F2408545D3
:101BAC0005616F40216C23AEB18823ACA188828083
:101BBC0023A2B18A2380A18A8280797106D622D48D
:101BCC0026D24AD04ECE52CC83A7018B1147639AB2
:101BDC00E70A83C7C18A99EB4144B250228522544B
:101BEC0092540259F249624A45618280B284B689A4
:101BFC0003A4418A83C7018A03C7F18085C354209B
:101C0C006390A6025430639DB6007420639AE6007C
:101C1C002A2093056100EF40100A01E9554475BF75
:101C2C00FD1793F7F70F2104D1BF1389A18A4C45F7
:101C3C0003550900EF40602505896DD10355090056
:101C4C00014781462686ED45035A0400EF30B05E0D
:101C5C002AC64D4459D12686CE852314410164856C
:101C6C0097E0FF1FE78060470355090001462C00F1
:101C7C00EF40907B2A8435D1ED452800EF3050732E
:101C8C00A9BF0947E38AE7F42C001305504123044C
:101C9C000100EFC0E0361C8485CB9305000209459A
:101CAC00EF20F04A930500030D45EF20504A95456F
:101CBC000545EF20D0498547300085451305503048
:101CCC005C84EFD0105109BFED3E39B741114AC0C9
:101CDC003689D44126C206C622C48032B2849022F0
:101CEC0022040D68518C01CF1308B8A42D45630450
:101CFC000407B24022449244024941018280930677
:101D0C00D8A4630FD400930628A2630BD400F578F3
:101D1C009388E85CA2988546B3C8080863E9160363
:101D2C00AA2595360DC183A7C1892286224403A812
:101D3C0007004C31B2404821A6874A879244024999
:101D4C008546410102882310090001455DB7130641
:101D5C00B8A46317C40203D881811D45E37B07F93E
:101D6C00CC453308E840B347F80ABA952310F9007C
:101D7C0033C60708268597E0FF1FE7800036F1B7CA
:101D8C009307A8A46318F40091472310F900114697
:101D9C00CC45CDB7930788906317F400894723107F
:101DAC00F9000946F5B79307E8A46318F400DC457D
:101DBC002310D9009C239CA049BF13087890E316EC
:101DCC0004F9E9BF011106CE22CC26CA4AC8748791
:101DDC0063140710DC412E89B284803394238D6701
:101DEC002204558C9386D7A46306D400938627A32C
:101DFC00631AD4020355A900793401E90145F24074
:101E0C006244D24442490561828083A7C18903A8F8
:101E1C0007004C314821A6871307E1008146228632
:101E2C000298F1BF9386C7A46312D4023887854702
:101E3C003545E316F7FC1C2213050008E361F7FC9B
:101E4C0003A7C18958433E8502974DBF93862790BF
:101E5C00631DD40434878547EF4000084DF1903062
:101E6C009C208356A90022065D8E03A7418A83C756
:101E7C00018AC9D72E236395D50283A7C18903A8EC
:101E8C000700854748234C338D466313F60089467B
:101E9C000D66A6871307E100130626900298B9BFBA
:101EAC00FD1793F7F70F2107E9B79387E7A4E3171B
:101EBC00F4F4388785473545E313F7F41C221305F2
:101ECC000008E36EF7F2D8453335F00009051CA382
:101EDC0003A7C18958438DBF2D4515B7B287411152
:101EEC0013962500BE8506C6EFF08FCDB240014596
:101EFC0041018280011122CC26CA939625002A84A6
:101F0C00B284AA850146054506CE36C63525B246AD
:101F1C002686A28509450D25F2406244D24401452E
:101F2C0005618280411122C406C62E8493975560A8
:101F3C0063DD0700EF00700119C1EF002075131568
:101F4C00F468B24022444101828093F7150013C516
:101F5C001500E5FB8967ED8F99CFEF90303737F699
:101F6C000200130606E0896503C5C18BEF009031B2
:101F7C001315D468F9B711656D8D61D5174501003E
:101F8C0013054593EF20417113060064916503C559
:101F9C00C18BEF00302F1315E46865B75D715D469A
:101FAC00974501009385459117450100130545B3ED
:101FBC0086C6A2C497E0FF1FE780201901E91745E8
:101FCC0001001305E590EF20216D01A0B7F700E0AB
:101FDC0023A40700795798CB3D4798C393078008F3
:101FEC00F3B7078093F787083EC00F100000B717B0
:101FFC000040130770052380E704130780FA238041
:10200C00E7040F100000B847B70600C1FD16758F26
:10201C00B706000E558FB8C7238007048247F3A775
:10202C0007800F10000097E7FF1F9387276523ACED
:10203C00F18A130700F8B7E700E0A38AE74013061C
:10204C0040038145680097E0FF1FE780E00C97F79D
:10205C00FF1F9387E73805643EC6930704E0FC80B6
:10206C00E17793C727812310F102B7B703003ECA6B
:10207C00B7070103938707103ECCED47FC868547D5
:10208C00230FF10097070000938787E53EDCB7F537
:10209C00030097070000938727E63EDE814697F7FB
:1020AC00FFFF9387A7415000E10519453ED66921F2
:1020BC0019464C0013053102EFE0FFFCB24791C703
:1020CC00BC801304F4BF6363F40001A06800EF004C
:1020DC009074AA8501C9174501001305A580EF204E
:1020EC00013A01A0B6402644616182804111170576
:1020FC000000130565E306C622C4EF00106E1384BE
:10210C00C18B08A0112808202244B24013060032CB
:10211C00896541016F001017397126DA06DE22DC61
:10212C004AD84ED652D493048008F3B7048093F760
:10213C0087083EC20F100000371400409309700549
:10214C0023003405130980FA230024050F10000026
:10215C008347F40293E71700A307F4022300040457
:10216C009247F3A707800F1000001945EFE01FF905
:10217C00138A018CAA852320AA00173501001305A8
:10218C006578EF20C12F014781467146854581470F
:10219C001305507EEFF04F839307803EFC8383271B
:1021AC000A006800FC82B707C0A83EC897F7FF1F5B
:1021BC009387C7AC3EC697F7FF1F9387A7AD3ECE5C
:1021CC00EF10A010F3B4048093F4840826C40F100D
:1021DC00000023003405230024050F10000001002B
:1021EC0001008347140393E70702A308F4022300BA
:1021FC000404A247F3A707800F100000F2506254AA
:10220C00B7E700E03707001023A0E710D25442597B
:10221C00B259225A2161828082803D897D15954771
:10222C0063E6A70E17370100130707793345E5203E
:10223C001C41011106CEBA9782872C001305403041
:10224C00EFD060692C000545EF306029173501008F
:10225C001305456CEF204144F24005618280B821A2
:10226C008D47173501001305E56BE317F7FEF240B8
:10227C0005616F206142B8219547E31FF7FCBE252D
:10228C000D6613060620914503C5B182239DF1808E
:10229C00EF00407F173501001305C569C9BFB82190
:1022AC008D47173501001305A569E317F7FAC1B778
:1022BC00BC211147173501001305056A638CE70231
:1022CC0019476392E702EC21173501001305856A63
:1022DC00EF20E11A854730008545130550305C84AA
:1022EC00EFD0206F95BF1547E396E7FE1735010039
:1022FC001305056AEF20413AF1BFF240AC211735C6
:10230C0001001305656A05616F20611782803688AC
:10231C00BA863E876315080094226FF08FD28547EA
:10232C006314F8006FF02FD48947631FF800411134
:10233C001306401F894503C5B18206C6EF008074A1
:10234C00B24001454101828001458280011122CCBD
:10235C0006CE2E849397556063DD070003C5B182CA
:10236C00ED2611C125261315F468F240624405616F
:10237C00828093F7150013C51500E5FB93F7450014
:10238C0099CF83C7B1821307401F81462146A145CF
:10239C0003D5A181EFD0A03113454400F9B793F7D1
:1023AC0085009DC3014789460946814503D5A18116
:1023BC00EFD01004AA851735010013056561EF20D5
:1023CC00010C1345840055B713F5250059DD93070F
:1023DC00001074000946854505457C86EFF0EFFD3D
:1023EC00740009468545054523160100EFF0EFFC06
:1023FC0013060064894503C5B18269251345240081
:10240C00ADB7011117050000130585F406CE22CCDB
:10241C0026CAEF00903C9384B182054488A07000DA
:10242C008545130550304086EFD0A05A1386418263
:10243C009D4513056030EFD0C05917F6FF1F1306EA
:10244C0026D4F54513057030EFD0A058173601008F
:10245C0013068659D5450145EFC010588D477000BD
:10246C009145130570405C854084C08502C6A30469
:10247C000100EFB0305E3000854513050040EFB031
:10248C00705D13069100854513051040EFB0905C0C
:10249C001306A100854513052040EFB0B05B130671
:1024AC00B100854513055040EFB0D05A9307C003D7
:1024BC007000854501455C86EFF08FA2EFF00FB000
:1024CC0097F5FF1F9385C5CA1385C181EFF0AFED5A
:1024DC0062448820F240D244854505616F309158A2
:1024EC004111194506C6EFE07FBC1305600497E067
:1024FC00FF1FE780604CB7170040214723ACE70A69
:10250C008D452145EFE09FED014681450545EFF0F6
:10251C006F86EFF00F83173501001305655CEF2014
:10252C00A117AD3CE136EFD0E06CEFF0CFE2D13D3E
:10253C0097E0FF1FE780E07701112A8706CE2E85F2
:10254C0026CCB2854ACA368622C637240040B7E765
:10255C0000E0FD5603A90700C44323A0D71823A20B
:10256C00D7189307F7FF93F7F70F894663E0F60A3E
:10257C00B717004083C75704B706040093F7070248
:10258C0099E3B7C60300F9576375D5043308C50042
:10259C0063E1060589476314F704098297F0FF1F6E
:1025AC00E7804084AA873717004093067005230004
:1025BC00D704930680FA2300D70483464704C18AC4
:1025CC002302D70437E700E023202711232297109A
:1025DC003244F240E24452493E850561828085478F
:1025EC00631FF7008567FD173E96E98F3E96FD77D2
:1025FC007D8E7D8D97F0FF1FE780C08465B797F0C7
:10260C00FF1FE780408B9307150071BFB547631A16
:10261C00F7001305900B97F0FF1FE780C08E8147E2
:10262C0059B7B1476315F7001305B00AEDB79947D1
:10263C006317F70097F0FF1FE780008ECDB79D471B
:10264C00631BF70023A0050023A2050097F0FF1FD2
:10265C00E7808092E9B791476317F70097F0FF1F67
:10266C00E78060956DBF81471DDFF1572DBF23AC0F
:10267C0005FE1C4191E7010001000CC18280BA8764
:10268C0003A787FF6DFF23ACB7FE8280411122C4E4
:10269C0037E400E026C204403707200006C6F98C58
:1026AC002320E4180F10000009E92320941015458D
:1026BC00B24022449244410182800347E5FF9307D4
:1026CC00F00F6306F700232094101145D5B797E05F
:1026DC00FF1FE7808013014523209410D1BF4111C7
:1026EC0026C2B7E400E04AC003A90400B7072000E3
:1026FC0006C622C43379F90023A0F4180F10000089
:10270C0009E923A02411B240224492440249410118
:10271C0082809565938505D0C98D2A842105C205D3
:10272C004205C1814181EF30716301CDFD572320FA
:10273C000500231285002303F50023A02411210595
:10274C00D9B723A0241101457DBF4111B7E700E0A3
:10275C0026C284433707200006C622C4F98C23A066
:10276C00E7180F10000097070020938767B8904375
:10277C0001440147B28789E709E8A16525233DA0FB
:10278C0083C6E7FF639EA60229C0832684FF6310DD
:10279C00C40417070020232DD7B47D57232C04FE27
:1027AC00230FE4FEF9DBA165EF30D12B2285B2407B
:1027BC002244B7E700E023A09710924441018280A5
:1027CC0011E03E8783A787FF7DB73E84E5BF232CAE
:1027DC00D7FEE1B741114AC037E900E022C4032417
:1027EC0009003707200006C626C2798C2320E91879
:1027FC000F10000089E523208910154515A0AA8427
:10280C009707002083C717AF2E8563F5F400854723
:10281C0063EE9700A53DB7E700E023A087100D45B8
:10282C00B2402244924402494101828083A785FF31
:10283C0099E703C7E5FF9307F00F6308F700B93575
:10284C00B7E700E023A087104DBF238F95FE170537
:10285C0000201305E5A9213DA1652685EF309120C7
:10286C000145232089106DBF9707002023A207A8DC
:10287C00828093F7F50FB5C341114AC006C622C436
:10288C0026C22E890147A146B357E940858BA9C3BF
:10289C000E05B307E5003145B387A7029706002064
:1028AC009386C6AB844205443314E4004204418051
:1028BC00BE949C40C840829723A0040023A204002D
:1028CC0033452401B24022449244024941018280A2
:1028DC000507E31BD7FA0144E5B7014582800111D6
:1028EC00B7E700E022CC80434AC83707200006CE69
:1028FC0026CA2A892E86798C23A0E7180F1000008F
:10290C00131506019305F004418132C6EF301145D1
:10291C00AA8419C53246CA8597D0FF1FE780E07B91
:10292C00B7E700E023A08710F240624426854249B5
:10293C00D244056182801D898545B395A500C205E9
:10294C004111C181014506C6EF30216A09C5084510
:10295C00B240410182800145E5BFB7E700E09843F2
:10296C00B706200023A0D718758F0F10000097060C
:10297C00002083C636986375D5021706002013060F
:10298C00269A93161500084293C5F5FF3695835683
:10299C000500F58D2310B50023A0E71001458280BA
:1029AC0023A0E7100D458280011137E700E026CA0D
:1029BC000443B706200006CE22CC4AC84EC6F58C7E
:1029CC002320D7180F100000130785FF1377F70F7C
:1029DC009D4763E3E70AB146B306D502970700208B
:1029EC009387C797984336971C43D9C705441D89CD
:1029FC003315A4001314050141802E890545A285C9
:102A0C00EF30A15EAA8929CDA2850545B937970774
:102A1C0000209387A7909C4382979707002083D729
:102A2C00E794338727032A84814613060064B3B7DF
:102A3C00270313050732B335E500BE95EF10816A05
:102A4C00B3078500970600209386C6913E87D44233
:102A5C0063E4A70063E4D7003387D74023A4E900DD
:102A6C00B7E700E023A097100145F2406244D2443E
:102A7C004249B24905618280B7E700E023A0971074
:102A8C000945E5B779714AD037E900E026D28324AD
:102A9C000900B707200006D622D44ECE52CC56CA17
:102AAC005AC85EC6FD8C2320F9180F10000097073A
:102ABC00002083C73784637AF5009707002093873B
:102ACC00E78583AB070063970B00B7E700E023A013
:102ADC009710A9A0170B0020130BCB88832A4B004F
:102AEC00B74736FE938707C82E8A9705002083D5F3
:102AFC00E587BE9AB387C5022A84B2898146B3B5ED
:102B0C00C50213850732B337F50013060064BE9572
:102B1C00EF10415D63F0AA02232099100145B250D9
:102B2C00225492540259F249624AD24A424BB24B55
:102B3C0045618280829B9705002083D52583B387CE
:102B4C0035032A89130600648146B3B53503138512
:102B5C000732B337F500BE95EF10C158B307250106
:102B6C003E8903274B0063E4A70063E4E700338945
:102B7C00E740D2852285EF30414709C9232425013E
:102B8C00B7E700E023A09710054551BF936504F00B
:102B9C00C205C1814145EF30711C19E997F7FF1F40
:102BAC00938787789C5795D3A2851145829731BF1F
:102BBC0097F7FF1F938707779C438DE397F7FF1FCA
:102BCC0023A2A776232605002324250123114501E2
:102BDC00230085002322050065B7BA87D84775FF07
:102BEC00C8C7CDB77971B7E700E026D28443370761
:102BFC00200006D622D44AD04ECE52CC56CA5AC841
:102C0C005EC662C466C26AC0F98C23A0E7180F10B6
:102C1C00000039CD2144B689B28A2E8A2A89B14C5A
:102C2C0017FBFF1F130B8B73054D414CB30B940318
:102C3C0003270B005E971C43A9EF93757400B31523
:102C4C00BD00C2055686C18105452D3D39C183277E
:102C5C000B00DE9723A0270123A247016384090000
:102C6C0023808900B7E700E023A09710014521A03D
:102C7C0023A097100945B250225492540259F2499C
:102C8C00624AD24A424BB24B224C924C024D4561A5
:102C9C0082800504E31C84F9B7E700E023A09710B9
:102CAC002145D1BF0111B7E700E04AC803A90700CD
:102CBC0022CC4EC63707200006CE26CAAA892E84FF
:102CCC003379E90023A0E7180F100000EF30E13151
:102CDC00AA8419C123110500A2854E85BD3997F729
:102CEC00FF1F83C72761639D370197F7FF1F9387EA
:102CFC00676083D767005D8C97F7FF1F239F875E04
:102D0C00B7E700E023A02711014591E01945F240F7
:102D1C006244D2444249B2490561828001114AC8D9
:102D2C0037E900E022CC03240900B707200006CEC7
:102D3C0026CA4EC67D8C2320F9180F100000BD4703
:102D4C0063E8A704B147B304F50297F9FF1F938911
:102D5C00E96083A70900A6979C439DCB93777500E8
:102D6C008545B395F500C205C1810D81253F83A72B
:102D7C0009000145A69723A0070023A207002320E2
:102D8C008910F2406244D2444249B24905618280C2
:102D9C00B7E700E023A087100945E5B797F7FF1FB9
:102DAC0093874755944763860610411126C2BE840B
:102DBC0097F7FF1F9387C7568C4306C622C44AC099
:102DCC0017F6FF1F03461653814763CFC70A17F741
:102DDC00FF1F03477766954717F9FF1F130989658E
:102DEC0063EEE70897F7FF1F83C74766C1EB17F43D
:102DFC00FF1F13042457584097F7FF1F9387075260
:102E0C009C43639BE60882975440B74736FE9387F2
:102E1C0007C8B6973387A7003A856364F7006364E5
:102E2C00D7003305D7408327490181CF97F7FF1F80
:102E3C009387C76294433707CDFF7D179C46F98F64
:102E4C009CC611E1484097F7FF1F9387E74DDC5371
:102E5C00829701E98327490195C3EF406108EF3060
:102E6C00517D8327490199CB97F7FF1F9387075F04
:102E7C009843B70633001C47D58F1CC7B240224479
:102E8C009244024941018280139717002E970357F1
:102E9C0007006DF7850715BF829794445840B38798
:102EAC00A6003E8563E4D700E3EFE7F63385E74001
:102EBC009DBF8280411106C697F7FF1F23A2A74A28
:102ECC000295B24097F7FF1F23AEA742014541017F
:102EDC00828097F7FF1F23A3A744014582804111ED
:102EEC001146814517F5FF1F1305054306C697F7D5
:102EFC00FF1F23A9074297F7FF1F23A3074697F746
:102F0C00FF1F23AD074097D0FF1FE780E02013067B
:102F1C000002814517F5FF1F1305C53D97D0FF1F14
:102F2C00E780801FEFC0D056C147854513050012BE
:102F3C0017F7FF1F2301F73CEF30416217F7FF1F14
:102F4C00232EA74041C9994717F6FF1F0346A63AFF
:102F5C003306F60281451306060C97D0FF1FE78057
:102F6C00A01B97F7FF1F9387673F9C439387070C22
:102F7C0017F7FF1F2320F73A17F7FF1F0347A73751
:102F8C000A07BA9717F7FF1F232CF738EFF0DF8DDE
:102F9C00392997F7FF1F9387E737984397F7FF1F58
:102FAC0083C7573593962700BA9617360100130638
:102FBC00460690C293862700850793F7F70F8A077A
:102FCC00BA9717F6FF1FA307D6321707000013078F
:102FDC00878A98C3B2404101828097F7FF1F83C74D
:102FEC00773117F7FF1F0347073163F3E70217F732
:102FFC00FF1F1307273218439386170017F6FF1F7E
:10300C00A30AD62E93962700369708C33E85828056
:10301C009307F00FE5BF1C41638A0712370700F0D6
:10302C007D8FB706002089476313D71203574500DD
:10303C00630F0710411122C419462A849305F00F1F
:10304C005D0506C6EF30410C05478D47630BE50E59
:10305C001C4491C7585499476DC718587DC3130623
:10306C004003814517F5FF1F1305052C97D0FF1F53
:10307C00E780800A13064003A28517F5FF1F13058E
:10308C00A52A97D0FF1FE780400597F7FF1F83D72E
:10309C00672A99E79307001017F7FF1F231CF728DF
:1030AC0097F7FF1F83C7272991E7854717F7FF1F5E
:1030BC002303F72897F7FF1F83D7072891E7ED47DE
:1030CC0017F7FF1F231AF72697F7FF1F83C7B7269B
:1030DC0091E78D4717F7FF1FA30FF72497F7FF1FF3
:1030EC0083C7A72591E7854717F7FF1F2307F72409
:1030FC0097F7FF1F83C7772499EB97F7FF1F9387E9
:10310C00A72283C7F70017F7FF1FA308F72297F72B
:10311C00FF1F83C7A72291E7C94717F7FF1F230F8C
:10312C00F7208347540199E79307400617F7FF1FD1
:10313C00A306F720FD5717F7FF1FA30FF7364533EC
:10314C008147B24022443E854101828089473E85B9
:10315C00828001114EC697F9FF1F9389A92083A77E
:10316C00090006CE22CC26CA4AC852C4829713093B
:10317C000064B335250303DA890081465286330592
:10318C002503EF00317697F7FF1F9387A716804B27
:10319C00AA8401456306940233858440636E9400CF
:1031AC0003A5490052868146B335A9023305A9020D
:1031BC00EF005173018D269597F7FF1F23A49714E9
:1031CC00F2406244D2444249B249224A05618280AB
:1031DC00011122CC0A852E84414697250100938546
:1031EC00A56306CEEFD03FEA180806043A940355BF
:1031FC0004FF97F7FF1F83D78717F2406244AA9703
:10320C0037450F00130505243355F50205618280FF
:10321C0097F7FF1F83D7A71551471D45637CF7020E
:10322C00794719456378F702130720031545637333
:10323C00F7021307B0041145637EF700130740062D
:10324C000D456379F7001307600909456374F700AE
:10325C0013B5B70F8280011122CC06CE2A842EC65C
:10326C0097D0FF1FE78040E2B245F240818D33A535
:10327C00A502229562441375F50F05618280011138
:10328C0022CC06CE2A842EC697D0FF1FE780C0DF43
:10329C00B245F240818D33A5A502229562444205C8
:1032AC00418105618280011122CC06CE2A842EC672
:1032BC0097D0FF1FE78040DDB245F240818D33B5DA
:1032CC00A5022295624405618280411106C651CD4A
:1032DC001C41AA850545D9C7DC41C9C783D78500E0
:1032EC00D1C383D7A500BDCF514617F5FF1F1305DA
:1032FC00650797D0FF1FE78040DE97F7FF1F2389F4
:10330C00070697F7FF1F9387E7058843D93697F78A
:10331C00FF1F83C7C7028DE79307006417F5FF1FD4
:10332C000355C5043305F50237460F001306062472
:10333C0081468145EF00115B97F7FF1F2381A700A2
:10334C0017F7FF1F0347A7FFAD4763E7E700B14738
:10335C0017F7FF1F2305F7FE170500001305A5DF60
:10336C00913E0145B2404101828097F7FF1F23AD8A
:10337C0007F897D7FF1F9387E70517F7FF1F23233E
:10338C00F7FE7D5797F7FF1F23A0E7FEB7873200A4
:10339C00938727A197F6FF1F23AAF6FC97F7FF1F29
:1033AC00238807FCB7C7004023A4E72699BF011167
:1033BC0022CC17F4FF1F130424F7084406CE26CAA8
:1033CC004AC801E90545F2406244D24442490561CC
:1033DC0082805C54E5DB185875D770008545829760
:1033EC001844B247E300F7FE9305E00417F5FF1FFE
:1033FC00035545F4EF30811617F7FF1F2328A7F06C
:10340C0071D117F6FF1F0356E6F29305F00F97D014
:10341C00FF1FE78060D0814417F9FF1F130989ED66
:10342C0097F7FF1F83C727F10326890163C1F402B5
:10343C00328597D0FF1FE780403D014597F7FF1F6E
:10344C0023A607EC97F7FF1F23A407ECADBF97F556
:10345C00FF1F83D525EEB387950208441858898140
:10346C0085043E9508C2029765BF011156C297FAB2
:10347C00FF1F938A6AEB83A78A0022CC4AC84EC6E8
:10348C0006CE26CA52C45AC0AA892E8432896380B9
:10349C00072203A7CA02630507141307F01F63630F
:1034AC00A71497F4FF1F9384E4E403AA8401631523
:1034BC000A0A9565938515E017F5FF1F035585E7F7
:1034CC00EF30C10997F7FF1F23A2A7E42A866309EF
:1034DC00051083A7CA0203A58A0097F5FF1F83D5A1
:1034EC0065E58981829783A78A0003AA840117F76F
:1034FC00FF1F232FF7E08947639AF908C14763112F
:10350C00F40E97F5FF1F83D5E5E2938505FC9147F3
:10351C00B3C5F5028A05D29503C725009307A0050C
:10352C00631CF70A83D705006398370B4A852286FC
:10353C00910597D0FF1FE78040BA9C4C5285639F42
:10354C0047130145F2406244D2444249B249224AEF
:10355C00924A024B05618280D84CE38EE7F8956560
:10356C00938525E017F5FF1F0355C5DCEF20117F70
:10357C002A8A3DC52A8683A7CA0203A58A0097F525
:10358C00FF1F83D525DB89818297B5B78D47639D56
:10359C00F900C1476316F40497F5FF1F83D585D94D
:1035AC00938545FDF19985BF9147639AF90063199D
:1035BC00340397F5FF1F83D5E5D7A115E5B793071E
:1035CC000010639FF900A14763EC870097F5FF1F7C
:1035DC0083D545D6C115F9B79C4C52856394470DDC
:1035EC0029458DB71D6A568B637F4509130A05E083
:1035FC001947334AEA0217F7FF1F0357A7D397FA65
:10360C00FF1F938A2ACF330AEA023E9A83A7CA0184
:10361C006395470183A48A018DE49305E00417F5B3
:10362C00FF1F035525D1EF207173AA8455D9832729
:10363C00CB0297F5FF1F83D5E5CF2A86898152856A
:10364C00829791451307A005898193972500A6972A
:10365C0083C627006393E60483D60700639C360376
:10366C0085058A052286A6954A8597D0FF1FE78097
:10367C00C0A683A78A01E38697EC268597D0FF1F07
:10368C00E780A0187DBD21677917E36BA7F4330A97
:10369C00454195B783C5370045BF83A78A01E381B0
:1036AC0097F4268597D0FF1FE780201615BF97F754
:1036BC00FF1F938727C48C4F85D591479306A00590
:1036CC008983139727002E9703462700E31AD6F019
:1036DC0003560700631C360185078A072286BE95B0
:1036EC004A8597D0FF1FE780409FA1BD83473700D5
:1036FC00C1BF97F7FF1F938727C3984739C79C5BB8
:10370C00A9C705476313E504411122C417F4FF1F31
:10371C00130444BE104C06C60DC6484C97F5FF1F4B
:10372C0083D545C189818297084C97D0FF1FE780CC
:10373C00C00D97F7FF1F23AB07BC97F7FF1F23A9FB
:10374C0007BCB2402244410182808280011117F7EC
:10375C00FF1F130767BD4EC68329870022CC26CADC
:10376C004AC806CE52C456C2AA842E8432896387B4
:10377C0009201C5BBA8A99EB2945F2406244D24479
:10378C004249B249224A924A056182805C57EDD780
:10379C009307F01F63E8A70E97F9FF1F938989B56C
:1037AC0083A78901B1CB03A58A0083A7C9016393C1
:1037BC00A70689476391F408C147E31FF4FA17F58C
:1037CC00FF1F035525B79147130505FC3345F5023B
:1037DC009317250003A589012286CA853E95930778
:1037EC00A0052301F50023109500110597D0FF1FAC
:1037FC00E780A08E014551B79305E00417F5FF1F34
:10380C00035545B3EF20915597F7FF1F23A0A7B0A1
:10381C0059F99DB783A7CA0203A6890197F5FF1F23
:10382C0083D545B18981829783A78A0017F7FF1F3B
:10383C002320F7AEBDBF8D47639EF400C147E31D47
:10384C00F4F217F5FF1F0355E5AE130545FD93770D
:10385C00C5FF49B79147639AF400E31F94F017F53D
:10386C00FF1F035525AD2115DDB793070010E39518
:10387C00F4F0A147E3E287F017F5FF1F035585AB82
:10388C004115F1B79D676379F506930705E0194774
:10389C00B3C7E70217F7FF1F0357C7A917FAFF1F94
:1038AC00130A4AA5B387E702BE9983278A01A1CFE1
:1038BC008327CA016397370703258A0191461308AA
:1038CC00A0059305F00F93D72600139727002A978E
:1038DC0003462700631D060783580700034637007D
:1038EC0063939806B306D64063CD860485078A0792
:1038FC002286CA853E95DDBD21677917E36EA7E662
:10390C00B307F54041BF9305E00417F5FF1F0355BE
:10391C0065A2EF20B14497F7FF1F23A9A79E49F991
:10392C00A1BD83A7CA0203268A0197F5FF1F83D581
:10393C0065A089814E85829797F7FF1F23AA379D33
:10394C00A5BF2310B70093160601C182ADBFB38586
:10395C00860017F6FF1F0356E69D9105130606FC1D
:10396C00E3FCC5E013063400719A1106B2962301EC
:10397C00070123109700A301D7008DBF97F7FF1FF6
:10398C0093874797944FBE89A9C203A58901914695
:10399C001308A0059305F00F93D726001397270063
:1039AC002A9703462700631606058358070003462B
:1039BC00370063989800B306D640E3D986F22310FB
:1039CC00B70093160601C182C1BF8357C70017F514
:1039DC00FF1F034545969305E0043305F5024205A8
:1039EC004181EF20B13797F7FF1F23A1A79251FD1B
:1039FC0061B317F6FF1F0356E69397F5FF1F83C5B8
:103A0C008593B385C502338686001106E3E6C5D6D9
:103A1C0091BF01458280011106CE2EC6EF50A03514
:103A2C0001C9B245F2400355250005616F90600154
:103A3C00F240494505618280A382018E2382018E6A
:103A4C0023AA018C23AC018C23A8018C23A6018C06
:103A5C0097F7FF1F938707941307400B2391E700F9
:103A6C001307000A2392E7002393E70071771307EB
:103A7C0007B82394E7001D472395E7004147239699
:103A8C00E70005472397E7001307F0072399E700A2
:103A9C00130710F8239BE7007D572390070023980A
:103AAC000700239A0700239CE7008280011126CA95
:103ABC00AA84214522CC06CE2E8432C636C43AC204
:103ACC00EFE0FFC11DC9A24612473246930700FD25
:103ADC002300F5009947A30095002301F50023036B
:103AEC00D500A303E5002312C500AA8522856244F4
:103AFC00F240D24405616FE0FFCDF2406244D24403
:103B0C000561828023AAA18C828023ACA18C828047
:103B1C00011122CC4AC806CE26CA2A890144B30414
:103B2C0089006368B400F2406244D24442490561A2
:103B3C0082802EC697C0FF1FE780005593170501A2
:103B4C00C183A183B2452380F4009307140093F73B
:103B5C00F70F850463F9B700CA9709042380A700FF
:103B6C001374F40F6DBF3E846DBFC16717F5FF1F53
:103B7C0003558581FD176304F502411117F6FF1FEC
:103B8C000346468A9385C18D06C6EF40B07FB2408E
:103B9C00FD5717E7FF1F2319F77E410182808280B2
:103BAC0023900500ADC28147130E000C63FDC704C2
:103BBC003387F60003480700138717004207931852
:103BCC00080193D808014183638F08023A98634C2B
:103BDC0006033388E6000348080063060802130353
:103BEC0028FC1373F30F63706E021383F8FF23909A
:103BFC0065006316A8001305170036958280C697DA
:103C0C00C207C18365B701458280411126C2AE84CB
:103C1C0022C497E7FF1F23A5C77697E7FF1F23AFA3
:103C2C00B77497E7FF1F23A9A7742A84414693050D
:103C3C00F00F26854AC006C60549EF20E14C631EED
:103C4C00250397E7FF1F93872773C843C145C935E1
:103C5C0041469305F00F2285EF20014B85446316F6
:103C6C009502224497E7FF1F93870771B240924455
:103C7C0002498843C145410161BD414681452685C4
:103C8C00EF208148E31625FD6DBF41468145228515
:103C9C00EF208147E30795FCB2402244924402494D
:103CAC0041018280411122C426C22E84AA8471460D
:103CBC00814517E5FF1F1305256C06C697C0FF1F2E
:103CCC00E780804597E7FF1FA38F976A97E7FF1F51
:103CDC00238C8774EF807058854719C181474945FB
:103CEC00B240224417E7FF1F230EF76892444101AC
:103CFC008280814781CD19C98547631BF50083C735
:103D0C00550093E707FCA382F50085473E8582802A
:103D1C0009478547E31CE5FE03C755001377F703F6
:103D2C00A382E500E5B7814781CD19C903C75500CA
:103D3C009306000C85471377070C6303D70089475C
:103D4C003E858280411122C4005D06C626C21DC874
:103D5C00AA84085009C597D0FF1FE78000AB4850D4
:103D6C0009C597D0FF1FE78040AA085409C597D012
:103D7C00FF1FE78080A9228597D0FF1FE780E0A86E
:103D8C0023AC0402B240224492444101828009EDEA
:103D9C0097E7FF1F83C7275F17E5FF1F1305055F15
:103DAC0081CB1385418C828017E5FF1F1305055EBF
:103DBC00828017E5FF1F0345055D828097E7FF1F93
:103DCC009387875B8843828097E7FF1F9387C75A47
:103DDC00C843828097E7FF1F9387075A9C47884305
:103DEC00828097E7FF1F9387275998471C438507C5
:103DFC001CC317E5FF1F034515599307F00F630507
:103E0C00F50091656F2001468280011122CC32C6EB
:103E1C0006CE2E84EF506006914732466310F502B1
:103E2C009387818D9C4399CB03A307006308030000
:103E3C0022856244F240B28505610283F2406244FD
:103E4C00054505618280011122CC2A840355450069
:103E5C0006CE26CA4AC84EC6EF40D0602DC52A8968
:103E6C00834405008349C500F13D4A85EF508033FA
:103E7C0003554400EF40B07B83C7418EA9CB6398B8
:103E8C00970483C5518E2685793619E12382018EDC
:103E9C0003554400EF40707E9147631FF5000357B4
:103EAC00440097E7FF1F83D7274E6317F700FD5792
:103EBC0017E7FF1F231AF74CF2406244D2444249E1
:103ECC00B2490561828081499304F00F75B793075D
:103EDC00F00FE38FF4FA8346640003564400034565
:103EEC0024004E87A685D93665B717E7FF1F034711
:103EFC0097499307F00F6305F706411126C2AA8470
:103F0C00294522C406C6EFE08FFD2A8429C59307F4
:103F1C0000FD2300F500A147A30095002301F50047
:103F2C0097E7FF1F9387474583C7E7009385418C2D
:103F3C001105A30FF5FE194697C0FF1FE780E01986
:103F4C00A2852244B240924417E5FF1F0345B543B6
:103F5C0041016FE03F88B24022449244410182808B
:103F6C00828079715EC6AA8B2E8552CC56CA5AC8ED
:103F7C0006D622D426D24AD04ECEAE8A328B368A80
:103F8C00EF40504E7DC1045D2A89E5C09C506145CF
:103F9C0099C3130540039C5481C7510542054181C7
:103FAC0063050A00710542054181DC5081C75D053E
:103FBC0042054181EFE0AFF22A8445C96146814553
:103FCC0097C0FF1FE780401597E9FF1F83C9893D04
:103FDC006394090083490900930700FD2300F40052
:103FEC00A947A30074012301F400230364018C503E
:103FFC00231254011305840191C908C47146930A14
:10400C00440397C0FF1FE780400D56858C5491C91F
:10401C0048C45146930A450197C0FF1FE780E00B47
:10402C005685630C0A0008C87146D285930AC501EF
:10403C0097C0FF1FE780600A5685CC5099C548C8C9
:10404C005D4697C0FF1FE7804009A2854E85EFE0D3
:10405C006FF82254B2509254F249624AD24A424BFF
:10406C00B24B4A8502594561F1B9B250225492546F
:10407C000259F249624AD24A424BB24B45618280A4
:10408C0001114EC6AA892E854AC806CE22CC26CA54
:10409C002E89EF40303D21C997E4FF1F83C4843043
:1040AC0099E0834405001945EFE06FE32A8405CDC0
:1040BC008145194697C0FF1FE7800006930700FD56
:1040CC002300F400B947A30034012301F4002312A8
:1040DC002401A2856244F2404249B2492685D24469
:1040EC0005616FE02FEFF2406244D2444249B2497D
:1040FC000561828039715ECEAA8B2E8526DA4ED66A
:10410C0052D456D25AD006DE22DC4AD8AE84328B38
:10411C00B68A3A8ABE8942C6EF40D03421CD2A896C
:10412C004145EFE0CFDB2A8431C54146814597C03C
:10413C00FF1FE78060FE17E5FF1F0345A52619E169
:10414C0003450900930700FD2300F400BD4723013C
:10415C00F400B247A30074012312940023046401F9
:10416C00A304540123054401A30534015CC4A285B6
:10417C00EFE04FE6F2506254D2544259B259225AEF
:10418C00925A025BF24B2161828017E7FF1F0347B3
:10419C00971F9307F00F630DF706411126C2AA84EF
:1041AC00394522C406C64AC0EFE06FD32A8439C908
:1041BC00930700FD2300F500A300950023010500E3
:1041CC0097E5FF1F9385851C0D05194697C0FF1FAA
:1041DC00E780A0F017E9FF1F1309091A835729017B
:1041EC00A2852315F4008347D9002306F40022444A
:1041FC00B2409244024917E5FF1F0345D51841010F
:10420C006FE04FDDB240224492440249410182806A
:10421C00828001115AC02A8B314526CA4EC652C41F
:10422C0056C206CE22CC4AC8AE84B28A368ABA8925
:10423C00EFE0EFCA2DC92A842685EF40B02239CD94
:10424C0017E9FF1F0349591E631C0B0093878196C6
:10425C009C439C4791C7CE865286D68526858297ED
:10426C00930700FD2300F4009D47A3006401230184
:10427C00F400231294002313540123144401231536
:10428C003401A2856244F240D244B249224A924A95
:10429C00024B4A85424905616FE0CFD317E9FF1FF6
:1042AC000349790E75BFF2406244D2444249B24987
:1042BC00224A924A024B05618280011122CC2A8447
:1042CC00214506CE2EC6EFE08FC121C1B245930722
:1042DC0000FD2300F500C5472301F50083C7350019
:1042EC00A301F50083D745002312F50083C76500B1
:1042FC002303F50083C77500AA85A303F500228567
:10430C006244F24005616FE0EFCCF240624405611B
:10431C008280397162CC2A8C594526DA4AD84ED61D
:10432C0052D456D25AD05ECE06DE22DCAE8432C6D1
:10433C0036C4BA8B3E8BC28A468A83590104034920
:10434C004104EFE0CFB925C93246930700FDA246E0
:10435C002300F5009547A301C500A30085012301A7
:10436C00F5002A8419461105A9C2B68597C0FF1F0E
:10437C00E780A0D623066401230A240123157401C7
:10438C00231754012318440123193401A2856254C4
:10439C00F2504259B259225A925A025BF24B624C79
:1043AC002685D25421616FE0EFC2814597C0FF1F73
:1043BC00E78080D6C1B7F2506254D2544259B259F8
:1043CC00225A925A025BF24B624C2161828097E72F
:1043DC00FF1F83C747FB8DCB4111AA851946138557
:1043EC00418C06C697C0FF1FE78020CF9385418C78
:1043FC0017E5FF1F034525F9EFF0BF8FB24013857A
:10440C00418C41016F80E06901458280797126D22F
:10441C0006D622D44AD04ECE52CC894459C52A84D1
:10442C00035505002E8AD144EF40D0032A8935CD9F
:10443C001C5DC544BDEB9165938545711305C002A8
:10444C00EF20C111232CA902AA89CD4439CD130622
:10445C00C002814597C0FF1FE78000CC8357040042
:10446C009386490036852391F900714693054400E3
:10447C0036C697C0FF1FE78040C689472380F900E6
:10448C00B2460356040097E5FF1F83C5A5F9014505
:10449C00EF504072AA8463060A00D2854A85EF4029
:1044AC00107781C44A85EFF0FF89B25022542685DB
:1044BC0002599254F249624A4561828029CE4111D7
:1044CC0022C426C24AC006C6B2842E89EF40807927
:1044DC002A84D1471DC5485509C597C0FF1FE780E1
:1044EC00C032F1452685EFE08FBF48D4CD4711C9C6
:1044FC0083474400630E090093E767002302F4002E
:10450C008147B2402244924402493E854101828057
:10451C0093E74700E5B789473E858280AD4763EB5B
:10452C00A70097E7FF1F9387E7E606053E9503551F
:10453C000500828041657D158280011122CC2A8480
:10454C002E8526CA06CEAE84EF40C0711DCDB7476E
:10455C000F009387F723094563E4870281450A8599
:10456C00414697C0FF1FE78020BBA6852310810022
:10457C000A85418023018100A3010100EF504051C5
:10458C00F2406244D244056182804945D5BF97E729
:10459C00FF1F238AA7E882806F50E05B797152CCB1
:1045AC002A8A328522D426D24AD04ECE56CA5AC82E
:1045BC005EC606D662C4AE8BB28A368BBA843E898E
:1045CC00C2894684EF40006A15C92A8C63140A021A
:1045DC0013774B008347450015CF93E72701230240
:1045EC00FC008DEC631C0902639A090205E8ED9B43
:1045FC002302FC00832B8C03639F0B06B2502254C6
:10460C0092540259F249624AD24A424BB24B224C62
:10461C0045618280F59B93E70701D1B793E747008B
:10462C002302FC0001CC1C484146A2852324FC0239
:10463C0013058C0197C0FF1FE78020AA63910B0222
:10464C00D5D80325CC0209C597C0FF1FE780E01B16
:10465C00F1452685EFE0AFA82326AC0261BFE30B42
:10466C0009F80325CC0209C597C0FF1FE780E019A4
:10467C00F1454A85C5B78DC483A70B0289EB9165BB
:10468C00938535717145EF10716D23A0AB0203A5B5
:10469C000B0219C57146A68597C0FF1FE780E0A3E2
:1046AC006386090283A74B0289EB9165938525717B
:1046BC005D45EF10B16A23A2AB0203A54B0219C5ED
:1046CC005D46CE8597C0FF1FE78020A10DC483A750
:1046DC008B0289EB9165938515715145EF1011682B
:1046EC0023A4AB0203A58B0219C55146A28597C022
:1046FC00FF1FE780809E2254B2509254F249B24B75
:10470C00224CCA865A860259424BD6855285D24AC9
:10471C00624A45616FF0FF84011126CA52C406CE6D
:10472C0022CC4AC84EC62A8AAE84EF40A05325C577
:10473C00AA893945EFD0BFFA2A8431CD17E9FF1F7A
:10474C00034949C66314090003C909009307000D06
:10475C002310F400AD472301F40093856900130581
:10476C003400194697C0FF1FE780209793F7140079
:10477C00858085882306F400A30694002315440144
:10478C00A2856244F240D244B249224A4A85424947
:10479C0005616FE02F84F2406244D2444249B24931
:1047AC00224A056182809387C18C884301CD4111D7
:1047BC0006C697C0FF1FE7804005B24023A6018CB8
:1047CC00410182808280011106CE22CC26CA4AC8C1
:1047DC002EC6EF40204939CDB24517E9FF1F0349DA
:1047EC0069BCAA840CD56314090003490500414532
:1047FC00EFD0FFEE2A841DCD9307000D2310F5009A
:10480C00A5472301F50083C7540093856400110567
:10481C00A30FF5FE194697C0FF1FE780008C9C5430
:10482C00A285F2405CC46244D2444A854249056187
:10483C006FD05FFAF2406244D244424905618280F3
:10484C00C16717E8FF1F035828B4FD17630CF80263
:10485C004111239EB18C239FC18C9385C18D17E68A
:10486C00FF1F034626BC06C62391E18E2390D18EF2
:10487C00EF404031B240FD5717E7FF1F2316F7B04A
:10488C00410182808280797122D406D62A842EC678
:10489C00EF40403D05CD8346C5001147AA874945E9
:1048AC006392E6029C5FB24599C383C567012308F6
:1048BC00B100976600009386C68110088945228551
:1048CC00EF40B02BB2502254456182805145DDBF80
:1048DC0031C6411122C426C24AC006C6B2842E89F2
:1048EC00EF4040382A84514505C4630809008347CA
:1048FC00440093E727002302F4001305840141468A
:10490C00A68597B0FF1FE780407D9C4801451CD4CD
:10491C00B24022449244024941018280094582807E
:10492C00797122D406D62A842EC6EF40A03301CD4D
:10493C00B2452285230EB1006C08EF40D029B2504D
:10494C002254456182805145DDBF6F4040482D4760
:10495C00AA876361A70241677D170945638DE5004E
:10496C0017E5FF1F130505A38607AA972390B70029
:10497C000145828009458280011122CC06CE26CACF
:10498C004AC8114609446392C5023EC63A89B684A8
:10499C00EFF04FB12A84324609E9CA852685EFF03B
:1049AC00CFA6EF005064EF0070402285F2406244C5
:1049BC00D244424905618280411106C622C42A8430
:1049CC00EFF08F87EF007041EFA0906A814517E5FB
:1049DC00FF1F1305659A714697B0FF1FE780C073E0
:1049EC00930700F017E7FF1F231FF7987D5797E7F2
:1049FC00FF1F938727A32381E7002380870022854D
:104A0C002244B240954541016F3000761D71939759
:104A1C000501CAC886CEA2CCA6CACEC6D2C4D6C2FE
:104A2C00DAC05EDE62DC66DAC1872E8963DB07449E
:104A3C0017E5FF1F0345059FEFD03FD18964C1697E
:104A4C00056A797B2A84938BD400FD19250A130CF3
:104A5C00ABFF0DE021653345A900F6406644D64412
:104A6C004649B649264A964A064BF25B625CD25CD2
:104A7C0025618280834704001307200A639DE700A9
:104A8C000355240097EAFF1F83CAFA8F2286CE852E
:104A9C00EFF0AFB7A5A21307100997EAFF1F83CA5F
:104AAC008A98639BE73A8347140015476390E702A3
:104ABC002285EFF04FB92285EFD05FBD17E5FF1FC0
:104ACC0003454596EFD07FC82A8461B73947639A6E
:104ADC00E71283574400639B47050C4483CC0500C5
:104AEC00639D0C00850591C9194617E5FF1F130539
:104AFC00E58997B0FF1FE780405E17E7FF1F03476C
:104B0C0067888547631AF734638A0C0097E7FF1FA1
:104B1C00238A07866685EFF04FE771BF894717E751
:104B2C00FF1F2301F786EF70907571B71387240070
:104B3C00639AE706832C840063800C3283C70C00D5
:104B4C008DE383C72C0003C71C00A207D98F17E77E
:104B5C00FF1F231CF78283C73C0017E7FF1FA3032B
:104B6C00F78217E7FF1F0347E78189476316F72E84
:104B7C0083C70C0081CB97E7FF1F2385078003C5F4
:104B8C000C0051BF8D4797D5FF1F83C5B57F17D537
:104B9C00FF1F0355857F17D7FF1F2305F77EEF30C7
:104BAC00A05FF1BF138754006398E7001C4403C552
:104BBC000700EFF08FB301B73387870142074183BA
:104BCC00914663F3E6021307ABFCBA97C207C183A5
:104BDC0071476363F728370700181307F770B3574B
:104BEC00F700858B638A07269387418D9C43E3846A
:104BFC0007EC9C43E38107EC22858297E31D05EAD1
:104C0C00A1AC3D476390E70483574400E38577EB01
:104C1C0013879401E381E7EA13873401639EE7224B
:104C2C0097D7FF1F83D74776E38737E99387818D23
:104C3C009C43E38207E89C43E38F07E6A2853A8511
:104C4C0082976DBF1307E0036398E7208347240026
:104C5C0005476396E70C9387418D9C4397DCFF1FB8
:104C6C0083CC7C7291C7DC4381C781450145829717
:104C7C0003457400930A8400D685EFF0CF8A8347EE
:104C8C004401A303A400835804010358E400035710
:104C9C0044002A86034534003EC283572401D6863D
:104CAC00E6853EC09147EFF0CFE68347340095E7A9
:104CBC00DD47835804010358E40083467400835590
:104CCC0044003EC283572401568705463EC0668584
:104CDC009147EF404031A301A4009387C18C9C43C2
:104CEC0081C71145EFF03FAC03C5418EE30505DCF0
:104CFC0083C5518EEFE03FD2E30F05DA83463400D3
:104D0C0093071003638AF60003564400114783C5CA
:104D1C00418E3685EFE09FD92382018E69BB2947EE
:104D2C006399E7089387418D9C4397DAFF1F83CAE9
:104D3C009A6591C7DC4381C781450145829703453C
:104D4C0074009306840093772500A1CF1376150089
:104D5C00930C4401834704028358C4010358A401F3
:104D6C0003574400034534003EC28357E401D68503
:104D7C003EC09147EFF0EFD983473400B9FFDD47D0
:104D8C008358C4010358A40183467400835544001E
:104D9C003EC28357E401668705463EC0568591475F
:104DAC000DBFB68536CEEFE01FF8F2462A86B68CDC
:104DBC0055B70D476397E70022868D450355440090
:104DCC00C1B919476395E7066C1013051031EFA0B4
:104DDC0090309305E10213052031EFA0D02F03563C
:104DEC0064008357E1020355440063E8C70083560F
:104DFC0084000357C10263F7E60093050002EF70CD
:104E0C00905B55B96374E6002313E40063F4D70098
:104E1C002314F4000357C4008356A40003568400E3
:104E2C008355640001488147EF70F05569B11D4707
:104E3C006384E70231476395E7002286B145BDBF25
:104E4C0049476394E7029387418D9C4391C7DC43A8
:104E5C0081C78145054582979307F00FE38DFAC40E
:104E6C00A2855685EFD01F9791B94D47E396E7FE83
:104E7C009387418D9C43EDD3DC43F9DFA285094533
:104E8C00D9BF93F725000145E38907BC9387418D72
:104E9C009C4391C7DC4381C78145054582971345E7
:104EAC00290065BE1D71A6CA9384018D9840A2CCC1
:104EBC0086CECAC8CEC6054441C30345370097D732
:104ECC00FF1F83C7474CB337F000930547003EDE06
:104EDC00EFE03FE298402ADC0945834527002EDAB3
:104EEC00EFF0CFE32AD80D45EFF04FE384402AD6FC
:104EFC00254503C7A40083C9B4003AD4EFF00FE2F0
:104F0C002A892945EFF08FE162096258F25722573E
:104F1C00B2564256D2551375F50F135989412ACC06
:104F2C0022C402CA02C802C64AC24EC093884400B8
:104F3C000545EF70704F2A842285F6406644D644AE
:104F4C004649B649256182809387018D884301CDFE
:104F5C00411106C697C0FF1FE780208BB24023A8E3
:104F6C00018C410182808280011122CC06CE8D47BA
:104F7C002E846316F50603C73500E94703D54500B3
:104F8C006318F70097D7FF1F83D707406385A706E1
:104F9C00EF30504D09C5835764002317F5000357B4
:104FAC00A4008356840003566400835544000345D3
:104FBC003400EFF00FA60357440097D7FF1F83D799
:104FCC00A73C6308F7008547F24062443E850561C3
:104FDC008280FD5717D7FF1F2318F73AEDB7896763
:104FEC00CD07631DF50083C7250031476385E700B6
:104FFC004547E39AE7FCEFE05FB7F1B7B1476319B8
:10500C00F50017D5FF1F03453542EFF00FAB65BF19
:10501C0041677D178147E319E5FA83C65500494777
:10502C00E394E6FA83C545000355240030002314AD
:10503C000100EF30103441BF411122C406C626C214
:10504C0083C7618E1307E00F2E846383E704130775
:10505C00F00F6387E7021145EFD06FE815C1930796
:10506C0000FD2300F50089472301F5008547A300C7
:10507C008500A301F500AA8503C5618EEFD08FF5DD
:10508C00F9572383F18EB24022449244410182802D
:10509C00AA841145EFD0AFE47DD5930700FD230022
:1050AC00F5008947A30085002301F500A3019500B5
:1050BC002244B2409244AA8503C5718E41016FD03F
:1050CC006FF101114AC81389018D8327090006CE9F
:1050DC0022CC26CAC9EBAE849165A383A18E2A8407
:1050EC00938575713145EF106147AA8723A8A18C70
:1050FC004D45B9C323808700A38007001385270083
:10510C002946A68597B0FF1FE78020FD832709005D
:10511C00914603C7270063ECE6000DE74D4723815A
:10512C00E70003C72700136707012381E7009D3BB6
:10513C0001C52AC6113D3245F2406244D24442496F
:10514C000561828085466314D7007547C9BF8946BF
:10515C006314D7004947E1B78D466314D700414724
:10516C007DBF55476DBF4545C1BF011126CA93840C
:10517C00018D9C4022CC06CE4944B9C383C707009D
:10518C000D44639FA702894517D5FF1F0345852949
:10519C00EFD05FB1914517D5FF1F0345A528EFD080
:1051AC007FB09C4001478146A38087001306F10025
:1051BC00854785450145A307F100EF7090302A849F
:1051CC002285F2406244D2440561828041114AC07A
:1051DC0006C61389018D22C426C205478327090000
:1051EC00631BE500D1CF2244B2409244024903C56F
:1051FC00070041019DBFC9C78947AE846314F506FA
:10520C002D45EFD0CFCD2A8425CD930700FD23006B
:10521C00F500E547A30005002301F50083C7340022
:10522C0015051946230FF5FE83C7440093855400DA
:10523C00A30FF5FE97B0FF1FE78020EA17D5FF1FDD
:10524C000345951E9307F00F6316F500832709009D
:10525C0003C50700A2852244B24092440249410191
:10526C006FD04FD7894517D5FF1F0345A51BEFD02E
:10527C007FA32244B2409244024941016FF0DFCC3B
:10528C00B24022449244024941018280FD4763FCB2
:10529C00A700094582800945F2406244D244424944
:1052AC00B249056182804DC5011122CC2A842105A9
:1052BC004EC64205AE8991659385657141814AC898
:1052CC0006CE26CAEF1081292A8971D59384C18E06
:1052DC00884009C597B0FF1FE7802053130589004C
:1052EC002320A9002286814523A6218F97B0FF1F7A
:1052FC00E78080E29C402286CE85884397B0FF1FD2
:10530C00E780A0DD9C40239287009387018D9C430E
:10531C0085CF97D7FF1F83C72711918B85CB938799
:10532C00C18E9C4399CF984383D647006244F24088
:10533C00D2444249B24905468D45054505616F7019
:10534C00D01301478146DDB70145B9B74945A9B727
:10535C009387018D9C438DC797D7FF1F83C7C70CBD
:10536C00918B8DC39387C18E9C4381CB984383D6FD
:10537C00470005468D450545D9B701478146D5BF40
:10538C000145828049458280FD4763FCA7000945A1
:10539C0082800945F2406244D2444249B2490561D7
:1053AC0082804DC5011122CC2A8421054EC64205AE
:1053BC00AE8991659385557141814AC806CE26CA3E
:1053CC00EF10C1192A8971D59384018F884009C5C2
:1053DC0097B0FF1FE7806043130589002320A900C5
:1053EC002286814523A8218F97B0FF1FE780C0D26A
:1053FC009C402286CE85884397B0FF1FE780E0CD86
:10540C009C40239287009387018D9C4385CF97D72F
:10541C00FF1F83C76701918B85CB9387018F9C43BB
:10542C0099CF984383D647006244F240D244424914
:10543C00B24905468D45054505616F70500601471B
:10544C008146DDB70145B9B74945A9B79387018DA9
:10545C009C438DC797D7FF1F83C707FD918B8DC3C7
:10546C009387018F9C4381CB984383D64700054695
:10547C008D450545D9B701478146D5BF0145828089
:10548C00494582809387C18E9C4391CF03D64700B8
:10549C008C43411106C697B0FF1FE78000C4B24091
:1054AC00014541018280094582809387C18E9C43CE
:1054BC0085C79387018F9843894705C303564700D7
:1054CC000C43411106C697B0FF1FE78000C1B240E4
:1054DC0081473E854101828089473E85828001114A
:1054EC0006CE22CC26CA4AC8894763FAA7000944CB
:1054FC002285F2406244D24442490561828017D72A
:10550C00FF1F034727E88D474144E313F7FE93073A
:10551C00F5FF93F7F70F05472A8417D9FF1F0349A7
:10552C0089E66368F700AE849DE999452800EFE0B1
:10553C002FDE914517D5FF1F0345C5EE97D7FF1FEB
:10554C00238387E4EFD00FF645D42800EFE03FE843
:10555C002A8459DD97D7FF1F238727E351BF1946AC
:10556C008145280097B0FF1FE78000BB19462C002F
:10557C00268597B0FF1FE78040BD35F91946930586
:10558C00F00F280097B0FF1FE78000B919462C00D8
:10559C00268597B0FF1FE78040BB31F91946A685D9
:1055AC00280097B0FF1FE78040B361B797D7FF1F64
:1055BC0083C787E7918B99CF41111385818E06C6DE
:1055CC00EFE0AFD4B240FD5717D7FF1F231EF7DA19
:1055DC004101828001456FE04FD3FD57A383F18ECB
:1055EC00F9572383F18E23A6018E23A8018E93876E
:1055FC00017D170700001307C70798C317070000A2
:10560C00130707BDD8C3170700001307E78998C70E
:10561C00970700009387879523A4F18E8280411110
:10562C0026C29384018D9C4006C622C485CF2A8451
:10563C000D45EFD0CF8AAA8519CD930700FD230025
:10564C00F5008D47A30085002301F5009C4003C5A0
:10565C000700EFD02F9819C42244B2409244410164
:10566C006FF09F8EB2402244924441018280835657
:10567C0045000111896706CE22CC26CA4AC8138779
:10568C0067036390E6021C45014583C50700EFF0F4
:10569C00BF9A8547F2406244D24442493E85056137
:1056AC008280138777036397E6001C45054583C505
:1056BC000700F1BF138787036393E6081C451307A4
:1056CC00E00F03C4070083C7618E638EE7021307E4
:1056DC00F00F6386E7021145EFD06F80AA8505C1F4
:1056EC00930700FD2300F5008947A30085002301E3
:1056FC00F500A301050003C5618EEFD0AF8DF957FE
:10570C002383F18E79B79387018D9843814759D3C1
:10571C0005E4854723170100A300F7009306E10079
:10572C001307D1007000854505452306F100A3063B
:10573C000100EF700059B1BF2285D53599BF138791
:10574C0097038147E398E6F41384018D184022896E
:10575C0031D31C450347170083C4070085476308F2
:10576C00F7020D45EFC0BFF7AA8519CD930700FDD1
:10577C002300F5009147A30095002301F5001C4080
:10578C0003C50700EFD00F85EFF00FFC19B7938717
:10579C00C18E9C4385E70145EFE05FD809C92A8695
:1057AC00894517D5FF1F0345E5C7EFD0AFAD83275C
:1057BC00090009472685A380E70041B7944303D627
:1057CC0047009305E1000545EFE08FBD69D58347A0
:1057DC000500858BE9D30545EFE05FD41306006423
:1057EC003305C50265BF411197D7FF1F83C7C7C3D8
:1057FC0006C6918B89CB1385017DEFE0AFB04D458B
:10580C00B240410182800145EFE0CFAF0145CDBFF1
:10581C00BD47638CF50663E9B702A5476387F506B8
:10582C0063EDB7009947638CF5049D47638FF504CE
:10583C009547638CF50401458280B5476387F50471
:10584C0063E1B704AD47F5B7DD47638EF50263EA54
:10585C00B700C947638BF502D9476386F502C54784
:10586C00C9BFF5476383F50263E4B700ED47D1B7D1
:10587C0093072005638BF5009307200D5DBF48450A
:10588C00828008418280084582804841828093074B
:10589C00F00F630EF506011126CAAA841305000247
:1058AC0022CC4AC84EC652C456C206CE3A89B689D4
:1058BC00B28A2E8AEFC0BFE22A844D4515C89307E1
:1058CC0000FB2300F400A300540123114401230224
:1058DC00340113058400614663050902CA8597A04B
:1058EC00FF1FE780807FA2852685EFC0BFEE0145B4
:1058FC00F2406244D2444249B249224A924A05617A
:10590C008280814597B0FF1FE7800081E9BF094580
:10591C008280011122CC06CE2A842306B100A30674
:10592C00C100EF30203419C978009306E007014616
:10593C00A28517D5FF1F034535AF913FF240624456
:10594C0005618280930700643306F6026FD08FA93D
:10595C0005C90347050085469307270093F7F70F02
:10596C0063F0F602411122C42A843A8506C6EFD0B0
:10597C00EFBAFD572300F400B2402244410182806B
:10598C008280035705009307000B6313F7028347CC
:10599C0045004947639CE700034715018547639918
:1059AC00E7000355250085456F20E07B6D47C5BF9B
:1059BC008280011122CC2EC632C406CE2A8436C275
:1059CC00EF30402A12472246B24501CDB2862E86D0
:1059DC00A2856244F24017D5FF1F0345F5A405616B
:1059EC007DB5F240624405450561828023ACA18EF1
:1059FC008280011122CC26CA06CE2A84AE84EF30D6
:105A0C006026A6852285EFA0C04B0DE122852316CA
:105A1C009100EF30202519C978009306F007014654
:105A2C00A28517D5FF1F034535A09535F24062447A
:105A3C00D24405618280011126CA06CEB68422CCDE
:105A4C00DD4663E2B608D94663FED50AA5466381F6
:105A5C00D50A63EEB6049546638CD50899466387E0
:105A6C00D50A054441687D18631606093AC6EFA0AD
:105A7C000049330685403247420641824204418048
:105A8C003305C4004205BA85418132C6EF206073EC
:105A9C00AA8749C181C432462390C400B305804013
:105AAC006244F240D2443E8505616FA02026C54673
:105ABC006380D504C9460D44E395D5FAC167FD173B
:105ACC00E31EF6FA65B7F5466380D50463E4B600C9
