:040000006F0010423B
:1000040000000000000000009000002058080020BC
:10001400A9BDF9F3900000200000000000000000DA
:10002400900000209000002000000000000000006C
:10003400900000200000000090000020000000005C
:10004400000000009000002000000000900000204C
:10005400900000209000002090000020000000008C
:10006400900000200000000000000000900000202C
:1000740090000020900000209000002090000020BC
:10008400000000009000002000000000900000200C
:0400940001A00000C7
:10009800011126CA4AC8F57437C92D0022CC4EC6AC
:1000A80052C456C25AC006CE0144194B97190000D3
:1000B800938949B71309096C378A0040914AFD149E
:1000C80005043344040863146401212401445145A0
:1000D800EF00900083A70900850723A0F900E371CA
:1000E800F9FE23005A01371700401E2F2945E58FD6
:1000F8001EAFEF00407F85678297D9B7938781A1AC
:1001080009472380A704A3800704B78700402384F6
:10011800E70203C7A7021377C70F2385E702828088
:1001280081476313F60082803387F5001423330771
:10013800F500850714A3F5B7797122D417140000C8
:10014800130484AF1C2006D626D24AD04ECE1307FD
:1001580020086383E714636DF700130700086382C0
:10016800E70413071008638EE70E1305E00F91A04C
:1001780013073008E39BE7FEB7870040114798A3B1
:10018800B71600409E2E75777D17F98F9EAE2945CC
:10019800992F2254B25092540259F2498567456109
:1001A800828704301384C180A9E41E2091EB814426
:1001B80026852254B25092540259F24945613DBFF6
:1001C8001E2017160000130626AB09458D07F19B64
:1001D800B3C707081EA09715000083A5E5A416203D
:1001E800971000E0E78020C29374F50F23960180F2
:1001F800C1B70A2017190000130909A82686971500
:100208000000938585A34A95213F1E20BE94B3C460
:10021800040806A01A209307F00FE3FAE7F89719E5
:100228000000938969A083A509004A8693060010F7
:100238000945971000E0E78000BD83A70900937483
:10024800F50F938581959387071023A0F9001E2049
:100258004A85938707F0B3C707081EA01220C9353F
:1002680081BF3E2042201305E00F42045D8C856764
:10027800E311F4F4B7A60300014685650545971018
:1002880000E0E78040B8239601801375F50F9717B3
:10029800000023AB879831BF143097150000938571
:1002A800059A171500001305259D368636C68D3D1F
:1002B8005E202E20B246C207171600001306C69B02
:1002C800DD8D0D45971000E0E780E0B31375F50F5D
:1002D800CDB5011122CC06CE26CA4AC84EC652C494
:1002E80056C25AC03784004078209377F70F098B9D
:1002F800630B072E17170000232607929397476072
:1003080063C407027C301307000293F7F703638F77
:10031800E70A6361F706638D07100947638DE706EF
:10032800B78700400947F8A3378700407C33939785
:10033800476063D70716930720FC2301F7029387CA
:1003480081B1FA23943383C90700138441811AA029
:10035800238BD18093FA0906639E0A122946636BA0
:10036800D612171600E0130666BDB3C6C62094421F
:10037800B2968286130710026381E70413072002EE
:10038800E390E7FA8347A40293F7C70F93E72700A0
:100398002305F40271B77C3093F70704D1D3002406
:1003A800938581A117150000130505891374F40FAF
:1003B8002286BD3322854933A5B78347640293F764
:1003C800C70F93E727002303F40299BF83C761810E
:1003D80015476388E7041947639EE704938A4181B8
:1003E800138A018183D90A0003290A0093040004AF
:1003F800B3D4990ACA852686138581B1B3899940F1
:100408002699393B13FBF40F23903A0123202A0144
:10041800230064038347240293C707042301F402DB
:1004280001B73C3003C7418193F70708D98F3CB027
:100438008947EDB723000402E5BFBE2309461389A7
:10044800018193D68700638BC6068D456382B60803
:1004580085476397F608971700E09387A7B423208A
:10046800F9008144C94763F3E7001EA0032A090085
:10047800035B040093070004D285335BFB0A1385F2
:1004880081B15A8671395A9A232049019307F00F8E
:100498006395F40AB78700401307F0FC2381E7024D
:1004A800B78700400947F8A3F2406244D244424962
:1004B800B249224A924A024B05618280971700E0AE
:1004C800938747AC2320F90081449307000261BF5A
:1004D80093F7F70F85466389D7006380C7029DC7E6
:1004E80081479304F00F41B7971700E0938787A8D7
:1004F8002320F9008144B947BDB7971700E09387D7
:10050800A7A62320F9008144B147B1BF970700008F
:10051800938707712320F90081449147A9B7BC2329
:100528001EA021A883C6718194A3854763F7E700BD
:100538008547FDB7BE23A38BF1809399496063DBA0
:1005480009001E201307000433D7E70A998F937A0E
:10055800F70F1EA0B787004023805703130700FC3E
:1005680035BF13F7F9018946E316D7F2DC23930662
:100578001008638FD70263EEF60085466385D704BB
:10058800E39AE7F0378700408347A70293F73707D6
:1005980029A813072008E39FE7EE37870040834721
:1005A800A70293F7C70B93E727002305F70271B754
:1005B800378700408347670293F7C70B93E7270005
:1005C8002303F7029DBF378700408347670293F7ED
:1005D8003707FDB7238C01B089BF239C01B0894739
:1005E800E3FDE7F435BF13F7170005C3A3010400C3
:1005F80089472301F402C9472303F4022305F402BF
:100608002307F40285477CA045B513F7470065DF4B
:100618009147D5BF9307000C01116314F5049307A4
:100628008008F3B7078093F787083EC00F100000D3
:10063800B7170040130770052380E704130780FAF3
:100648002380E7040F10000098271367070C98A76A
:10065800238007048247F3A707800F100000056175
:100668008280B7170040B827118B69EB83C6E7046F
:100678001307800893F6F60F7336078013768608FB
:1006880032C20F1000001308700523800705930578
:1006980080FA2380B7040F10000003C6E70413662E
:1006A80036002387C704B02713664600B0A7238007
:1006B80007041246732606800F1000009027137651
:1006C800F60F73370780137787083AC40F100000B6
:1006D800238007052380B7040F10000098271367AD
:1006E800070C98A723800704A247F3A707800F10D9
:1006F8000000A5470100FD1793F7F70FE5FF9307E3
:100708008008F3B7078093F787083EC60F100000EC
:10071800B7170040130770052380E704130780FA12
:100728002380E7040F10000090A72387D7042380B5
:100738000704B247F3A707800F1000009377050C52
:10074800130700046399E70893078008F3B7078045
:1007580093F787083EC80F100000B717004013072B
:1007680070052380E704130780FA2380E7040F103D
:100778000000B827854613670701B8A73727004048
:10078800A303D7808346578093E60601A302D78048
:1007980023800704C247F3A707800F1000009307C0
:1007A8008008F3B7078093F787083ECE0F10000044
:1007B800B7170040130770052380E704130780FA72
:1007C8002380E7040F1000001375F50F88A7238016
:1007D8000704F24749B59377F5019DCF9307800841
:1007E800F3B7078093F787083ECA0F100000B717C2
:1007F8000040130770052380E704130780FA23805D
:10080800E7040F100000372700408946A303D7806C
:1008180023800704D24741B793078008F3B70780BE
:1008280093F787083ECC0F100000B7170040130756
:1008380070052380E704130780FA2380E7040F106C
:100848000000372700409D46A303D7802380070474
:10085800E24791B74111814601468145114597000C
:1008680000E0E780405A13078008F337078093F7C2
:1008780087083EC40F100000B71700401306700524
:100888002380C704930680FA2380D7040F10000042
:10089800FD55CEB723800704A245F3A505800F10A8
:1008A800000073370780137787083AC60F100000D7
:1008B8002380C7042380D7040F10000003C76704F0
:1008C800136717002383E70423800704B247F3A7BD
:1008D80007800F10000001A0E5473305F50201006D
:1008E8007D1575FD8280411122C406C62A84130530
:1008F800803E7D14D5373344040875F8B24022444D
:1009080041018280230304801547A2872303E480E2
:10091800010001002302A48003C767806207618782
:10092800E34C07FE2382A780228783476780E2077C
:10093800E187E3CC07FE8280230304801547230365
:10094800E480010001002302A48082808307648080
:10095800E3CE07FE23030480828083076480E3CE0E
:1009680007FE03454480828083076480E3CE07FE48
:100978002302A4808280411126C44AC24EC006C602
:100988001377F50BAD47AA892E8995446306F700BE
:1009980019455D37653F8D444E85793FFD59FD14F6
:1009A80063983401B240A2441249824941018280CD
:1009B800135509011375F50F453F2209CDB70111EC
:1009C80026CC06CEB704080051371545B537713720
:1009D80069372AC6A53F32459377150089EB136519
:1009E80015001375F50FF240E24405618280FD148D
:1009F800E9FC0145CDBF411106C6B71700401307F2
:100A080070052380E704130780FA2380E70403C7EF
:100A180047041305F00F1367070E2382E704914775
:100A28002303F480C535B24041010DB7011126CC2E
:100A38004ACA4EC852C606CE2A89AE89B284554AD9
:100A48005D3F91E82137F24026855249E244C24988
:100A5800324A05618280CA850945313F910903A759
:100A6800C9FF91472320E48003076480E34E07FE13
:100A780023034481FD17EDFBFD14110981C493770D
:100A8800F90FE9FF2D3F55FDFD5475BF011126CC27
:100A98004ACA4EC852C656C45AC206CE2A89328A93
:100AA8008D49913FC164C16A056B9387F4FFB3F721
:100AB800270199E363719A02FD199180E39709FE72
:100AC80071350145F240E2445249C249324AA24ACC
:100AD800124B056182801305800D6388540113054C
:100AE80000026384640113051008CA856935C13D95
:100AF80009C52699330A9A4075BF7D55E1B701119A
:100B080006CE26CC4ACAB2844EC82AC62E89E535F6
:100B18003245FD14FD59AA852D45B13D639A34012E
:100B28003535F24026855249E244C2490561828042
:100B38002D3593F7340091EB8326048003270900B1
:100B480093074900E39EE6FC3E89FD14C1BF0111ED
:100B580006CE2AC64D353245C533F2400561FDB390
:100B6800011106CE26CC4ACA4EC852C6AA8956C416
:100B78002E895135B7050400B3E5B9002D45E53B8D
:100B880081448D4A214AD13B6396540183270480CE
:100B98002320F9008504E39844FF832704801397F2
:100BA8002901635C07002312F900F240E24452492C
:100BB800C249324AA24A056151BB2322F900F5B75E
:100BC800411106C626C44AC24EC0AE892D3581459C
:100BD8001305B0044D33BD447D59413393F7740078
:100BE800CE9703C70700FD14398D2380A700E3962D
:100BF80024FFB240A24412498249410181BB4111FC
:100C080006C6D53B13056006053B893313059009D5
:080C18002533B24041011DBB70
:100C20009711002093810180172100201301813D3D
:100C30001305800997F5FF1F9385054617060020C9
:100C4000130606FE63FAC5008322050023A05500A3
:100C500011059105E3EAC5FE1705000013050536E9
:100C6000970500209385C5FB1386418063FAC50074
:100C70008322050023A0550011059105E3EAC5FE76
:100C800017050020130545FA938581BD6377B500EC
:100C9000232005001105E36DB5FE93025002739009
:100CA00002BC8D42739042808542739012BC89626F
:100CB000938282887390023097F2FF1F938282346E
:100CC00093E2320073905230970200009382020147
:100CD00073901234730020304111194506C622C4A6
:100CE000D9281305600497000020E780209337146B
:100CF00000401307440B1C432945BD9B1CC313072D
:100D0000040B1C4393E707011CC31307040A1C438D
:100D10001304440ABD9B1CC397000020E78020BD3C
:100D20001C40C18B99CB154597000020E78020BC63
:100D30001C40C18B99C38567829737170040162FD7
:100D4000F177FD17FD8E16AF162F0946F58F1EAFF2
:100D5000B7870040238007009306C0FCD4A7D4B710
:100D6000938681B196AB938681A9D6AB938681A1F8
:100D700096AF93868199D6AF2381C702C946238354
:100D8000D7022385D7022387D7022389C702A381ED
:100D900007009306900294A3162F0D66D18E16AF0E
:100DA0007D57F8A3130710F898B32381070097F035
:100DB000FF1FE780602E371700408347E7041205C6
:100DC0004111BD8BC98F93F7F70F93068008F3B6D7
:100DD000068093F6860836C60F100000930670054D
:100DE0002300D704930680FA2300D7040F100000D5
:100DF0002307F70423000704B247F3A707800F1067
:100E000000004101828001112A8706CE2E8526CC62
:100E1000B2854ACA368622C637240040B7E700E0CA
:100E2000FD5603A90700C44323A0D71823A2D7184F
:100E30009307F7FF93F7F70F894663E0F60AB717B2
:100E4000004083C75704B706040093F7070299E3ED
:100E5000B7C60300F9576375D5043308C50063E1CD
:100E6000060589476314F704098297000020E7808C
:100E700060BCAA8737170040930670052300D7048B
:100E8000930680FA2300D70483464704C18A2302CD
:100E9000D70437E700E0232027112322971032449C
:100EA000F240E24452493E85056182808547631FD6
:100EB000F7008567FD173E96E98F3E96FD777D8E9C
:100EC0007D8D97000020E780E0BC65B7970000208B
:100ED000E78060C39307150071BFB547631AF70039
:100EE0001305900B97000020E780E0C6814759B7B3
:100EF000B1476315F7001305B00AEDB799476317BB
:100F0000F70097000020E78020C6CDB79D47631B00
:100F1000F70023A0050023A2050097000020E7802A
:100F2000A0CAE9B791476317F70097000020E78050
:100F300080CD6DBF81471DDFF1572DBFA2F6FF1F8A
:100F40002AF6FF1F5CF5FF1F5CF5FF1F5CF5FF1F16
:100F5000E6F5FF1F02F5FF1F5CF5FF1FECF5FF1F15
:100F6000FCF5FF1F9CF6FF1F0C03430048003500F3
:100F7000370078000E037700630068002E006300DE
:100F80006E00000009022000010100803209040007
:100F90000002FF805500070582024000000705029D
:100FA0000240000012011001FF8055404843E05507
:080FB000000100000001000037
:080FB80000000000040309041D
:00000001FF
