:040000006F00D07D40
:1000040000000000000000002C580100000C00203B
:10001400A9BDF9F32C580100000000000000000005
:100024002C5801002C5801000000000000000000C2
:100034002C580100000000002C58010000000000B2
:10004400000000002C580100000000002C580100A2
:100054002C5801002C5801002C580100000000000D
:100064002C58010000000000000000002C58010082
:10007400AA0C00202C5801002C5801002C58010017
:10008400000000002C580100000000002C58010062
:1000940097270000938747249C53411122C406C626
:1000A4001384C18199C782971C403E9523AEA180D9
:1000B40039A097270000938767219C43EDF70840F8
:1000C400B74703009387D73F3305F502B7A7260048
:1000D400938737ECB24022443E9523AEA180410180
:1000E4008280B7E700E09843B706200023A0D71822
:1000F400758F0F10000001C599C1814711E6B7E75C
:1001040000E023A0E7108280B386F50003C8060050
:10011400B306F500850723800601E317F6FEC5B78D
:1001240037E700E01C43B70620002320D718F58FDB
:100134000F10000001C53307C50011E637E700E0E2
:100144002320F71082800505A30FB5FEE31DE5FE0D
:10015400F5B737E700E01C43B70620002320D71883
:10016400F58F0F10000001C599C1014711EA37E767
:1001740000E02320F710054582800507E309E6FE29
:100184003308E500B386E5000348080083C606008B
:10019400E305D8FE37E700E02320F710014582800D
:1001A400797126D2972400009384041222D406D6AF
:1001B4004AD04ECE52CC56CA5AC85EC626849C40FB
:1001C400F9EB972700009387A710984317260000A0
:1001D4000346560DBE84172A0000130AAA0C97275B
:1001E400000083C7270C93961700BA9683D606009F
:1001F400CDC69727000083C7E70A63EAC70A972793
:1002040000002381070A1C4063910712172900008C
:100214001309C90B83270900638907109727000076
:100224009387470B80436302041097240000938450
:10023400640EDC40B7C9C901014B1727000023270E
:10024400F7069389F937972A0000938AEA088357B7
:100254002400F5EB5C4463150B0E17270000232BD9
:10026400F706832BC40022856D235E846DF09727E7
:10027400000093876706DC53CDCB2254B2509254CE
:100284000259F249624AD24A424BB24B45611723A2
:1002940000E06700436C82971DB7850793F7F70F5B
:1002A400972600002380F600E3EBC7F299B7860790
:1002B4003E978355070023100700972700002396D5
:1002C40007FE972700009387E7FF9C43172500004C
:1002D400034545FD13172500BA979C4382971727BA
:1002E4000000034727FC9317170098403E97835755
:1002F4006A0093C7F7FF7D8D835707005D8D231038
:10030400A7009727000083C7E7F991C78507172738
:1003140000002309F7F8172700000347A7F89727D9
:10032400000083C737F8E37CF7ECB25022549254B0
:100334000259F249624AD24A424BB24B4561828029
:100344002326FB0039BF8327090082971C44330707
:10035400F5406375F500D8401D8F2A9763EBE902D9
:100364008355240003450400975001E0E78000749E
:100374005C40E38107EE1044D440B2973E8763E4C7
:10038400C70063E4D7003387D74018C4228B4044A6
:10039400F1BD03A74A027DDB63EFA7023385A740C3
:1003A4008347040085E317270000034747F45117E8
:1003B400B307A7003E85D44063E4E70063E4D700B5
:1003C4003385D74083278A00E372F5FC9727000022
:1003D40023AEA7EC65BFD840BA97C9B737C700406A
:1003E4008326C720B707FCFFFD17F58F2326F720C8
:1003F4000F100000972700009387C7EAC84B832794
:1004040087262326D7206A0593C7F7FF99835D8D36
:100414008280172700001307A7FC1443411122C44C
:10042400BC4206C63A849983858BA5C3930700060C
:10043400BCC29727000083C7E7FA93F707049DC758
:1004440097270000938707ED9C4382979727000026
:1004540023A0A7FA972700009387C7F883C707004C
:1004640093F7F70B17270000230EF7F697270000E2
:1004740083D7C7F799CB17270000130767F81843EA
:100484007CD397270000239307F618403C439183BD
:10049400858B91CBC1473CC397270000938747F6D0
:1004A4009C4323A2070697270000938727F39843CA
:1004B4005C438583858B99C323220700B240224481
:1004C40041018280B9377300203097270000A38B45
:1004D40007F0972700009387A7F29443172700009B
:1004E400130747F083470700858B99E78347170075
:1004F400858B99E3FC52FDF7828083471500939620
:100504000701C1821387260081CF972700009387B4
:1005140027EF9C43BC4B9583858B99C31387660057
:1005240093063700AA9603C6060005488547137646
:10053400F6076311060591C52A9783472700238090
:10054400F500834715009DC797270000938747EB65
:100554009C43B84B81471583058B09CF03C706001D
:1005640085461376F7066319D600620761876353DD
:100574000700B9473E8582809947EDBF011197274F
:100584000000238207E626CA97270000A38D07E40C
:1005940097240000938444D4DC504AC806CE22CC6D
:1005A4004EC62A892E85B28595C7B7E700E037077E
:1005B400200023A0E728B7F700E003A707D16D9B2D
:1005C40023A8E7D003A707D11367870323A8E7D09D
:1005D40073005010854797290000938969E0172418
:1005E40000001304E4E16317F9060146975001E0A3
:1005F400E780406083A709009C43A1838D8BB9E702
:100604001C4013076019F8D3DC5099CB37F700E08E
:10061400832707D193E787002328F7D0730050106E
:100624001440172700001307E7DB83472700858B57
:1006340099E783473700858B99E3FC52FDF7F24035
:100644006244D2444249B249056182801C40130786
:10065400E01B55BF975001E0E780805283A7090053
:10066400B70600019843558F98C3D85B719BD8DBBC
:10067400E31C09F897270000A38607D61C40094706
:1006840098C359B797270000938787D79C43984707
:10069400D447758F98C79316D70063DE0600FD56BE
:1006A400B4D7972600009386E6BFD44A850617265A
:1006B40000002323D6C0937687008DC697260000BA
:1006C40083C666D293E6160017260000230DD6D003
:1006D400972600009386C6D09042545AF19A93E626
:1006E400160054DA937617008DC69726000083C649
:1006F40076CF93E6160017260000A305D6CE9726DC
:1007040000009386E6CD9042545AF19A93E616007F
:1007140054DA93766700A9C6118B97260000938656
:1007240066CC972500009385A5CB4DCB9841184303
:1007340021830D8B4DE3D84A0347170025E71307A0
:100744007006D8CF83C7060093E717001727000069
:10075400230AF7C898415C5BF19B93E717005CDBC5
:100764009727000083C787C9CDC397270000238735
:1007740007C8972700009387E7C89C43ADCB411176
:1007840006C6829797270000938747C783C7070049
:1007940093F7F70F89E79727000023A507C6B24010
:1007A40041018280B04B1376060201C6130750073D
:1007B40049BF05466315C7001307B00659B7094674
:1007C4006315C7001307F006ADBF0D46E310C7FE5F
:1007D40013073007BDB713076007A5B783C73600F3
:1007E40093E7170017270000A30FF7BEA5B79727B5
:1007F40000009387A7C083C7070093F7F70F91E71B
:100804009727000023A007C082808280A53D730043
:100814002030B7E700E08C433707200023A0E71817
:10082400F98D0F10000097270000938767C603A374
:10083400070097270000938727C583A807008146F0
:100844009A8763F6170D03A807006367F50C6365C1
:10085400A80C13878700636CE50A03D66700216739
:100864000507631BE60017270000034707B10507C8
:10087400172600002303E6B017250000130585A200
:1008840003D64700035745002393070032974207D6
:100894004183172E00002319EEA0638C67021723EF
:1008A40000001303A3BE032303006304F30203D372
:1008B40066006310030283D7460023A006012107C4
:1008C4003E9621062392C60097270000239EE79CAC
:1008D400B6879843630D170397260000938606BBDB
:1008E40094426306D7028356670095E283D6470095
:1008F400035647001843A106B2962392D70098C323
:1009040083574500A10717270000231FF798B7E76F
:1009140000E023A0B7108280BE86C2871DB7972748
:100924000000938727ACDC4B93851502958598438B
:10093400FD1518C1D84358C1984718C5D84758C59C
:10094400984B18C9D84B58C9984F18CDD84F58CD83
:1009540091C51305050293870702D1BF82809727AB
:1009640000009387E7A998433C5BFDFF0100010069
:1009740082800111972700009387C7B122CCC05F02
:1009840026CA06CE2AC42EC6854419E40145F2407F
:100994006244D24405618280834791000347140076
:1009A400858B6304F7000044CDB719469305A10075
:1009B40013052400EFF0EFF9E31795FE0545C1BFD9
:1009C4009307000C01116314F50493078008F3B72F
:1009D400078093F787083EC00F100000B717004048
:1009E400130770052380E704130780FA2380E704C4
:1009F4000F10000098271367070C98A7238007049B
:100A04008247F3A707800F10000005618280B717A3
:100A14000040B827118B69EB83C6E70413078008ED
:100A240093F6F60F733607801376860832C20F10DA
:100A340000001308700523800705930580FA2380BE
:100A4400B7040F10000003C6E704136636002387BB
:100A5400C704B02713664600B0A7238007041246D4
:100A6400732606800F10000090271376F60F733755
:100A74000780137787083AC40F1000002380070506
:100A84002380B7040F10000098271367070C98A75A
:100A940023800704A247F3A707800F100000A5478F
:100AA4000100FD1793F7F70FE5FF93078008F3B7ED
:100AB400078093F787083EC60F100000B717004061
:100AC400130770052380E704130780FA2380E704E3
:100AD4000F10000090A72387D70423800704B24790
:100AE400F3A707800F1000009377050C1307000489
:100AF4006399E70893078008F3B7078093F787089B
:100B04003EC80F100000B71700401307700523807C
:100B1400E704130780FA2380E7040F100000B827C6
:100B2400854613670701B8A737270040A303D7807A
:100B34008346578093E60601A302D78023800704E7
:100B4400C247F3A707800F10000093078008F3B78C
:100B5400078093F787083ECE0F100000B7170040B8
:100B6400130770052380E704130780FA2380E70442
:100B74000F1000001375F50F88A723800704F247B0
:100B840049B59377F5019DCF93078008F3B70780A4
:100B940093F787083ECA0F100000B71700401307E9
:100BA40070052380E704130780FA2380E7040F10FD
:100BB4000000372700408946A303D7802380070419
:100BC400D24741B793078008F3B7078093F78708A4
:100BD4003ECC0F100000B7170040130770052380A8
:100BE400E704130780FA2380E7040F100000372777
:100BF40000409D46A303D78023800704E24791B7B2
:100C040041118146014681451145971000E0E78076
:100C1400404E13078008F337078093F787083EC4D4
:100C24000F100000B7170040130670052380C70497
:100C3400930680FA2380D7040F100000FD55CEB729
:100C440023800704A245F3A505800F100000733725
:100C54000780137787083AC60F1000002380C70463
:100C64002380D7040F10000003C76704136717001D
:100C74002383E70423800704B247F3A707800F10F8
:100C8400000001A04111B7170040985F3AC6945F75
:100C94003247E39CE6FE324541018280B7E700E03B
:100CA4003707001023A0E7208280B71700401307FE
:100CB40000032388E70273002030411106C6EFF0D9
:100CC4002FCEF5BF230304801547A2872303E480B6
:100CD400010001002302A48003C7678062076187C3
:100CE400E34C07FE2382A780228783476780E207BD
:100CF400E187E3CC07FE82802303048015472303A6
:100D0400E480010001002302A480828083076480C0
:100D1400E3CE07FE23030480828083076480E3CE4E
:100D240007FE03454480828083076480E3CE07FE88
:100D34002302A4808280411126C44AC24EC006C642
:100D44001377F50BAD47AA892E8995446306F700FE
:100D540019455D37653F8D444E85793FFD59FD1436
:100D640063983401B240A24412498249410182800D
:100D7400135509011375F50F453F2209CDB701112C
:100D840026CC06CEB704080051371545B537713760
:100D940069372AC6A53F32459377150089EB136559
:100DA40015001375F50FF240E24405618280FD14CD
:100DB400E9FC0145CDBF411106C6B7170040130732
:100DC40070052380E704130780FA2380E70403C730
:100DD40047041305F00F1367070E2382E7049147B6
:100DE4002303F480C535B24041010DB7011126CC6F
:100DF4004ACA4EC852C606CE2A89AE89B284554A1A
:100E04005D3F91E82137F24026855249E244C249C8
:100E1400324A05618280CA850945313F910903A799
:100E2400C9FF91472320E48003076480E34E07FE53
:100E340023034481FD17EDFBFD14110981C493774D
:100E4400F90FE9FF2D3F55FDFD5475BF011126CC67
:100E54004ACA4EC852C656C45AC206CE2A89328AD3
:100E64008D49913FC164C16A056B9387F4FFB3F761
:100E7400270199E363719A02FD199180E39709FEB2
:100E840071350145F240E2445249C249324AA24A0C
:100E9400124B056182801305800D6388540113058C
:100EA40000026384640113051008CA856935C13DD5
:100EB40009C52699330A9A4075BF7D55E1B70111DA
:100EC40006CE26CC4ACAB2844EC82AC62E89E53537
:100ED4003245FD14FD59AA852D45B13D639A34016F
:100EE4003535F24026855249E244C2490561828083
:100EF4002D3593F7340091EB8326048003270900F2
:100F040093074900E39EE6FC3E89FD14C1BF01112D
:100F140006CE2AC64D353245C533F2400561FDB3D0
:100F2400011106CE26CC4ACA4EC852C6AA8956C456
:100F34002E895135B7050400B3E5B9002D45E53BCD
:100F440081448D4A214AD13B63965401832704800E
:100F54002320F9008504E39844FF83270480139732
:100F64002901635C07002312F900F240E24452496C
:100F7400C249324AA24A056151BB2322F900F5B79E
:100F8400411106C626C44AC24EC0AE892D358145DC
:100F94001305B0044D33BD447D59413393F77400B8
:100FA400CE9703C70700FD14398D2380A700E3966D
:100FB40024FFB240A24412498249410181BB41113C
:100FC40006C6D53B13056006053B89331305900916
:080FD4002533B24041011DBBB1
:100FDC00971100209381C1A2172100201301C10198
:100FEC001305400097F5FF1F938505011706002098
:100FFC00130606FE63FAC5008322050023A05500E4
:10100C0011059105E3EAC5FE17650100130505CA34
:10101C00970500209385C5FB1386418663FAC500AE
:10102C008322050023A0550011059105E3EAC5FEB6
:10103C0013854186971500209385054B6377B50082
:10104C00232005001105E36DB5FE93025002739049
:10105C0002BC8D42739042808542739012BC930205
:10106C0080087390023097F2FF1F9382E2F893E2AC
:10107C0032007390523097120000938242017390A9
:10108C001234730020302A8309CA8383050023009D
:10109C0073007D16050385056DFA82802A8311C6BF
:1010AC002300B3007D16050365FE828037170040D0
:1010BC008347E70412054111BD8BC98F93F7F70FD6
:1010CC0093068008F3B6068093F6860836C60F1092
:1010DC000000930670052300D704930680FA2300C2
:1010EC00D7040F1000002307F70423000704B247AE
:1010FC00F3A707800F10000041018280011126CA5E
:10110C0006CE22CC8947B314A02863F9A7009547D3
:10111C0063E4A70A93042500B3149028B717004082
:10112C0003D70705B166558F2398E704130780088A
:10113C0073370780137787083AC60F100000130720
:10114C0070052380E704130780FA2380E7040F104F
:10115C00000003C737051375F50F13670708A3893C
:10116C00E704A389A70403C7370513670702A389FC
:10117C00E70423800704B247F3A707800F10000091
:10118C00B717004003D7070513175760E35C07FE3A
:10119C0003D4070583C727054A04BA0749803E9440
:1011AC007D2C33549402F240D24433558502624470
:1011BC0023A2A18605618280994793040040E30F26
:1011CC00F5F49304F07F99BF41113A8E2A8381483C
:1011DC00930E407E130F0019930F400663EF6E14AD
:1011EC00130700193377E502854E0D4F994FFD42D9
:1011FC0063E1BE1861477D1603A541864696AA8514
:10120C00B3F6E602130780703387E602F946330E15
:10121C00DE0293D61700858B7297369791E3814542
:10122C00B307A602A166FD161306302A13D8F700E1
:10123C00F58FB387C7021166B385A5023307A702E2
:10124C00B29513F6F71F1E06BD81A583F98EB3A6C2
:10125C00C6203D83AE96BA9713D70601BA972D6771
:10126C001307078C33D6E702B3C6060833F7E70239
:10127C0042964207558FB716004083C7F60293F784
:10128C000708DC838C8383C7F60293F70708E39681
:10129C00F5FE9C83B7160040638107129307800804
:1012AC00F3B7078093F787083EC40F100000B717F9
:1012BC000040930670052380D704930680FA2380A0
:1012CC00D7040F100000D0DB83C6170393E6060883
:1012DC00A388D70223800704A247F3A707800F1027
:1012EC0000001166B71700407D16D45BCC5FAD8E45
:1012FC00F18EE5FE93068008F3B6068093F6860819
:10130C0036C60F100000930670052380D704930691
:10131C0080FA2380D7040F100000D8DB03C7170313
:10132C0013670704A388E70223800704B247F3A7D7
:10133C0007800F100000410182807D133377E30397
:10134C001308E01601CF3377F3031308D01619C72F
:10135C0013783300133818001308D816C298BDBD83
:10136C0013F81500F91563FBBF029305E801AE985D
:10137C009A851383F5FFE395E5FF854501CF1308A7
:10138C0040063378050381456306080093753500E4
:10139C0093B51500F105AE989A8599BDB3850241B8
:1013AC00DDBF83C7F60293F70708DC838C8383C702
:1013BC00F60293F70708E396F5FE9C83FDD3F9BD7F
:1013CC000D06719A81473307F5006393C70082803D
:1013DC0014433387F500910714C3F5B7914763ECB9
:1013EC00B70497470100938767CAB3C5F5209841A6
:1013FC003E97B71700409387470B028794433717E4
:10140C000040B3F6A64094C39306070B9C42B3F777
:10141C00A74019A8944337170040B3F6A64094C3CD
:10142C009306070B9C42C98F9CC29307070A9843EB
:10143C003377A74098C38280944337170040C98EF6
:10144C00D9B798433377A74098C3B7170040938711
:10145C00070A9843498FF9BF9843498FF5B7B717D7
:10146C00004098279306000C1377070C6315D700E0
:10147C0003A5418682809827930600041377070CF6
:10148C006310D702942713070002FD8A99C298278C
:10149C007D8B3745C323130505603345E5028280F8
:1014AC00942713070002FD8A99C298277D8B375524
:1014BC00E80113050580D5B7B7F700E088478280AF
:1014CC003285814737370040A14663C3A70082802D
:1014DC000346B740E30ED6FE3386F500102285078F
:1014EC002304C740DDB797060020938666D1AA87F0
:1014FC00884217170020130727FFAA9763E9E70014
:10150C000A87130707FC6364F7009CC282807D5531
:10151C008280411122C406C62A8491372947B30719
:10152C00E502B2408D83B3D7870222449507B3D727
:10153C00E70237370040B3C707082316F7404101CD
:10154C008280716541111305052006C6D937B7375E
:10155C000040130710F82381E7400D47A381E740B3
:10156C0013070004A380E74005472387E740B240F8
:10157C0041018280371700403E2FB3C7070893F70D
:10158C0007FCB3C707083EAF09C93E2F8E055D8E19
:10159C00D18DB3C505082EAF828082802D4825E7FA
:1015AC00328590210947631DE604D841411106C6D6
:1015BC00102318332207518F4166130846FE63032C
:1015CC000703636CE8007D07054633470708637B18
:1015DC00E60023900600294805A01516E31BC7FE5C
:1015EC00154711A00547CC4533D6E70A92A297F0D0
:1015FC00FF1FE78080AE0148B240428541018280E6
:10160C0023900600054842858280011106CE22CC2B
:10161C0026CA4AC84EC680251374040255E083C9F5
:10162C0005000948AE87639F090903A84500B284E9
:10163C003689034308000348180022083368680001
:10164C004163130E13FE6304C8030D13630E680489
:10165C008D679387279029446310F8046244F24005
:10166C00D2444249B249854705616F40203629EF83
:10167C000547636DD704C8470546A68597F0FF1F3D
:10168C00E780A0A5814983A7418899C79C4389C756
:10169C004A86A6854E858297F24022856244D244C2
:1016AC004249B2490561828005E305476360D70270
:1016BC00C8470546A68597F0FF1FE78000A2E1B753
:1016CC002144D9BF0544C9BF2D44F9B73544E9B706
:1016DC00C167F917630CF502411122C406C6854790
:1016EC002A84639AF50022852244B24093850187AF
:1016FC0041016F50306C89476396F5008545EF705A
:10170C00001E75D1B2402244410182808280411179
:10171C0022C42A844165938501877D1506C6EF5046
:10172C007069170500001305E5FA0588EF70E012E3
:10173C0005C02244B2409706002093866689414634
:10174C00C545170500201305658941016F50705C74
:10175C00B240224401454101828009C523A2A188DF
:10176C0001458280454582801147636EA7069746E6
:10177C0001009386E6923345D52018414111AE877E
:10178C00369706C6B285028705476145639AE7001E
:10179C0005461385018897F0FF1FE78000940145EB
:1017AC00B2404101828005476145E39BE7FE054657
:1017BC001385C187CDB705476145E393E7FE054621
:1017CC0013858187C9BF05476145E39BE7FC054647
:1017DC0013854187C9B715476145E393E7FC154667
:1017EC00138581864DBF09458280411122C42E8408
:1017FC009385018726C206C6AA84EF404018058946
:10180C0019CD9707002083D707891EA0A2852244F3
:10181C00B24026859244014641016F40B06FB24000
:10182C0022449244494541018280B287411113966A
:10183C002500BE8506C66936B2400145410182804D
:10184C00011122CC26CA939625002A84B284AA853B
:10185C000146054506CE36C6EF00B008B2462686D0
:10186C00A2850945EF00F007F2406244D2440145DD
:10187C0005618280411122C406C62E84939755605F
:10188C0063DD0700EF00102719C1EF00D01A131504
:10189C00F468B24022444101828093F7150013C5CD
:1018AC001500E5FB8967ED8F99CFEF90F04637F681
:1018BC000200130606E0896503C5C188EF003057A6
:1018CC001315D468F9B711656D8D61D51735010005
:1018DC001305457EEF20816213060064916503C5F4
:1018EC00C188EF00D0541315E46865B75D715D468F
:1018FC00973501009385457C17450100130505AA12
:10190C0086C6A2C497F0FF1FE780208401E9173533
:10191C0001001305E57BEF20615E01A0B7F700E045
:10192C0023A40700795798CB3D4798C393078008A9
:10193C00F3B7078093F787083EC00F100000B71766
:10194C000040130770052380E704130780FA2380F7
:10195C00E7040F100000B847B70600C1FD16758FDD
:10196C00B706000E558FB8C7238007048247F3A72C
:10197C0007800F10000097F7FF1F938727D023A431
:10198C00F188130700F8B7E700E0A38AE7401306D5
:10199C0040038145680097E0FF1FE780E0779707D9
:1019AC0000209387279E05643EC6930704E0FC80C5
:1019BC00E17793C727812310F102B7B703003ECA22
:1019CC00B7070103938707103ECCED47FC8685478C
:1019DC00230FF10097070000938767E53EDCB7F50E
:1019EC000300970700009387E7E53EDE81469707E3
:1019FC0000009387A7AC5000E10519453ED6EF00D7
:101A0C00406E19464C0013053102EFF0CFE7B24798
:101A1C0091C7BC801304F4BF6363F40001A0680099
:101A2C00EF10001AAA8501C9173501001305856B43
:101A3C00EF20E13801A0B64026446161828041115B
:101A4C0017050000130545E306C622C4EF108013EA
:101A5C001384C18808A0112808202244B240130620
:101A6C000032896541016F00903C397126DA06DE3F
:101A7C0022DC4AD84ED652D493048008F3B70480A3
:101A8C0093F787083EC20F100000371400409309EB
:101A9C00700523003405130980FA230024050F1068
:101AAC0000008347F40293E71700A307F402230016
:101ABC0004049247F3A707800F1000001945EFF0BC
:101ACC00EFE3138A0189AA852320AA0017350100A8
:101ADC0013054563EF20A12E0147814671468545CC
:101AEC0081471305507EEFF02FEE9307803EFC8369
:101AFC0083270A006800FC82B707C0A83EC897F786
:101B0C00FF1F9387A7173EC697F7FF1F938787186A
:101B1C003ECEEF102036F3B4048093F4840826C430
:101B2C000F10000023003405230024050F100000C3
:101B3C00010001008347140393E70702A308F40292
:101B4C0023000404A247F3A707800F100000F250F3
:101B5C006254B7E700E03707001023A0E710D25417
:101B6C004259B259225A216182802A86B305B0406B
:101B7C00173501001305055A6F2061240DE1011181
:101B8C00680006CE97E0FF1FE7802055173501004F
:101B9C001305C559EF208136F240056182808280A1
:101BAC001387C189AE870E23639CA50052A31735FA
:101BBC000100130565593E863EA376A36F202120B4
:101BCC00173501001305C5596F2041331387C1899F
:101BDC0056211E236391F604011106CE22CC1384E8
:101BEC00B1810820C167F91789451CC323A0018A5C
:101BFC00EF00F04508209145EF007045854713062E
:101C0C00F100854513055030DC87EFD0A06DF24014
:101C1C0062440561828017350100130565546F20FD
:101C2C00E12D3D897D15954763E7A7141737010012
:101C3C001307075F3345E5201C41411122C4BA97B5
:101C4C0006C626C22E848287173501001305C5519E
:101C5C002244B240924441016F20412ABC211947D1
:101C6C006390E7022E859D376C2017350100130514
:101C7C00A550EF20C114173501001305A551C9BF9C
:101C8C000D47E38AE7FEB240224492444101828030
:101C9C00B8219547E319F7FE9387C18996234167CD
:101CAC007917AA25638FE600EFD05006173501008F
:101CBC001305454FEF2081241735010013050551FD
:101CCC0041BFFA259384B1818AA3BAA39A298820AB
:101CDC0013060064DAA3BA298945FAA3DD472398D1
:101CEC00F180EF00D0148820096613060690A145F8
:101CFC00EF00F01388200566130606C89145EF0027
:101D0C00101372242E24173501001305E54AEF2019
:101D1C00010B5DB7B8218D47173501001305C54B75
:101D2C00E313F7F635B7AC2191476397F5001735F8
:101D3C0001001305E54B29BF9947639FF5002285E8
:101D4C0071356C2017350100130505432244B24050
:101D5C00924441016F20A10695476399F5001C3010
:101D6C00F9F7173501001305654ADDB51735010084
:101D7C001305454AE1BF8280011126CA06CE22CC4A
:101D8C00AE849397556063D5070803C5B1819D2335
:101D9C002A8421C11C211307000B638CE704130751
:101DAC00000D6396E7023C214547638BE7026547CC
:101DBC00639FE7000348A5001C351825743170217A
:101DCC004C311735010013052547EF10517F228543
:101DDC009D211395F468F2406244D24405618280DF
:101DEC0070216C311735010013050548EF10317D5A
:101DFC00F9BF58219307F007E31BF7FC0E251735A5
:101E0C000100130525482398B180EF10517BC1B711
:101E1C0093F7150091CF17F6FF1F130666339385C2
:101E2C00819703C5B181EFD0A01E13C5140065B70F
:101E3C0093F72500ADC713060064894503C5B1812E
:101E4C00EF00E07E930780F85C8203D701818D4719
:101E5C0063EBE7001735010013050544EF20010A79
:101E6C0013C524008DBF1384C1890A2085470147FF
:101E7C0081460546ED457C85EF30606B2AC66DD1F9
:101E8C0030854C0097E0FF1FE78020250A202C00AE
:101E9C00A93A79D5ED452800EF301001D1B793F769
:101EAC00850085C383C7B18113074006814613069D
:101EBC004006994503D5C189EFD0801013C5840025
:101ECC0019BF93F705019DC3014789460946814512
:101EDC0003D5C189EFD0C065AA851735010013055C
:101EEC00A53CEF10D16D13C50401F5B513F54500F4
:101EFC00E30305EE03D5C189EFD000610566130637
:101F0C0006C8914503C5B181EF00607213C544004A
:101F1C00D9B5797117050000130545E606D622D40C
:101F2C0026D2EF0030469384B1819947054488A0AE
:101F3C00FC82100893074006854513055030FC843D
:101F4C0023088100EFD0003A17F6FF1F13068622F4
:101F5C00F14513057030EFD0E038138641819D4573
:101F6C0013056030EFD00038500889451305103147
:101F7C00EFD040373008894513052031EFD080363B
:101F8C00930500050945EF200059930500050D4503
:101F9C00EF20605885452945EF20E05730089145E2
:101FAC0013057040408440862308810002CC230A2C
:101FBC000100EFB030403000854513050040EFB014
:101FCC00703F7000854513051040EFB0B03E5008CF
:101FDC00854513052040EFB0F03D100885451305ED
:101FEC005040EFB0303D7D55EFC050417D55EF5026
:101FFC00C0597D55EFF0AFF117F6FF1F130606160B
:10200C00D5450145EFC0702E89475C868D47230866
:10201C00F1009147230AF100B707030493871720B7
:10202C003ECC3000954785450145230EF100408498
:10203C00EFF08FF3700085450545EFF0EFF21008D7
:10204C0085450945EFF04FF2500885450D45EFF0F9
:10205C00AFF1300895451145EFF00FF1C1671387CB
:10206C00C189F9171385C1801CC323220700EFF027
:10207C00CFEE13854189EFD0C04822548820B2504E
:10208C009254854545616F3071214111194506C641
:10209C00EFF0CF811305600497F0FF1FE780C0912C
:1020AC00B7170040214723ACE70A8D452145EFF0D7
:1020BC00EFB2014681450545EFF0CFCBEFF06FC88D
:1020CC00173501001305852DEF105163EFF01F82BA
:1020DC00EFF0FF96EFD000462D3D97F0FF1FE78005
:1020EC0040BD01112A8706CE2E8526CCB2854ACA60
:1020FC00368622C637240040B7E700E0FD5603A918
:10210C000700C44323A0D71823A2D7189307F7FFBF
:10211C0093F7F70F894663E0F60AB717004083C7B9
:10212C005704B706040093F7070299E3B7C60300F8
:10213C00F9576375D5043308C50063E10605894773
:10214C006314F704098297F0FF1FE780A0C9AA87E0
:10215C0037170040930670052300D704930680FAC6
:10216C002300D70483464704C18A2302D70437E7E8
:10217C0000E023202711232297103244F240E2443E
:10218C0052493E85056182808547631FF70085674C
:10219C00FD173E96E98F3E96FD777D8E7D8D97F0EF
:1021AC00FF1FE78020CA65B797F0FF1FE780A0D01C
:1021BC009307150071BFB547631AF7001305900B11
:1021CC0097F0FF1FE78020D4814759B7B1476315BB
:1021DC00F7001305B00AEDB799476317F70097F0AE
:1021EC00FF1FE78060D3CDB79D47631BF70023A08B
:1021FC00050023A2050097F0FF1FE780E0D7E9B7A1
:10220C0091476317F70097F0FF1FE780C0DA6DBFA7
:10221C0081471DDFF1572DBF23AC05FE1C4191E713
:10222C00010001000CC18280BA8703A787FF6DFFF4
:10223C0023ACB7FE8280411122C437E400E026C2F1
:10224C0004403707200006C6F98C2320E4180F1031
:10225C00000009E9232094101545B2402244924411
:10226C00410182800347E5FF9307F00F6306F700F7
:10227C00232094101145D5B797E0FF1FE780E05855
:10228C00014523209410D1BF411126C2B7E400E0D0
:10229C004AC003A90400B707200006C622C433793C
:1022AC00F90023A0F4180F10000009E923A0241151
:1022BC00B240224492440249410182809565938543
:1022CC0005D0C98D2A842105C2054205C1814181F1
:1022DC00EF30512C01CDFD57232005002312850032
:1022EC002303F50023A024112105D9B723A0241121
:1022FC0001457DBF4111B7E700E026C28443370793
:10230C00200006C622C4F98C23A0E7180F10000089
:10231C0097070020938707F8904301440147B28741
:10232C0089E709E8A16525233DA083C6E7FF639EE5
:10233C00A60229C0832684FF6310C404170700205B
:10234C00232AD7F47D57232C04FE230FE4FEF9DB5C
:10235C00A165EF30A1742285B2402244B7E700E0BA
:10236C0023A0971092444101828011E03E8783A7FD
:10237C0087FF7DB73E84E5BF232CD7FEE1B7411123
:10238C004AC037E900E022C40324090037072000C3
:10239C0006C626C2798C2320E9180F10000089E5A7
:1023AC0023208910154515A0AA849707002083C700
:1023BC00B7EE2E8563F5F400854763EE9700A53DD7
:1023CC00B7E700E023A087100D45B24022449244A9
:1023DC0002494101828083A785FF99E703C7E5FF86
:1023EC009307F00F6308F700B935B7E700E023A0B7
:1023FC0087104DBF238F95FE17050020130585E927
:10240C00213DA1652685EF306169014523208910A6
:10241C006DBF9707002023AF07E6828093F7F50F77
:10242C00B5C341114AC006C622C426C22E89014733
:10243C00A146B357E940858BA9C30E05B307E50048
:10244C003145B387A70297060020938666EB84423A
:10245C0005443314E40042044180BE949C40C840BF
:10246C00829723A0040023A2040033452401B24028
:10247C00224492440249410182800507E31BD7FAAA
:10248C000144E5B7014582800111B7E700E022CC99
:10249C0080434AC83707200006CE26CA2A892E86D2
:1024AC00798C23A0E7180F10000013150601930573
:1024BC00F004418132C6EF30F10DAA8419C53246C1
:1024CC00CA8597E0FF1FE78040C1B7E700E023A073
:1024DC008710F240624426854249D24405618280CD
:1024EC001D898545B395A500C2054111C1810145E2
:1024FC0006C6EF30013309C50845B2404101828060
:10250C000145E5BFB7E700E09843B706200023A0DC
:10251C00D718758F0F1000009706002083C6D6D7EA
:10252C006375D502170600201306C6D9931615003D
:10253C00084293C5F5FF369583560500F58D23109B
:10254C00B50023A0E7100145828023A0E7100D45BC
:10255C008280011137E700E026CA0443B706200049
:10256C0006CE22CC4AC84EC6F58C2320D7180F10A5
:10257C000000130785FF1377F70F9D4763E3E70A06
:10258C00B146B306D50297070020938767D79843C7
:10259C0036971C43D9C705441D893315A400131461
:1025AC00050141802E890545A285EF308127AA8936
:1025BC0029CDA2850545B93797070020938747D0C9
:1025CC009C4382979707002083D787D433872703B0
:1025DC002A84814613060064B3B727031305073218
:1025EC00B335E500BE95EF10E143B30785009706C0
:1025FC000020938666D13E87D44263E4A70063E44F
:10260C00D7003387D74023A4E900B7E700E023A025
:10261C0097100145F2406244D2444249B2490561E7
:10262C008280B7E700E023A097100945E5B77971E0
:10263C004AD037E900E026D283240900B7072000EE
:10264C0006D622D44ECE52CC56CA5AC85EC6FD8C83
:10265C002320F9180F1000009707002083C7D7C359
:10266C00637AF50097070020938787C583AB070033
:10267C0063970B00B7E700E023A09710A9A0170BF6
:10268C000020130B6BC8832A4B00B74736FE938789
:10269C0007C82E8A9705002083D585C7BE9AB387B5
:1026AC00C5022A84B2898146B3B5C50213850732A7
:1026BC00B337F50013060064BE95EF10A13663F036
:1026CC00AA02232099100145B25022549254025967
:1026DC00F249624AD24A424BB24B45618280829B9C
:1026EC009705002083D5C5C2B38735032A89130605
:1026FC0000648146B3B5350313850732B337F50053
:10270C00BE95EF102132B30725013E8903274B00FC
:10271C0063E4A70063E4E7003389E740D2852285B0
:10272C00EF30211009C923242501B7E700E023A0CD
:10273C009710054551BF936504F0C205C181414511
:10274C00EF30416519E997070020938727B89C570C
:10275C0095D3A2851145829731BF970700209387A7
:10276C00A7B69C438DE39707002023AFA7B423267D
:10277C000500232425012311450123008500232274
:10278C00050065B7BA87D84775FFC8C7CDB779714B
:10279C00B7E700E026D284433707200006D622D4C0
:1027AC004AD04ECE52CC56CA5AC85EC662C466C215
:1027BC006AC0F98C23A0E7180F10000039CD214412
:1027CC00B689B28A2E8A2A89B14C170B0020130BBA
:1027DC002BB3054D414CB30B940303270B005E97B1
:1027EC001C43A9EF93757400B315BD00C205568642
:1027FC00C18105452D3D39C183270B00DE9723A0F0
:10280C00270123A247016384090023808900B7E7CD
:10281C0000E023A09710014521A023A097100945A3
:10282C00B250225492540259F249624AD24A424B53
:10283C00B24B224C924C024D456182800504E31C44
:10284C0084F9B7E700E023A097102145D1BF01110F
:10285C00B7E700E04AC803A9070022CC4EC63707E9
:10286C00200006CE26CAAA892E843379E90023A03B
:10287C00E7180F100000EF20D17AAA8419C1231198
:10288C000500A2854E85BD399707002083C7C7A0D8
:10289C00639D370197070020938707A083D76700B4
:1028AC005D8C97070020239C879EB7E700E023A050
:1028BC002711014591E01945F2406244D244424946
:1028CC00B2490561828001114AC837E900E022CC87
:1028DC0003240900B707200006CE26CA4EC67D8CFD
:1028EC002320F9180F100000BD4763E8A704B14777
:1028FC00B304F50297090020938989A083A70900E6
:10290C00A6979C439DCB937775008545B395F500B1
:10291C00C205C1810D81253F83A709000145A697FA
:10292C0023A0070023A2070023208910F240624451
:10293C00D2444249B24905618280B7E700E023A046
:10294C0087100945E5B7970700209387E7949447CC
:10295C0063860610411126C2BE8497070020938718
:10296C0067968C4306C622C44AC01706002003464D
:10297C00B692814763CFC70A17070020034717A6F3
:10298C00954717090020130929A563EEE708970757
:10299C00002083C7E7A5C1EB170400201304C496DD
:1029AC005840970700209387A7919C43639BE608A8
:1029BC0082975440B74736FE938707C8B69733873C
:1029CC00A7003A856364F7006364D7003305D740EA
:1029DC008327490181CF97070020938767A29443EF
:1029EC003707CDFF7D179C46F98F9CC611E14840F7
:1029FC00970700209387878DDC53829701E9832703
:102A0C00490195C3EF305151EF30314683274901CD
:102A1C0099CB970700209387A79E9843B70633005E
:102A2C001C47D58F1CC7B240224492440249410135
:102A3C008280139717002E97035707006DF78507B1
:102A4C0015BF829794445840B387A6003E8563E433
:102A5C00D700E3EFE7F63385E7409DBF8280411155
:102A6C0006C69707002023AFA7880295B2409707A8
:102A7C00002023ABA78201454101828097070020EB
:102A8C0023A0A78401458280411111468145170579
:102A9C0000201305A58206C69707002023A60782EF
:102AAC009707002023A007869707002023AA0780FA
:102ABC0097D0FF1FE780406613060002814517F58B
:102ACC00FF1F1305657D97D0FF1FE780E064EFC003
:102ADC003030C14785451305001217F7FF1F230E31
:102AEC00F77AEF30212B17070020232BA78041C941
:102AFC00994717F6FF1F0346467A3306F6028145BF
:102B0C001306060C97D0FF1FE780006197F7FF1F95
:102B1C009387077F9C439387070C17F7FF1F232D81
:102B2C00F77817F7FF1F034747770A07BA9717F786
:102B3C00FF1F2329F778EFF0DF8D392997F7FF1F57
:102B4C0093878777984397F7FF1F83C7F7749396FC
:102B5C002700BA9617360100130626CF90C293862B
:102B6C002700850793F7F70F8A07BA9717F6FF1F09
:102B7C00A304D672170700001307878A98C3B240C4
:102B8C004101828097F7FF1F83C7177117F7FF1F4B
:102B9C000347A77063F3E70217F7FF1F1307C7710B
:102BAC0018439386170017F6FF1FA307D66E93964C
:102BBC002700369708C33E8582809307F00FE5BF48
:102BCC001C41638A0712370700F07D8FB70600207F
:102BDC0089476313D71203574500630F0710411140
:102BEC0022C419462A849305F00F5D0506C6EF2012
:102BFC00315505478D47630BE50E1C4491C758545E
:102C0C0099476DC718587DC313064003814517F5C6
:102C1C00FF1F1305A56B97D0FF1FE780E04F13062E
:102C2C004003A28517F5FF1F1305456A97D0FF1FB8
:102C3C00E780A04A97F7FF1F83D7076A99E79307A6
:102C4C00001017F7FF1F2319F76897F7FF1F83C7AB
:102C5C00C76891E7854717F7FF1F2300F76897F7B9
:102C6C00FF1F83D7A76791E7ED4717F7FF1F2317C0
:102C7C00F76697F7FF1F83C7576691E78D4717F7DE
:102C8C00FF1FA30CF76497F7FF1F83C7476591E7F6
:102C9C00854717F7FF1F2304F76497F7FF1F83C7B8
:102CAC00176499EB97F7FF1F9387476283C7F70069
:102CBC0017F7FF1FA305F76297F7FF1F83C747623C
:102CCC0091E7C94717F7FF1F230CF760834754019F
:102CDC0099E79307400617F7FF1FA303F760FD570B
:102CEC0017F7FF1FA30CF77645338147B2402244F8
:102CFC003E854101828089473E85828001114EC606
:102D0C0097F9FF1F9389496083A7090006CE22CC4F
:102D1C0026CA4AC852C4829713090064B3352503E6
:102D2C0003DA89008146528633052503EF00914F63
:102D3C0097F7FF1F93874756804BAA84014563067C
:102D4C00940233858440636E940003A54900528637
:102D5C008146B335A9023305A902EF00B14C018DB0
:102D6C00269597F7FF1F23A19754F2406244D24453
:102D7C004249B249224A05618280011122CC0A855E
:102D8C002E844146972501009385452F06CEEFE012
:102D9C008FAF180806043A94035504FF97F7FF1FEA
:102DAC0083D72757F2406244AA9737450F00130583
:102DBC0005243355F5020561828097F7FF1F83D7F1
:102DCC00475551471D45637CF70279471945637890
:102DDC00F7021307200315456373F7021307B004BA
:102DEC001145637EF700130740060D456379F70024
:102DFC001307600909456374F70013B5B70F828098
:102E0C00011122CC06CE2A842EC697D0FF1FE78054
:102E1C00A027B245F240818D33A5A50222956244CC
:102E2C001375F50F05618280011122CC06CE2A8420
:102E3C002EC697D0FF1FE7802025B245F240818D2A
:102E4C0033A5A50222956244420541810561828029
:102E5C00011122CC06CE2A842EC697D0FF1FE78004
:102E6C00A022B245F240818D33B5A5022295624471
:102E7C0005618280411106C651CD1C41AA850545CC
:102E8C00D9C7DC41C9C783D78500D1C383D7A50077
:102E9C00BDCF514617F5FF1F1305054797D0FF1FF0
:102EAC00E780A02397F7FF1F2386074697F7FF1F9E
:102EBC00938787458843D93697F7FF1F83C76742A7
:102ECC008DE79307006417F5FF1F03556544330521
:102EDC00F50237460F001306062481468145EF00A4
:102EEC00713497F7FF1F238EA73E17F7FF1F034779
:102EFC00473FAD4763E7E700B14717F7FF1F2302D2
:102F0C00F73E170500001305A5DF913E0145B240C1
:102F1C004101828097F7FF1F23AA073897D7FF1F1D
:102F2C009387474B17F7FF1F2320F73E7D5797F7E3
:102F3C00FF1F23ADE73CB7873200938727A197F695
:102F4C00FF1F23A7F63C97F7FF1F2385073CB7C746
:102F5C00004023A4E72699BF011122CC17F4FF1FD0
:102F6C001304C436084406CE26CA4AC801E90545EE
:102F7C00F2406244D2444249056182805C54E5DBF4
:102F8C00185875D77000854582971844B247E300EE
:102F9C00F7FE9305E00417F5FF1F0355E533EF200B
:102FAC00715F17F7FF1F2325A73071D117F6FF1F8D
:102FBC00035686329305F00F97D0FF1FE780C0159C
:102FCC00814417F9FF1F1309292D97F7FF1F83C79A
:102FDC00C7300326890163C1F402328597E0FF1FD5
:102FEC00E780A082014597F7FF1F23A3072C97F7D3
:102FFC00FF1F23A1072CADBF97F5FF1F83D5C52D50
:10300C00B387950208441858898185043E9508C2F7
:10301C00029765BF011156C297FAFF1F938A0A2BBC
:10302C0083A78A0022CC4AC84EC606CE26CA52C4F2
:10303C005AC0AA892E8432896380072203A7CA0248
:10304C00630507141307F01F6363A71497F4FF1F9E
:10305C009384842403AA840163150A0A95659385D5
:10306C0015E017F5FF1F03552527EF20B15297F7F1
:10307C00FF1F23AFA7222A866309051083A7CA0264
:10308C0003A58A0097F5FF1F83D5052589818297B3
:10309C0083A78A0003AA840117F7FF1F232CF720AC
:1030AC008947639AF908C1476311F40E97F5FF1F1E
:1030BC0083D58522938505FC9147B3C5F5028A0516
:1030CC00D29503C725009307A005631CF70A83D785
:1030DC0005006398370B4A852286910597D0FF1F10
:1030EC00E780A0FF9C4C5285639F47130145F2403B
:1030FC006244D2444249B249224A924A024B056187
:10310C008280D84CE38EE7F89565938525E017F51A
:10311C00FF1F0355651CEF20F1472A8A3DC52A86FF
:10312C0083A7CA0203A58A0097F5FF1F83D5C51A8A
:10313C0089818297B5B78D47639DF900C1476316A6
:10314C00F40497F5FF1F83D52519938545FDF19957
:10315C0085BF9147639AF9006319340397F5FF1FF4
:10316C0083D58517A115E5B793070010639FF90068
:10317C00A14763EC870097F5FF1F83D5E515C115B3
:10318C00F9B79C4C52856394470D29458DB71D6A40
:10319C00568B637F4509130A05E01947334AEA0247
:1031AC0017F7FF1F0357471397FAFF1F938ACA0E8F
:1031BC00330AEA023E9A83A7CA016395470183A4A6
:1031CC008A018DE49305E00417F5FF1F0355C51024
:1031DC00EF20513CAA8455D98327CB0297F5FF1FCA
:1031EC0083D5850F2A86898152858297914513074D
:1031FC00A005898193972500A69783C62700639322
:10320C00E60483D60700639C360385058A0522866F
:10321C00A6954A8597D0FF1FE78020EC83A78A01EB
:10322C00E38697EC268597D0FF1FE780005E7DBD77
:10323C0021677917E36BA7F4330A454195B783C52A
:10324C00370045BF83A78A01E38197F4268597D081
:10325C00FF1FE780805B15BF97F7FF1F9387C7039E
:10326C008C4F85D591479306A0058983139727002A
:10327C002E9703462700E31AD6F003560700631C6B
:10328C00360185078A072286BE954A8597D0FF1F8F
:10329C00E780A0E4A1BD83473700C1BF97F7FF1FAC
:1032AC009387C702984739C79C5BA9C70547631327
:1032BC00E504411122C417F4FF1F1304E4FD104C64
:1032CC0006C60DC6484C97F5FF1F83D5E5008981CE
:1032DC008297084C97D0FF1FE780205397F7FF1F6A
:1032EC0023A807FC97F7FF1F23A607FCB240224434
:1032FC00410182808280011117F7FF1F130707FD20
:10330C004EC68329870022CC26CA4AC806CE52C490
:10331C0056C2AA842E843289638709201C5BBA8A20
:10332C0099EB2945F2406244D2444249B249224ABF
:10333C00924A056182805C57EDD79307F01F63E8D2
:10334C00A70E97F9FF1F938929F583A78901B1CBA4
:10335C0003A58A0083A7C9016393A70689476391D4
:10336C00F408C147E31FF4FA17F5FF1F0355C5F620
:10337C009147130505FC3345F5029317250003A56A
:10338C0089012286CA853E959307A0052301F50085
:10339C0023109500110597D0FF1FE78000D401453D
:1033AC0051B79305E00417F5FF1F0355E5F2EF2025
:1033BC00711E97F7FF1F23ADA7EE59F99DB783A791
:1033CC00CA0203A6890197F5FF1F83D5E5F0898111
:1033DC00829783A78A0017F7FF1F232DF7ECBDBF39
:1033EC008D47639EF400C147E31DF4F217F5FF1FF0
:1033FC00035585EE130545FD9377C5FF49B79147F6
:10340C00639AF400E31F94F017F5FF1F0355C5EC06
:10341C002115DDB793070010E395F4F0A147E3E223
:10342C0087F017F5FF1F035525EB4115F1B79D6785
:10343C006379F506930705E01947B3C7E70217F759
:10344C00FF1F035767E917FAFF1F130AEAE4B38754
:10345C00E702BE9983278A01A1CF8327CA0163970C
:10346C00370703258A0191461308A0059305F00F31
:10347C0093D72600139727002A9703462700631D2E
:10348C000607835807000346370063939806B30674
:10349C00D64063CD860485078A072286CA853E9569
:1034AC00DDBD21677917E36EA7E6B307F54041BF91
:1034BC009305E00417F5FF1F035505E2EF20910D6E
:1034CC0097F7FF1F23A6A7DE49F9A1BD83A7CA0260
:1034DC0003268A0197F5FF1F83D505E089814E8568
:1034EC00829797F7FF1F23A737DDA5BF2310B700DF
:1034FC0093160601C182ADBFB385860017F6FF1F78
:10350C00035686DD9105130606FCE3FCC5E01306A5
:10351C003400719A1106B29623010701231097000B
:10352C00A301D7008DBF97F7FF1F9387E7D6944F62
:10353C00BE89A9C203A5890191461308A00593056C
:10354C00F00F93D72600139727002A9703462700DE
:10355C0063160605835807000346370063989800E6
:10356C00B306D640E3D986F22310B70093160601B2
:10357C00C182C1BF8357C70017F5FF1F0345E5D5AF
:10358C009305E0043305F50242054181EF209100DB
:10359C0097F7FF1F23AEA7D051FD61B317F6FF1F9E
:1035AC00035686D397F5FF1F83C525D3B385C50274
:1035BC00338686001106E3E6C5D691BF01458280AD
:1035CC00011106CE2EC6EF50C01F01C9B245F24004
:1035DC000355250005616F80906BF24049450561EC
:1035EC008280A382018C2382018C23AA018A23ACC2
:1035FC00018A23A8018A23A6018A97F7FF1F9387C4
:10360C00A7D31307400B2391E7001307000A23925B
:10361C00E7002393E7007177130707B82394E700BB
:10362C001D472395E70041472396E700054723975D
:10363C00E7001307F0072399E700130710F8239B03
:10364C00E7007D572390070023980700239A070073
:10365C00239CE7008280011126CAAA84214522CC32
:10366C0006CE2E8432C636C43AC2EFE0FFC11DC965
:10367C00A24612473246930700FD2300F5009947F6
:10368C00A30095002301F5002303D500A303E50057
:10369C002312C500AA8522856244F240D2440561FA
:1036AC006FE0FFCDF2406244D2440561828023AAD0
:1036BC00A18A828023ACA18A8280011122CC4AC8C3
:1036CC0006CE26CA2A890144B30489006368B40073
:1036DC00F2406244D2444249056182802EC697D0A2
:1036EC00FF1FE780609A93170501C183A183B24540
:1036FC002380F4009307140093F7F70F850463F904
:10370C00B700CA9709042380A7001374F40F6DBF88
:10371C003E846DBFC16717F5FF1F035525C1FD170B
:10372C006304F502411117F6FF1F0346E6C99385A2
:10373C00C18B06C6EF40D069B240FD5717F7FF1F8B
:10374C002316F7BE41018280828023900500ADC212
:10375C008147130E000C63FDC7043387F600034842
:10376C0007001387170042079318080193D8080124
:10377C004183638F08023A98634C06033388E60052
:10378C000348080063060802130328FC1373F30FA5
:10379C0063706E021383F8FF239065006316A80014
:1037AC001305170036958280C697C207C18365B78B
:1037BC0001458280411126C2AE8422C497F7FF1FB7
:1037CC0023A2C7B697F7FF1F23ACB7B497F7FF1F19
:1037DC0023A6A7B42A8441469305F00F26854AC038
:1037EC0006C60549EF20C115631E250397F7FF1F79
:1037FC009387C7B2C843C145C93541469305F00FFD
:10380C002285EF20E113854463169502224497F735
:10381C00FF1F9387A7B0B240924402498843C14529
:10382C00410161BD414681452685EF206111E316BA
:10383C0025FD6DBF414681452285EF206110E307D0
:10384C0095FCB240224492440249410182804111CC
:10385C0022C426C22E84AA847146814517F5FF1F07
:10386C001305C5AB06C697D0FF1FE780E08A97F714
:10387C00FF1FA38C97AA97F7FF1F238987B4EF80AC
:10388C009042854719C181474945B240224417F7F8
:10389C00FF1F230BF7A8924441018280814781CD01
:1038AC0019C98547631BF50083C7550093E707FCCF
:1038BC00A382F50085473E85828009478547E31C36
:1038CC00E5FE03C755001377F703A382E500E5B7C0
:1038DC00814781CD19C903C755009306000C854754
:1038EC001377070C6303D70089473E85828041110B
:1038FC0022C4005D06C626C21DC8AA84085009C58C
:10390C0097D0FF1FE78060F0485009C597D0FF1F84
:10391C00E780A0EF085409C597D0FF1FE780E0EEC1
:10392C00228597D0FF1FE78040EE23AC0402B24003
:10393C00224492444101828009ED97F7FF1F83C70F
:10394C00C79E17F5FF1F1305A59E81CB1385418AD2
:10395C00828017F5FF1F1305A59D828017F5FF1FA9
:10396C000345A59C828097F7FF1F9387279B88436D
:10397C00828097F7FF1F9387679AC843828097F7D7
:10398C00FF1F9387A7999C478843828097F7FF1F57
:10399C009387C79898471C4385071CC317F5FF1FCF
:1039AC000345B5989307F00F6305F50091656F20FB
:1039BC00E10E8280011122CC32C606CE2E84EF405D
:1039CC009070914732466310F5029387818B9C432C
:1039DC0099CB03A307006308030022856244F240DD
:1039EC00B28505610283F24062440545056182801F
:1039FC00011122CC2A840355450006CE26CA4AC89A
:103A0C004EC6EF40F04A2DC52A89834405008349F0
:103A1C00C500F13D4A85EF50A01D03554400EF4011
:103A2C00D06583C7418CA9CB6398970483C5518C0F
:103A3C002685793619E12382018C03554400EF4029
:103A4C0090689147631FF5000357440097F7FF1FD9
:103A5C0083D7C78D6317F700FD5717F7FF1F231781
:103A6C00F78CF2406244D2444249B24905618280EB
:103A7C0081499304F00F75B79307F00FE38FF4FAB5
:103A8C008346640003564400034524004E87A685F4
:103A9C00D93665B717F7FF1F034737899307F00F20
:103AAC006305F706411126C2AA84294522C406C61D
:103ABC00EFE08FFD2A8429C5930700FD2300F50054
:103ACC00A147A30095002301F50097F7FF1F9387EB
:103ADC00E78483C7E7009385418A1105A30FF5FEA0
:103AEC00194697C0FF1FE780405FA2852244B24071
:103AFC00924417F5FF1F0345558341016FE03F8842
:103B0C00B2402244924441018280828079715EC627
:103B1C00AA8B2E8552CC56CA5AC806D622D426D287
:103B2C004AD04ECEAE8A328B368AEF4070387DC189
:103B3C00045D2A89E5C09C50614599C31305400377
:103B4C009C5481C751054205418163050A007105EA
:103B5C0042054181DC5081C75D0542054181EFE0A2
:103B6C00AFF22A8445C96146814597C0FF1FE780A3
:103B7C00A05A97E9FF1F83C9297D639409008349E3
:103B8C000900930700FD2300F400A947A30074016A
:103B9C002301F400230364018C50231254011305F8
:103BAC00840191C908C47146930A440397C0FF1F4E
:103BBC00E780A05256858C5491C948C45146930A4B
:103BCC00450197C0FF1FE78040515685630C0A00E2
:103BDC0008C87146D285930AC50197C0FF1FE780BC
:103BEC00C04F5685CC5099C548C85D4697C0FF1F3D
:103BFC00E780A04EA2854E85EFE06FF82254B250BC
:103C0C009254F249624AD24A424BB24B4A8502590B
:103C1C004561F1B9B250225492540259F249624AA8
:103C2C00D24A424BB24B4561828001114EC6AA89E1
:103C3C002E854AC806CE22CC26CA2E89EF405027A4
:103C4C0021C997E4FF1F83C4247099E083440500C5
:103C5C001945EFE06FE32A8405CD8145194697C0DD
:103C6C00FF1FE780604B930700FD2300F400B9476A
:103C7C00A30034012301F40023122401A285624421
:103C8C00F2404249B2492685D24405616FE02FEFDC
:103C9C00F2406244D2444249B24905618280397192
:103CAC005ECEAA8B2E8526DA4ED652D456D25AD058
:103CBC0006DE22DC4AD8AE84328BB68A3A8ABE89BA
:103CCC0042C6EF40F01E21CD2A894145EFE0CFDB03
:103CDC002A8431C54146814597C0FF1FE780C04308
:103CEC0017E5FF1F0345456619E1034509009307D6
:103CFC0000FD2300F400BD472301F400B247A300EC
:103D0C0074012312940023046401A30454012305B9
:103D1C004401A30534015CC4A285EFE04FE6F250E8
:103D2C006254D2544259B259225A925A025BF24B03
:103D3C002161828017E7FF1F0347375F9307F00F5E
:103D4C00630DF706411126C2AA84394522C406C662
:103D5C004AC0EFE06FD32A8439C9930700FD2300D2
:103D6C00F500A30095002301050097E5FF1F93853F
:103D7C00255C0D05194697C0FF1FE780003617E933
:103D8C00FF1F1309A95983572901A2852315F40094
:103D9C008347D9002306F4002244B24092440249DE
:103DAC0017E5FF1F0345755841016FE04FDDB24029
:103DBC0022449244024941018280828001115AC0FE
:103DCC002A8B314526CA4EC652C456C206CE22CCC8
:103DDC004AC8AE84B28A368ABA89EFE0EFCA2DC9D6
:103DEC002A842685EF40D00C39CD17E9FF1F0349F3
:103DFC00F95D631C0B00938781949C439C4791C78E
:103E0C00CE865286D68526858297930700FD2300A1
:103E1C00F4009D47A30064012301F40023129400D5
:103E2C00231354012314440123153401A285624445
:103E3C00F240D244B249224A924A024B4A85424944
:103E4C0005616FE0CFD317E9FF1F0349194E75BF0A
:103E5C00F2406244D2444249B249224A924A024B4D
:103E6C0005618280011122CC2A84214506CE2EC602
:103E7C00EFE08FC121C1B245930700FD2300F5008F
:103E8C00C5472301F50083C73500A301F50083D78F
:103E9C0045002312F50083C765002303F50083C793
:103EAC007500AA85A303F50022856244F2400561E2
:103EBC006FE0EFCCF240624405618280397162CCD4
:103ECC002A8C594526DA4AD84ED652D456D25AD0D4
:103EDC005ECE06DE22DCAE8432C636C4BA8B3E8B96
:103EEC00C28A468A8359010403494104EFE0CFB9E1
:103EFC0025C93246930700FDA2462300F5009547DD
:103F0C00A301C500A30085012301F5002A841946ED
:103F1C001105A9C2B68597C0FF1FE780001C2306B8
:103F2C006401230A24012315740123175401231857
:103F3C00440123193401A2856254F2504259B259FA
:103F4C00225A925A025BF24B624C2685D254216162
:103F5C006FE0EFC2814597C0FF1FE780E01BC1B740
:103F6C00F2506254D2544259B259225A925A025BBC
:103F7C00F24B624C21618280797126D206D622D412
:103F8C004AD04ECE52CC894459C52A8403550500DB
:103F9C002E8AD144EF40C0712A8935CD1C5DC544B1
:103FAC00BDEB9165938545711305C002EF10915ED1
:103FBC00232CA902AA89CD4439CD1306C002814510
:103FCC0097C0FF1FE7804015835704009386490074
:103FDC0036852391F90071469305440036C697C087
:103FEC00FF1FE780800F89472380F900B2460356F4
:103FFC00040097E5FF1F83C5253D0145EF50406048
:10400C00AA8463060A00D2854A85EF40106581C4F4
:10401C004A85EFF0DF8DB250225426850259925416
:10402C00F249624A4561828029CE411122C426C2DE
:10403C004AC006C6B2842E89EF4080672A84D147D5
:10404C001DC5485509C597C0FF1FE780007CF14589
:10405C002685EFE06FC348D4CD4711C98347440090
:10406C00630E090093E767002302F4008147B24016
:10407C002244924402493E854101828093E74700E5
:10408C00E5B789473E858280AD4763EBA70097E78C
:10409C00FF1F9387672A06053E950355050082800E
:1040AC0041657D158280011122CC2A842E8526CA79
:1040BC0006CEAE84EF40C05F1DCDB7470F0093878F
:1040CC00F723094563E4870281450A85414697C079
:1040DC00FF1FE7806004A685231081000A854180BC
:1040EC0023018100A3010100EF50403FF2406244E4
:1040FC00D244056182804945D5BF97E7FF1F2386CF
:10410C00A72C82806F50E049797152CC2A8A328573
:10411C0022D426D24AD04ECE56CA5AC85EC606D62D
:10412C0062C4AE8BB28A368BBA843E89C28946840D
:10413C00EF40005815C92A8C63140A0213774B0000
:10414C008347450015CF93E727012302FC008DEC34
:10415C00631C0902639A090205E8ED9B2302FC002B
:10416C00832B8C03639F0B06B2502254925402593A
:10417C00F249624AD24A424BB24B224C4561828090
:10418C00F59B93E70701D1B793E747002302FC00A7
:10419C0001CC1C484146A2852324FC0213058C014A
:1041AC0097C0FF1FE78060F363910B02D5D80325FE
:1041BC00CC0209C597C0FF1FE7802065F145268515
:1041CC00EFE08FAC2326AC0261BFE30B09F80325AB
:1041DC00CC0209C597C0FF1FE7802063F1454A85D3
:1041EC00C5B78DC483A70B0289EB91659385357197
:1041FC007145EF10313A23A0AB0203A50B0219C590
:10420C007146A68597C0FF1FE78020ED63860902E3
:10421C0083A74B0289EB9165938525715D45EF1062
:10422C00713723A2AB0203A54B0219C55D46CE859F
:10423C0097C0FF1FE78060EA0DC483A78B0289EB50
:10424C009165938515715145EF10D13423A4AB02C0
:10425C0003A58B0219C55146A28597C0FF1FE780A5
:10426C00C0E72254B2509254F249B24B224CCA8647
:10427C005A860259424BD6855285D24A624A4561CA
:10428C006FF0DF88011126CA52C406CE22CC4AC870
:10429C004EC62A8AAE84EF40A04125C5AA8939456D
:1042AC00EFD09FFE2A8431CD17E9FF1F0349C909BE
:1042BC006314090003C909009307000D2310F400CF
:1042CC00AD472301F40093856900130534001946AA
:1042DC0097C0FF1FE78060E093F714008580858806
:1042EC002306F400A306940023154401A28562441E
:1042FC00F240D244B249224A4A85424905616FE0F4
:10430C000F88F2406244D2444249B249224A0561C4
:10431C0082809387C18A884301CD411106C697C01C
:10432C00FF1FE780804EB24023A6018A41018280A4
:10433C008280011106CE22CC26CA4AC82EC6EF4076
:10434C00203739CDB24517E9FF1F0349E9FFAA848D
:10435C000CD563140900034905004145EFD0DFF289
:10436C002A841DCD9307000D2310F500A5472301CA
:10437C00F50083C75400938564001105A30FF5FE67
:10438C00194697C0FF1FE78040D59C54A285F24088
:10439C005CC46244D2444A85424905616FD03FFEF9
:1043AC00F2406244D244424905618280C16717E8F9
:1043BC00FF1F0358A8F7FD17630CF8024111239E49
:1043CC00B18A239FC18A9385C18B17E6FF1F0346D1
:1043DC00A6FF06C62391E18C2390D18CEF40401FA1
:1043EC00B240FD5717E7FF1F2312F7F441018280FB
:1043FC008280797122D406D62A842EC6EF40402BB7
:10440C0005CD8346C5001147AA8749456392E6024C
:10441C009C5FB24599C383C567012308B1009756C9
:10442C0000009386C66F100889452285EF40B019AD
:10443C00B2502254456182805145DDBF31C64111D5
:10444C0022C426C24AC006C6B2842E89EF4040263A
:10445C002A84514505C4630809008347440093E747
:10446C0027002302F400130584014146A68597C05A
:10447C00FF1FE78080C69C4801451CD4B2402244F3
:10448C00924402494101828009458280797122D48B
:10449C0006D62A842EC6EF40A02101CDB245228536
:1044AC00230EB1006C08EF40D017B2502254456176
:1044BC0082805145DDBF6F4040364111C16726C235
:1044CC004AC006C622C4FD172A89B2846390F5023D
:1044DC00B285EFF0EF8E09E52382218DA382918CBA
:1044EC00B240224492440249410182802E852E849E
:1044FC00EF40001C19CD834705000D45E39227FFC3
:10450C0022852244B2400249A685924441016F7033
:10451C0010784945F1B72D47AA876361A702416717
:10452C007D170945638DE50017E5FF1F1305C5E0F1
:10453C008607AA972390B70001458280094582809F
:10454C00011122CC06CE26CA4AC8114609446392F0
:10455C00C5023EC63A89B684EFF06FAF2A84324664
:10456C0009E9CA852685EFF0EFA4EF005057EF005C
:10457C0070332285F2406244D24442490561828004
:10458C00411106C622C42A84EFF0AF85EF007034C7
:10459C00EFA0303F814517E5FF1F130525D8714665
:1045AC0097C0FF1FE78040B7930700F017E7FF1F86
:1045BC00231DF7D67D5797E7FF1F9387E7E02381ED
:1045CC00E7002380870022852244B24095454101B3
:1045DC006F30405E1D7193970501CAC886CEA2CC80
:1045EC00A6CACEC6D2C4D6C2DAC05EDE62DC66DA39
:1045FC00C1872E8963DB074417E5FF1F0345C5DC24
:10460C00EFD05FCF8964C169056A797B2A84938B6B
:10461C00D400FD19250A130CABFF0DE021653345C1
:10462C00A900F6406644D6444649B649264A964AFD
:10463C00064BF25B625CD25C25618280834704008E
:10464C001307200A639DE7000355240097EAFF1F18
:10465C0083CABACD2286CE85EFF0CFB5A5A21307BB
:10466C00100997EAFF1F83CA4AD6639BE73A834730
:10467C00140015476390E7022285EFF06FB722858F
:10468C00EFD07FBB17E5FF1F034505D4EFD09FC6C6
:10469C002A8461B73947639AE71283574400639BB6
:1046AC0047050C4483CC0500639D0C00850591C91E
:1046BC00194617E5FF1F1305A5C797C0FF1FE78015
:1046CC00C0A117E7FF1F034727C68547631AF734B6
:1046DC00638A0C0097E7FF1F238807C46685EFF0F9
:1046EC006FE571BF894717E7FF1F230FF7C2EF7004
:1046FC00306171B713872400639AE706832C84001A
:10470C0063800C3283C70C008DE383C72C0003C776
:10471C001C00A207D98F17E7FF1F231AF7C083C706
:10472C003C0017E7FF1FA301F7C017E7FF1F034764
:10473C00A7BF89476316F72E83C70C0081CB97E779
:10474C00FF1F238307BE03C50C0051BF8D4797E5A0
:10475C00FF1F83C575BD17E5FF1F035545BD17E743
:10476C00FF1F2303F7BCEF30E047F1BF1387540062
:10477C006398E7001C4403C50700EFF0AFB101B725
:10478C003387870142074183914663F3E60213079F
:10479C00ABFCBA97C207C18371476363F72837072D
:1047AC0000181307F770B357F700858B638A072639
:1047BC009387418B9C43E38407EC9C43E38107EC98
:1047CC0022858297E31D05EAA1AC3D476390E7047F
:1047DC0083574400E38577EB13879401E381E7EA81
:1047EC0013873401639EE72297E7FF1F83D707B433
:1047FC00E38737E99387818B9C43E38207E89C43EB
:10480C00E38F07E6A2853A8582976DBF1307E00315
:10481C006398E7208347240005476396E70C93874A
:10482C00418B9C4397ECFF1F83CC3CB091C7DC437E
:10483C0081C781450145829703457400930A840022
:10484C00D685EFF0EF8883474401A303A400835877
:10485C0004010358E400035744002A86034534003E
:10486C003EC283572401D686E6853EC09147EFF0C1
:10487C00EFE48347340095E7DD4783580401035880
:10488C00E40083467400835544003EC283572401E0
:10489C00568705463EC066859147EF408019A301B7
:1048AC00A4009387C18A9C4381C71145EFF07FA672
:1048BC0003C5418CE30505DC83C5518CEFE05FD06B
:1048CC00E30F05DA8346340093071003638AF6007E
:1048DC0003564400114783C5418C3685EFE0BFD7A2
:1048EC002382018C69BB29476399E7089387418B25
:1048FC009C4397EAFF1F83CA5AA391C7DC4381C725
:10490C008145014582970345740093068400937793
:10491C002500A1CF13761500930C440183470402A4
:10492C008358C4010358A4010357440003453400C1
:10493C003EC28357E401D6853EC09147EFF00FD8B5
:10494C0083473400B9FFDD478358C4010358A401E1
:10495C0083467400835544003EC28357E401668746
:10496C0005463EC0568591470DBFB68536CEEFE065
:10497C003FF6F2462A86B68C55B70D476397E7008B
:10498C0022868D4503554400C1B919476395E70646
:10499C006C1013051031EFA030059305E1021305DF
:1049AC002031EFA07004035664008357E1020355D5
:1049BC00440063E8C700835684000357C10263F7C1
:1049CC00E60093050002EF70104555B96374E600DC
:1049DC002313E40063F4D7002314F4000357C4003A
:1049EC008356A40003568400835564000148814714
:1049FC00EF70703F69B11D476384E70231476395DF
:104A0C00E7002286B145BDBF49476394E70293870F
:104A1C00418B9C4391C7DC4381C7814505458297F7
:104A2C009307F00FE38DFAC4A2855685EFD03F951E
:104A3C0091B94D47E396E7FE9387418B9C43EDD3A9
:104A4C00DC43F9DFA2850945D9BF93F72500014561
:104A5C00E38907BC9387418B9C4391C7DC4381C797
:104A6C008145054582971345290065BE1D71A6CA6F
:104A7C009384018B9840A2CC86CECAC8CEC605447E
:104A8C0041C30345370097E7FF1F83C7078AB33736
:104A9C00F000930547003EDEEFE05FE098402ADC33
:104AAC000945834527002EDAEFF00FDE2AD80D4595
:104ABC00EFF08FDD84402AD6254503C7A40083C9B7
:104ACC00B4003AD4EFF04FDC2A892945EFF0CFDB64
:104ADC0062096258F2572257B2564256D255137594
:104AEC00F50F135989412ACC22C402CA02C802C646
:104AFC004AC24EC0938844000545EF70F0382A84B2
:104B0C002285F6406644D6444649B64925618280E2
:104B1C009387018B884301CD411106C697C0FF1FB7
:104B2C00E780A0CEB24023A8018A41018280828016
:104B3C00011122CC06CE8D472E846316F50603C7D1
:104B4C003500E94703D545006318F70097D7FF1FD9
:104B5C0083D7C77D6385A706EF30903509C583578A
:104B6C0064002317F5000357A400835684000356F2
:104B7C0064008355440003453400EFF02FA4035721
:104B8C00440097D7FF1F83D7677A6308F7008547E0
:104B9C00F24062443E8505618280FD5717D7FF1FA6
:104BAC002316F778EDB78967CD07631DF50083C72A
:104BBC00250031476385E7004547E39AE7FCEFE0C2
:104BCC007FB5F1B7B1476319F50017D5FF1F034542
:104BDC00F57FEFF02FA965BF41677D178147E3197A
:104BEC00E5FA83C655004947E394E6FA83C54500C8
:104BFC0003552400300023140100EF30501C41BF3A
:104C0C00411122C406C626C283C7618C1307E00F6C
:104C1C002E846383E7041307F00F6387E7021145C3
:104C2C00EFD08FE615C1930700FD2300F5008947EF
:104C3C002301F5008547A3008500A301F500AA8593
:104C4C0003C5618CEFD0AFF3F9572383F18CB240DD
:104C5C002244924441018280AA841145EFD0CFE2D4
:104C6C007DD5930700FD2300F5008947A30085003F
:104C7C002301F500A30195002244B2409244AA8579
:104C8C0003C5718C41016FD08FEF01114AC8138994
:104C9C00018B8327090006CE22CC26CAC9EBAE8431
:104CAC009165A383A18C2A84938575713145EF108E
:104CBC00610EAA8723A8A18A4D45B9C3238087001A
:104CCC00A3800700138527002946A68597B0FF1FF0
:104CDC00E780A04083270900914603C7270063ECB7
:104CEC00E6000DE74D472381E70003C72700136754
:104CFC0007012381E7009D3B01C52AC6113D3245C2
:104D0C00F2406244D2444249056182808546631474
:104D1C00D7007547C9BF89466314D7004947E1B727
:104D2C008D466314D70041477DBF55476DBF454540
:104D3C00C1BF011126CA9384018B9C4022CC06CEA4
:104D4C004944B9C383C707000D44639FA702894533
:104D5C0017D5FF1F03454567EFD07FAF914517D59A
:104D6C00FF1F03456566EFD09FAE9C40014781460F
:104D7C00A38087001306F100854785450145A307ED
:104D8C00F100EF70101A2A842285F2406244D2445A
:104D9C000561828041114AC006C61389018B22C469
:104DAC0026C2054783270900631BE500C9CF2244AF
:104DBC00B2409244024903C5070041019DBFC1C7DF
:104DCC008947AE846314F5062D45EFD0EFCB2A84CA
:104DDC003DC9930700FD2300F500E547A30005003E
:104DEC002301F50083C7340015051946230FF5FE82
:104DFC0083C7440093855400A30FF5FE97B0FF1FA3
:104E0C00E780A02D17D5FF1F0345555C9307F00FC6
:104E1C006316F5008327090003C50700A285224409
:104E2C00B2409244024941016FD06FD5894517D5E4
:104E3C00FF1F03456559EFD09FA12244B240924415
:104E4C0002494101F1B1B24022449244024941016C
:104E5C008280FD4763FCA700094582800945F2402A
:104E6C006244D2444249B249056182804DC5011168
:104E7C0022CC2A8421054EC64205AE8991659385C4
:104E8C00657141814AC806CE26CAEF00B1702A89E5
:104E9C0071D59384C18C884009C597C0FF1FE780EA
:104EAC00C096130589002320A9002286814523A6DC
:104EBC00218D97B0FF1FE78020269C402286CE854F
:104ECC00884397B0FF1FE78040219C4023928700C6
:104EDC009387018B9C4385CF97D7FF1F83C7074FC1
:104EEC00918B85CB9387C18C9C4399CF984383D668
:104EFC0047006244F240D2444249B24905468D45CE
:104F0C00054505616F70607D01478146DDB7014540
:104F1C00B9B74945A9B79387018B9C438DC797D7E0
:104F2C00FF1F83C7A74A918B8DC39387C18C9C436A
:104F3C0081CB984383D6470005468D450545D9B7A7
:104F4C0001478146D5BF0145828049458280FD4796
:104F5C0063FCA700094582800945F2406244D244B3
:104F6C004249B249056182804DC5011122CC2A8487
:104F7C0021054EC64205AE899165938555714181D7
:104F8C004AC806CE26CAEF00F1602A8971D59384EF
:104F9C00018D884009C597C0FF1FE7800087130566
:104FAC0089002320A9002286814523A8218D97B052
:104FBC00FF1FE78060169C402286CE85884397B001
:104FCC00FF1FE78080119C40239287009387018B01
:104FDC009C4385CF97D7FF1F83C7473F918B85CBCA
:104FEC009387018D9C4399CF984383D647006244A5
:104FFC00F240D2444249B24905468D45054505610A
:10500C006F70E06F01478146DDB70145B9B749457F
:10501C00A9B79387018B9C438DC797D7FF1F83C775
:10502C00E73A918B8DC39387018D9C4381CB984339
:10503C0083D6470005468D450545D9B701478146BE
:10504C00D5BF01458280494582809387C18C9C43A2
:10505C0091CF03D647008C43411106C697B0FF1F72
:10506C00E780A007B240014541018280094582805A
:10507C009387C18C9C4385C79387018D984389473F
:10508C0005C3035647000C43411106C697B0FF1FDA
:10509C00E780A004B24081473E8541018280894768
:1050AC003E85828097D7FF1F83C74732918B99CF5C
:1050BC0041111385818C06C6EFE0CFDFB240FD575E
:1050CC0017D7FF1F2314F7264101828001456FE09B
:1050DC006FDEFD57A383F18CF9572383F18C23A644
:1050EC00018C23A8018C93874178170700001307C4
:1050FC00C70798C317070000130707CAD8C31707B9
:10510C0000001307E79698C797070000938787A2BC
:10511C0023A4F18C8280411126C29384018B9C4084
:10512C0006C622C485CF2A840D45EFD0EF95AA85FB
:10513C0019CD930700FD2300F5008D47A3008500D2
:10514C002301F5009C4003C50700EFD04FA319C401
:10515C002244B240924441016FF09F9BB2402244E2
:10516C00924441018280835645000111896706CE25
:10517C0022CC26CA4AC8138767036390E6021C45F3
:10518C00014583C50700EFF0BFA78547F240624495
:10519C00D24442493E850561828013877703639729
:1051AC00E6001C45054583C50700F1BF138787033F
:1051BC006393E6081C451307E00F03C4070083C77D
:1051CC00618C638EE7021307F00F6386E7021145CB
:1051DC00EFD08F8BAA8505C1930700FD2300F50046
:1051EC008947A30085002301F500A301050003C531
:1051FC00618CEFD0CF98F9572383F18C79B79387D3
:10520C00018B9843814759D305E485472317010047
:10521C00A300F7009306E1001307D1007000854549
:10522C0005452306F100A3060100EF70804FB1BFC6
:10523C002285D53599BF138797038147E398E6F408
:10524C001384018B1840228931D31C450347170066
:10525C0083C4070085476308F7020D45EFD0CF8262
:10526C00AA8519CD930700FD2300F5009147A300F3
:10527C0095002301F5001C4003C50700EFD02F90CB
:10528C00EFF01F8919B79387C18C9C4385E70145C3
:10529C00EFE09FDF09C92A86894517D5FF1F034513
:1052AC00A512EFD0CFB88327090009472685A38024
:1052BC00E70041B7944303D647009305E100054549
:1052CC00EFE0AFC869D583470500858BE9D3054569
:1052DC00EFE09FDB130600643305C50265BF411187
:1052EC0097D7FF1F83C7870E06C6918B89CB138573
:1052FC004178EFE0CFBB4D45B24041018280014582
:10530C00EFE0EFBA0145CDBFBD47638CF50663E90D
:10531C00B702A5476387F50663EDB7009947638C21
:10532C00F5049D47638FF5049547638CF50401459F
:10533C008280B5476387F50463E1B704AD47F5B7E1
:10534C00DD47638EF50263EAB700C947638BF5024C
:10535C00D9476386F502C547C9BFF5476383F50294
:10536C0063E4B700ED47D1B793072005638BF500D5
:10537C009307200D5DBF4845828008418280084517
:10538C008280484182809307F00F630EF50601116D
:10539C0026CAAA841305000222CC4AC84EC652C49F
:1053AC0056C206CE3A89B689B28A2E8AEFC0DFED94
:1053BC002A844D4515C8930700FB2300F400A30075
:1053CC005401231144012302340113058400614666
:1053DC0063050902CA8597B0FF1FE78000D0A2853C
:1053EC002685EFC0DFF90145F2406244D2444249C0
:1053FC00B249224A924A05618280814597B0FF1FCB
:10540C00E78080D1E9BF09458280011122CC06CE0C
:10541C002A842306B100A306C100EF30602919C904
:10542C0078009306E0070146A28517D5FF1F0345B8
:10543C00F5F9913FF2406244056182809307006464
:10544C003306F6026FD0AFB405C903470500854695
:10545C009307270093F7F70F63F0F602411122C46C
:10546C002A843A8506C6EFD00FC6FD572300F400F8
:10547C00B240224441018280828003570500930789
:10548C00000B6313F702834745004947639CE70011
:10549C000347150185476399E700035525008545AA
:1054AC006F2020716D47C5BF8280011122CC2EC6A2
:1054BC0032C406CE2A8436C2EF30801F12472246F1
:1054CC00B24501CDB2862E86A2856244F24017D534
:1054DC00FF1F0345B5EF05617DB5F24062440545FC
:1054EC000561828023ACA18C8280011122CC26CA5A
:1054FC0006CE2A84AE84EF30A01BA6852285EFA0B1
:10550C0040300DE1228523169100EF30601A19C945
:10551C0078009306F0070146A28517D5FF1F0345B7
:10552C00F5EA9535F2406244D2440561828001115E
:10553C0026CA06CEB68422CCDD4663E2B608D9462E
:10554C0063FED50AA5466381D50A63EEB60495467B
:10555C00638CD50899466387D50A054441687D1844
:10556C00631606093AC6EFA0802D330685403247F4
:10557C0042064182420441803305C4004205BA858B
:10558C00418132C6EF20A068AA8749C181C4324646
:10559C002390C400B30580406244F240D2443E855F
:1055AC0005616FA0A00AC5466380D504C9460D44A9
:1055BC00E395D5FAC167FD17E31EF6FA65B7F54614
:1055CC006380D50463E4B600ED46D5B79306200599
:1055DC006388D5029306200DE391D5F8C167FD17BA
:1055EC000D446319F600BDBF09448DBF9306200D11
:1055FC00E392D5F8310642064182ADBF15445DBF3A
:10560C000D444DBFC167FD171D447DB7F240624488
:10561C00D2440561828079714ECEAE89C16526D2A5
:10562C000147AA848946170601001306E61EFD15DC
:10563C00054522D406D64AD0EF00D05D054429CDCD
:10564C002A891307300281461146F5452685C53552
:10565C002AC6554431C18357A900CE86014623146E
:10566C00F10091472315F10085472300F500B2475F
:10567C002C002685A38007003247FD572301F70035
:10568C003247A301F700EF00B04E2A8411C5324512
:10569C0097B0FF1FE78060172285B25022549254B6
:1056AC000259F24945618280411106C6EFF0DFC50F
:1056BC0019C5B240410117B3FF1F67000315B24073
:1056CC0041018280011106CE2AC6EF90507E3245F0
:1056DC00914523AA018C23AC018C97D7FF1FA3857E
:1056EC00A7CEEF20204DF24005616F107076939796
:1056FC000501C18763D80712797117D5FF1F0345C0
:10570C00B5CC22D44AD006D626D22E89EFC09FBE65
:10571C002A8449CD034705009307000A6315F7084F
:10572C0085474C08A305F100EFA06004AA8405EDA1
:10573C008347610171476374F708138717FE13776A
:10574C00F70F9306000263F3E608858BC5C79387B2
:10575C00418D9C43994481CB035524001306B10021
:10576C004C088297AA848347B10099C7084409C59D
:10577C0097B0FF1FE780600995E05247B70700011B
:10578C00938707F07D8FB707120093870710630C80
:10579C00F70003476101ED476317F7000355240039
:1057AC008545EF2000412285EFC0FFA8B25022545E
:1057BC0021653345A900925402594561828037070F
:1057CC00301405073357F700058B41D31387818DB0
:1057DC00184351DB0347510159F72306F100994750
:1057EC002308F100035524006C0023170100EFA0DF
:1057FC00E01695BF9387818D9C439DC30355240070
:10580C001306B1004C08829739DDAA8483475101F5
:10581C00B9FB83476101230891002306F100D9B736
:10582C009944EDB7014582800145828097D6FF1FD0
:10583C0083C6F6B9814763E5D70001473A85828074
:10584C002E87910503D6C5FFE30AA6FE8507E5B7AB
:10585C000DCD834725000547890793F7F70F63762E
:10586C00F702411122C406C62A848355050003455C
:10587C0035000147F9465D46EFF0FFB0F9572311AB
:10588C00F400B240224441018280828017D7FF1F6E
:10589C000347F7B38147FD5663C3E70082802310AB
:1058AC00D5002301050085071105FDB70145828050
:1058BC009385F1829307000285462380F500FD57FE
:1058CC002387F182A380F1822380F1822396D182F7
:1058DC00239E018C23A2018E23AA018E23A4018E68
:1058EC001386418297070100938707F25CC2238FCE
:1058FC00018C9387017909472300E6002380E70098
:10590C002388E7002380E7022388E70217070100BA
:10591C001307C7EED8DB0D47238CE7021387018EE4
:10592C0018432384D700D0C7238CD7001705010058
:10593C00130505EE17060100130606EC9706010089
:10594C00938686EDC8C323950700D0CB239D070013
:10595C00CCCFD4D3238407022395070223A60702B6
:10596C00239D0702D8DF9387017D170700001307DB
:10597C00E70B23A00700D8C323A4070082804111A2
:10598C0006C66D3511C503452500B2404101828024
:10599C000145E5BF411122C426C24AC006C6AA84ED
:1059AC002E893284613509E94165CA857D15BD3D75
:1059BC00C54711C523109500230185008147B240CE
:1059CC002244924402493E854101828039E3894850
:1059DC00354763911605011106CE22CC26CA034722
:1059EC0016000346060093C7F7FF2207598EF18F66
:1059FC0032C69DE3C4452A84A685513732460147F9
:105A0C00630EA60022856244F240A685D24405614D
:105A1C0051B72D473A85828013070008F240624443
:105A2C00D2443A850561828083C805000948639495
:105A3C00080303A845008347180003480800A20781
:105A4C00B3E70701C2070D68C18713082890639458
:105A5C0007018947A5BF0545828003C711829307BB
:105A6C00F00F630AF70441114AC02A89294522C460
:105A7C0026C206C63284AE84EFC01F811DC59307B3
:105A8C00100B2310F500230205002314850022447B
:105A9C002311250123139500B24092440249AA8593
:105AAC0003C5118241016FC09F8DB24022449244C4
:105ABC00024941018280828041119387018E26C266
:105ACC00AE848C4322C406C62A84553D098909C973
